:020000040800F2
:10000000B8ED0020DD010008F91C000829110008E6
:10001000F51C000857060008E72B00080000000048
:100020000000000000000000000000004501000882
:100030005D09000800000000890100089D260008F5
:10004000F7010008F7010008F7010008F7010008B0
:10005000F7010008F7010008F7010008F7010008A0
:10006000F701000861090008F7010008F70100081E
:10007000F7010008F701000885060008F7010008ED
:10008000F7010008F7010008F7010008F701000870
:10009000F7010008F7010008F7010008F701000860
:1000A000F7010008F7010008F7010008F701000850
:1000B0000D270008F7010008F7010008F701000804
:1000C000F7010008F7010008F7010008F701000830
:1000D000F7010008F7010008F701000825290008CA
:1000E000F7010008F7010008F7010008F701000810
:1000F000F7010008F7010008F7010008F701000800
:10010000F7010008F7010008F7010008F7010008EF
:10011000F7010008F7010008F7010008F7010008DF
:10012000F7010008F7010008F7010008F7010008CF
:10013000DFF80CD000F052FA0048004701C3020873
:10014000B8ED0020224B19680868B0E8F00F80F382
:100150000988BFF36F8F4FF0000080F311884EF0D5
:100160000D0E70470000000006480068006880F32C
:10017000088862B661B6BFF34F8FBFF36F8F00DFA1
:1001800000BF00BF08ED00E0EFF30980BFF36F8F01
:100190000F4B1A6820E9F00F106008B54FF05000BF
:1001A00080F31188BFF34F8FBFF36F8F34F0FCFDE6
:1001B0004FF0000080F31188BDE808401968086816
:1001C000B0E8F00F80F30988BFF36F8F704700BF6E
:1001D00024020020EFF305807047000006488047A6
:1001E00006480047FEE7FEE7FEE7FEE7FEE7FEE71C
:1001F000FEE7FEE7FEE7FEE7AD2600083101000856
:100200002DE9F05F0546002092469B46884606464B
:10021000814640241BE0284641464746224600F0DE
:1002200096F953465A46C01A914110D311461846C2
:10023000224600F07DF92D1A67EB01084F46224651
:100240000120002100F074F917EB00094E41201E37
:10025000A4F10104DFDC484631462A464346BDE8A6
:10026000F09F10B5431A934209D28318881803E00F
:1002700010F8011D03F8011D521EF9D210BD40EA0D
:1002800001039B0703D009E008C9121F08C0042A14
:10029000FAD203E011F8013B00F8013B521EF9D2FB
:1002A00010BDD2B201E000F8012B491EFBD270470D
:1002B0000022F6E710B513460A4604461946FFF732
:1002C000F0FF204610BD30B505462A460B4612F811
:1002D000010B13F8014B08B1A042F8D01CB1002863
:1002E00002D06D1CF1E7284630BD421C10F8011BFE
:1002F0000029FBD1801A704710B5002200E0521C83
:10030000835C8C5CA34201D1002BF8D1D8B2E1B25E
:10031000401A10BD034611F8012B00F8012B002AEA
:10032000F9D118467047F0B480EA0102D40F4200B8
:10033000B2EB410F02D20246084611464A0042D0B3
:10034000C30DDDB2C1F3C752AD1A202D35DAC1F3AA
:10035000160141F4000204B15242C5F1200602FA2E
:1003600006F12A411044B3EBD05F23D0C4B1012D74
:10037000A0EBC35009DCF0BC4FF0004202EAC352CC
:10038000DBB200F5000000F0FBB8400000F1807027
:1003900000EBC350A0F1807040EAD170490009E041
:1003A000490841EAC071A0EBC35000F500004008C5
:1003B00000EBC350F0BC00F0DAB86142012202EB5E
:1003C0004101001BF6E7F0BC704781F00041AAE74D
:1003D00080F00040A7E780EA010210B502F0004378
:1003E000400022D04A001FD0010E01EB1261C0F381
:1003F0005600C2F3560240F4000042F40002A0FB93
:10040000022000047F39140400D0401C50EA12403E
:1004100001D44000491EC2B20C0604EBD010401CAF
:100420004008802A02D003E0002010BD20F0010027
:10043000002900DA0020184310BD30B480EA010220
:1004400002F0004530F0004221F0004013D090B19E
:10045000C30DD40DC2F31601C0F31600E41A41F423
:10046000000140F400027D34914201D3641C00E09D
:100470004900002C02DA30BC002070474FF4000025
:100480000023914201D3891A034340084FEA4101F6
:10049000F7D151B1914202D14FF0004105E002D2B3
:1004A0004FF0010101E06FF0010103EBC45028445B
:1004B00030BC00F05CB8C10F80EAE0700844CA07A5
:1004C0009623002100F05CB896230022114600F02C
:1004D00057B800F0004220F00040C10DC0F31600F4
:1004E00040F400007F2901DA00207047962903DCE0
:1004F000C1F19601C84001E096398840002AF4D045
:100500004042704730B50B460146002020220124AE
:1005100009E021FA02F59D4205D303FA02F5491BD1
:1005200004FA02F52844151EA2F10102F1DC30BDE7
:10053000202A04DB203A00FA02F1002070479140A3
:10054000C2F1200320FA03F3194390407047202A98
:1005500004DB203A21FA02F00021704721FA02F36D
:10056000D040C2F12002914008431946704700294B
:10057000A8BF7047401C490008BF20F00100704729
:1005800010B4B0FA80FC00FA0CF050EA010404BF89
:1005900010BC704749B1CCF1200421FA04F411FADF
:1005A0000CF118BF012121430843A3EB0C01CB1D23
:1005B0004FEA00614FEA102042BF002010BC704794
:1005C00000EBC35010440029A4BF10BC7047401C6E
:1005D000490008BF20F0010010BC7047064C074DD1
:1005E00006E0E06840F0010394E807009847103403
:1005F000AC42F6D3FFF7A0FD486A0408686A040815
:1006000070B58C1810F8015B15F0070301D110F8D4
:10061000013B2A1106D110F8012B03E010F8016B01
:1006200001F8016B5B1EF9D12B0705D40023521E84
:100630000DD401F8013BFAE710F8013BCB1A921CEC
:1006400003E013F8015B01F8015B521EF9D5A142EA
:10065000D8D3002070BD00BFFEE700000748006847
:1006600040F0807005490860002005494860084650
:10067000006840F00100086070470000FCED00E0F9
:10068000001000E008B54FF4005000F0F1F8D0B1D0
:100690000020009069460C48006835F085F86946EE
:1006A0000A48006835F080F84FF4005000F020F858
:1006B000009838B14FF0805005490860BFF34F8F64
:1006C000BFF36F8F00BF08BD0402002008020020A6
:1006D00004ED00E000F0805111B10349086001E031
:1006E00002494860704700000404024000000240D4
:1006F00000F0805111B10349086001E002494860EF
:1007000070470000040402400000024021B102686A
:1007100042F00102026004E002684FF6FE731A40E4
:100720000260704701684FF6FE72114001600021BF
:10073000016041608160C1604B49884208D14A49EB
:100740000839496841F00F01474A083A51608AE088
:1007500045491431884208D143490839496841F074
:10076000F001414A083A51607DE03F492831884212
:1007700008D13D490839496841F470613A4A083A5C
:10078000516070E038493C31884208D13649083917
:10079000496841F47041344A083A516063E0324993
:1007A0005031884208D130490839496841F47021F4
:1007B0002D4A083A516056E02B496431884208D1ED
:1007C00029490839496841F47001274A083A5160BB
:1007D00049E025497831884208D1234908394968D8
:1007E00041F07061204A083A51603CE01F4988425C
:1007F00006D1011F096841F00F01021F116032E0AC
:100800001A491431884208D11849091F096841F072
:10081000F001164A121F116025E014492831884260
:1008200008D11249091F096841F470610F4A121F6B
:10083000116018E00D493C31884208D10B49091F6D
:10084000096841F47041094A121F11600BE0074921
:100850005031884207D10549091F096841F47021C8
:10086000024A121F1160704708000240080402404B
:1008700001460020002201F0805313B1054B1A6895
:1008800001E0054B1A6802EA01030BB1012000E008
:100890000020704700040240000002401AB10368C3
:1008A0000B43036002E003688B430360704710B59D
:1008B0000022026847F6F0739A430C6A8B68234360
:1008C0000C6923434C6923438C692343CC6923433C
:1008D0004C6A23438C6A23431A430260CB6843600B
:1008E0000B6883604B68C36010BD416070470000B7
:1008F00008B50020009000BF00235A1E6946124828
:10090000006834F037FD00211048FFF7FFFE4FF478
:100910000050FFF7DFFE40210D4802F053F80D486C
:10092000008881B20948FFF7E0FF01210748FFF77F
:10093000EDFE00235A1E19460748006834F01AFDE0
:10094000002004490860D7E7FC0100204400024071
:10095000003801401C0200200802002070470000FF
:1009600010B5082000F038F800B31148007878B9C5
:1009700010201049486108200F49086001200C49E7
:10098000087008200C49086010200A4908610AE034
:1009900007480078012806D108200749091D08608A
:1009A000022003490870082000F008F810BD00007C
:1009B000200200200010014010140140014908608D
:1009C0007047000014040140024909680143014ACC
:1009D0001160704710040140014600200022074BBF
:1009E0001B6803EA0102054B14331B680B4013B16B
:1009F0000AB1012000E0002070470000000401401F
:100A0000002123498279002A3AD00A4612680368F5
:100A10009A430B461A600A1D126803689A430B1D1D
:100A20001A60027911440A6803681A430A60184A76
:100A30000832126803689A43154B08331A601A1D6E
:100A4000126803689A43124B0C331A604279102AD9
:100A50000ED11A1F126803681A430D4B08331A602F
:100A60001A1D126803681A43094B0C331A600DE013
:100A70000749427911440A6803681A430A6005E08D
:100A8000027911440A6803689A430A6070470000BB
:100A90000004014008B501213C2001F091FB102029
:100AA0008DF8030003208DF802000820ADF8000047
:100AB00069461A4800F0A0FA1020ADF80000694617
:100AC000174800F099FA0420ADF800006946134871
:100AD00000F092FA2020ADF800006946104800F0BE
:100AE0008BFA0820ADF8000069460E4800F084FA41
:100AF0004FF47F40ADF8000004208DF80300032080
:100B00008DF802006946084800F076FA082003498B
:100B10001431086003491031086008BD0008014025
:100B20000010014000140140000C014000BFCD48FE
:100B3000007802287ED10023C21E1946CA480068E8
:100B400034F018FCC9480078002874D10023421EF4
:100B50001946C748006834F00DFC00235A1E194698
:100B6000C448006834F006FC00BF0420C249086095
:100B70002020C249486108610420BF49091F08605C
:100B80002020BE494861086100BF002068E00021C4
:100B900062E000BF0022BA4B1A802022B74B5A6194
:100BA000B84A126802F47F42B54B1A802022B34B38
:100BB0001A615A61B34A1268C2F30722B04B1B880C
:100BC0001A43AF4B1A802022AC4B1A6100BFAC4ACB
:100BD0001288D20AAC4B1A70A94A1288C2F3451285
:100BE000AA4B1A70A64A127802F01F02A84B1A707C
:100BF000A54A1278D200A44B1B7842EAA302D3B2D2
:100C000000EB800201EB821202EB4202A14CA354E2
:100C10009E4A127892009D4B1B7842EA2312D3B26F
:100C200000EB800201EB821202EB4202521CA35441
:100C3000974A01E011E11BE01278D200944B1B7837
:100C400042EAA302D3B200EB800201EB821202EB74
:100C50004202921CA354491CB1F5A07F99DB401CB1
:100C6000082894DB81480078401C80490870E3E044
:100C70007E4800781E2870DA002065E000215FE0E1
:100C800000BF00227E4B1A8020227C4B5A617D4A95
:100C9000126802F47F427A4B1A802022774B1A6145
:100CA0005A61784A1268C2F30722754B1B881A43AF
:100CB000734B1A802022714B1A6100BF704A128850
:100CC000D20A714B1A706E4A1288C2F345126F4BEA
:100CD0001A706B4A127802F01F026D4B1A706A4A42
:100CE0001278D200684B1B7842EAA302D3B200EB21
:100CF000800201EB821202EB4202664CA354634A6B
:100D000012789200614B1B7842EA2312D3B200EBB7
:100D1000800201EB821202EB4202521CA3545C4A95
:100D20001278D2005A4B1B7842EAA302D3B200EBEE
:100D3000800201EB821202EB4202921CA354491C76
:100D4000B1F5A07F9CDB401C082897DB4748007862
:100D5000401C464908706FE0FFE7002065E0002175
:100D60005FE000BF0022464B1A802022434B5A61AD
:100D7000444A126802F47F42414B1A8020223F4BC2
:100D80001A615A613F4A1268C2F307223C4B1B8822
:100D90001A433B4B1A802022384B1A6100BF384A55
:100DA0001288D20A384B1A70354A1288C2F345129B
:100DB000364B1A70324A127802F01F02344B1A7006
:100DC000314A1278D200304B1B7842EAA302D3B2E8
:100DD00000EB800201EB821202EB42022D4CA35485
:100DE0002A4A12789200294B1B7842EA2312D3B286
:100DF00000EB800201EB821202EB4202521CA35470
:100E0000234A1278D200224B1B7842EAA302D3B2C3
:100E100000EB800201EB821202EB4202921CA3540F
:100E2000491CB1F5A07F9CDB401C082897DB002003
:100E30000E4908700B49087000235A1E0B491648CA
:100E4000006834F0DBFB0948007830B900231A460B
:100E500019460848006834F0D1FB012033F0C8FD82
:100E600065E600002002002004020020DD010020D1
:100E7000180200200C02002014080140001001405C
:100E8000D8010020080C0140DA010020DB0100201D
:100E9000DC010020000D0020F801002051B182008B
:100EA000A2F1C042126842F001038200A2F1C042E6
:100EB000136009E08200A2F1C0421268034B1A409D
:100EC0008300A3F1C0431A6070470000FEFF0F00CB
:100ED000D0E901121143C26811430269114342690A
:100EE000114382691143C2691143026A1143426A84
:100EF0001143826A1143C26A1143026B11430268B3
:100F00009200A2F1C0421160816808290BD10168EA
:100F10008900A1F1C041096841F0400201688900DF
:100F2000A1F1C0410A60416B0968426B526841EA15
:100F30000211426B926841EA0221426B928941EAB6
:100F40000241426B128A41EA0251426B127D41EA30
:100F50000261426B926911430268521C9200A2F135
:100F6000C0421160C16AB1F5804F1BD1816B096825
:100F7000826B526841EA0211826B926841EA022157
:100F8000826B128A41EA0251826B127D41EA026150
:100F9000826B9269114302689200A2F1C042C2F8CA
:100FA000041107E06FF0704201688900A1F1C041AF
:100FB000C1F804217047000030B500228B071C0FD8
:100FC0000F2303FA04F20B4B8C1053F82430934395
:100FD000084C8D1044F8253023468C1053F82430EB
:100FE0008C07240F00FA04F42343024C8D1044F8BC
:100FF000253030BD080001402DE9F04102460025B2
:101000000026002000230024002791F803C00CF0E4
:101010000F0591F803C00CF0100CBCF1000F03D0C9
:1010200091F802C04CEA050591F800C0BCF1000F30
:1010300031D0146800202BE04FF0010C0CFA00F3C3
:10104000B1F800C00CEA03069E4220D183004FF0A5
:101050000F0C0CFA03F7BC4305FA03FC4CEA04043A
:1010600091F803C0BCF1280F06D14FF0010C0CFA27
:1010700000FCC2F814C00AE091F803C0BCF1480FAC
:1010800005D14FF0010C0CFA00FCC2F810C0401C56
:101090000828D1D31460B1F800C0BCF1FF0F34DDD3
:1010A000546800202EE000F1080C4FF0010808FA07
:1010B0000CF3B1F800C00CEA03069E4221D1830074
:1010C0004FF00F0C0CFA03F7BC4305FA03FC4CEA93
:1010D000040491F803C0BCF1280F05D100F1080CFD
:1010E00008FA0CF8C2F8148091F803C0BCF1480F5C
:1010F00007D100F1080C4FF0010808FA0CF8C2F80B
:101100001080401C0828CED35460BDE8F081024610
:10111000002093680B400BB1012000E000207047D5
:10112000416170470161704700BFFEE710B504469A
:101130002CB14FF480510548FFF7F2FF04E04FF463
:1011400080510248FFF7EEFF10BD0000001401407F
:101150002DE9F04106460F4614461D462B46224611
:101160003946304600F0AAF904FB05F00249098827
:1011700000F044F8BDE8F081E600002001B502E08F
:101180000098401E009000980028F9D108BD00B5D5
:1011900097B03C2108A8FFF78BF81C2101A8FFF7A6
:1011A00087F80121080200F0EBFF012001900420E4
:1011B000039080060790002002900490059006900E
:1011C0000890099008200A9010200B9000200C90A5
:1011D0000E900F9010904FF48050119000201290BC
:1011E0001390149001A81590169008A8FFF770FEB0
:1011F00001210020FFF752FE17B000BD10B50246D6
:101200000B4600242C2000F0F9FB00BF03E0184639
:1012100000F0F8FB641C9442F9D310BD08B501211D
:10122000602000F0CDFF03208DF8020018208DF81B
:1012300003004FF48040ADF8000069465B48FFF7BB
:10124000DBFE4FF40040ADF8000069465748FFF759
:10125000D3FE0120ADF8000069465448FFF7CCFEEC
:101260000220ADF8000069465048FFF7C5FE802017
:10127000ADF8000069464E48FFF7BEFE4FF480709F
:10128000ADF8000069464A48FFF7B6FE4FF400701B
:10129000ADF8000069464648FFF7AEFE4FF48060A7
:1012A000ADF8000069464248FFF7A6FE4FF4006023
:1012B000ADF8000069463E48FFF79EFE4FF48050AF
:1012C000ADF8000069463A48FFF796FE4FF400502B
:1012D000ADF8000069463648FFF78EFE4FF48040B7
:1012E000ADF8000069463248FFF786FE4FF4004033
:1012F000ADF8000069462E48FFF77EFE4FF480707F
:10130000ADF8000069462948FFF776FE4FF40070FB
:10131000ADF8000069462548FFF76EFE4FF4806087
:10132000ADF8000069462148FFF766FE03208DF8FE
:10133000020018208DF803001020ADF80000694667
:101340001A48FFF759FE2020ADF8000069461748FB
:10135000FFF752FE8020ADF8000069461348FFF702
:101360004BFE4FF40060ADF8000069460F48FFF7F0
:1013700043FE10208DF8030003208DF802000220A8
:10138000ADF8000069460A48FFF736FE10208DF8D8
:10139000030003208DF802004FF48050ADF80000E8
:1013A00069460248FFF728FE08BD0000001401400E
:1013B0000018014000B50246072A00DD00BD314893
:1013C0000270104602EBD0714910A2EB410139B90D
:1013D000F0202D4908804FF4A0702C49088006E0C9
:1013E0004FF4A07028490880F02028490880362052
:1013F00000F004FB2648008849F24131884205D1BB
:10140000082141EA421000F0FDFA0AE02048008875
:1014100048F25251884204D1002141EA421000F0C2
:10142000F1FA2A2000F0EAFA002000F0EBFA00209E
:1014300000F0E8FA14490988491EC1F3072000F0BA
:10144000E1FA11490978491EC8B200F0DBFA2B20F5
:1014500000F0D4FA002000F0D5FA002000F0D2FA13
:101460000A490988491EC1F3072000F0CBFA074951
:101470000978491EC8B200F0C5FA2C2000F0BEFA67
:1014800000BF9BE7DC000020D8000020DA0000202D
:10149000DE00002010B5FFF7C1FEFFF778FE012047
:1014A000FFF744FE00F096FA00F034F802480078A6
:1014B000FFF780FF10BD0000DC00002030B50446BF
:1014C0000D462A2000F09AFA201200F09BFAE0B2B2
:1014D00000F098FAA118491EC1F30F2000F092FA0B
:1014E000A118491EC8B200F08DFA2B2000F086FA30
:1014F000281200F087FAE8B200F084FAE918491ED1
:10150000C1F30F2000F07EFAE918491EC8B200F0BE
:1015100079FA30BD10B500F025FAFE49088008467A
:10152000008849F2413188427ED1CF2000F066FA2E
:10153000002000F067FA812000F064FA302000F00B
:1015400061FAED2000F05AFA642000F05BFA032003
:1015500000F058FA122000F055FA812000F052FAFB
:10156000E82000F04BFA852000F04CFA102000F043
:1015700049FA782000F046FACB2000F03FFA3920F3
:1015800000F040FA2C2000F03DFA002000F03AFA7A
:10159000342000F037FA022000F034FAF72000F08F
:1015A0002DFA202000F02EFAEA2000F027FA002081
:1015B00000F028FA002000F025FAB12000F01EFA11
:1015C000002000F01FFA1B2000F01CFAB62000F0EB
:1015D00015FA0A2000F016FAA22000F013FAC02033
:1015E00000F00CFA352000F00DFAC12000F006FAE8
:1015F000112000F007FAC52000F000FA452000F0A5
:1016000001FA452000F0FEF9C72000F0F7F9A2200A
:1016100000F0F8F9F22000F0F1F9002000F0F2F902
:10162000262000F0EBF900E096E0012000F0EAF956
:10163000E02000F0E3F90F2000F0E4F9262000F0AC
:10164000E1F9242000F0DEF90B2000F0DBF90E2098
:1016500000F0D8F9092000F0D5F9542000F0D2F9B3
:10166000A82000F0CFF9462000F0CCF90C2000F0C3
:10167000C9F9172000F0C6F9092000F0C3F90F20BE
:1016800000F0C0F9072000F0BDF9002000F0BAF921
:10169000E12000F0B3F9002000F0B4F9192000F0C7
:1016A000B1F91B2000F0AEF9042000F0ABF91020D6
:1016B00000F0A8F9072000F0A5F92A2000F0A2F90F
:1016C000472000F09FF9392000F09CF9032000F03A
:1016D00099F9062000F096F9062000F093F93020E1
:1016E00000F090F9382000F08DF90F2000F08AF911
:1016F000362000F083F9C82000F084F92A2000F099
:101700007DF9002000F07EF9002000F07BF9002038
:1017100000F078F9EF2000F075F92B2000F06EF959
:10172000002000F06FF9002000F06CF9012000F0BB
:1017300069F93F2000F066F93A2000F05FF9552082
:1017400000F060F9112000F059F97348FFF716FD19
:10175000292000F053F901E16E48008848F2525107
:101760008842F8D1CF2000F049F9002000F04AF972
:10177000C12000F047F9302000F044F9ED2000F0DE
:101780003DF9642000F03EF9032000F03BF91220FF
:1017900000F038F9812000F035F9E82000F02EF94A
:1017A000852000F02FF9102000F02CF9782000F0AF
:1017B00029F9CB2000F022F9392000F023F92C2060
:1017C00000F020F9002000F01DF9342000F01AF993
:1017D000022000F017F9F72000F010F9202000F0A7
:1017E00011F9EA2000F00AF9002000F00BF90020BE
:1017F00000F008F9C02000F001F9212000F002F902
:10180000C12000F0FBF8112000F0FCF8C52000F02A
:10181000F5F82D2000F0F6F8332000F0F3F836202C
:1018200000F0ECF8002000F0EDF83A2000F0E6F8C7
:10183000552000F0E7F8B12000F0E0F8002000F0BB
:10184000E1F8172000F0DEF8B62000F0D7F80A2003
:1018500000F0D8F8A22000F0D5F8F62000F0CEF87D
:10186000012000F0CFF8302000F0CCF8F22000F09A
:10187000C5F8002000F0C6F8262000F0BFF80120CF
:1018800000F0C0F8E02000F0B9F8D02000F0BAF87D
:10189000002000F0B7F8022000F0B4F8072000F0B4
:1018A000B1F80B2000F0AEF81A2000F0ABF83120B0
:1018B00000F0A8F8542000F0A5F8402000F0A2F8AD
:1018C000292000F09FF8122000F09CF8122000F070
:1018D00099F8122000F096F8172000F093F8E12014
:1018E00000F08CF8D02000F08DF8002000F08AF88D
:1018F000022000F087F8072000F084F8052000F0AF
:1019000081F8252000F07EF82D2000F07BF844209F
:1019100004E00000DE000020FCBF020000F072F8CE
:10192000452000F06FF81C2000F06CF8182000F043
:1019300069F8162000F066F81C2000F063F81D20FE
:1019400000F060F8112000F059F80548FFF716FC88
:10195000292000F053F82C2000F050F810BD0000B2
:10196000FCBF020000B50022042000F047F800F0A0
:101970002BF800F029F800F027F802464FF6FF7028
:1019800000EA022200F020F8024348F2525082425C
:1019900001D1104600BDD32000F030F800F014F85B
:1019A00000F012F800F010F802464FF6FF7000EA5F
:1019B000022200F009F8024349F24130824201D18B
:1019C0001046E7E70020E5E701480088704700007F
:1019D0000000026010B502210748FFF7A1FB40F6A6
:1019E000FF20FFF7CBFB02210348FFF79BFB40F6EC
:1019F000FF20FFF7C3FB10BD001801404FF0C041AE
:101A000008807047014908807047000000000260AC
:101A100008B500BF38480078012868D137480078F9
:101A2000022864D10023C21E19463548006833F0ED
:101A3000A1FC00235A1E19463248006833F09AFC74
:101A400000BF042030490860202030494861086107
:101A500004202D49091F086020202C494861086195
:101A600000BFF0234FF4A07200210846FFF726FDC7
:101A70002C20C106088000201CE0002116E000BFD9
:101A800000222023214C6361214B1B6803F47F4219
:101A90002023236163611E4B1B68C3F307231A4392
:101AA0002023236100BF1B4B1A80491CB1F5A07F86
:101AB000E5DB401CF028E0DB002010490870002323
:101AC0001A4619460F48006833F098FD00231A465D
:101AD00019460B48006833F091FD01200090002367
:101AE0001A4669460C48006833F088FD00BF322072
:101AF00032F07EFF8EE700009402002020020020DA
:101B0000100200200C0200201408014000100140C7
:101B1000080C01400000026000020020ADF5985D55
:101B200000BF00BF00BF00BF00210DF58050C0F80E
:101B3000FC120121C0F8F81200BF00235A1E41F226
:101B4000FC2169442348006833F014FC0DF58050F3
:101B500090F8FC02012818D100BF4FF4F0501E4944
:101B60000322F023CDE90132CDE903104FF4A07038
:101B7000022300221949009006A831F009FA002832
:101B8000EBD006A831F004FB1AE00DF5805090F878
:101B9000FC02012809DD0DF5805090F8FC021E289A
:101BA00003DC06A831F0F4FA0AE00DF5805090F855
:101BB000FC0228B906A831F0EBFA06A831F0A9F921
:101BC00000235A1E41F2F82169440548006833F0A9
:101BD00015FDB2E7F8010020000D002095CC0208A9
:101BE000FC01002008B50121142000F0E9FA0120D1
:101BF000ADF8000004208DF8030069460748FFF7A0
:101C0000FBF94FF40050ADF8000004208DF80300FC
:101C100069460348FFF7F0F908BD000000080140DD
:101C200000100140024A1080024A118070470000F3
:101C3000E4000020E6000020014908607047000031
:101C4000E000002008B50121082000F0B9FA2020AA
:101C5000ADF8000010208DF8030003208DF802007D
:101C600069460F48FFF7C8F90120ADF80000694642
:101C70000B48FFF7C1F90220ADF80000694608489B
:101C8000FFF7BAF920210648FFF74CFA0121044872
:101C9000FFF748FA02210248FFF744FA08BD0000A6
:101CA000000C014008B500BF00231A4669460E48E3
:101CB000006833F05FFB012810D10C48007868B150
:101CC0000B48006A50B10A48806A38B10849086A6E
:101CD00024F0F0F80649886A24F0ECF829F068FD51
:101CE000052032F085FEDFE700020020940200208C
:101CF000CC04002000BFFEE77047000070B5002153
:101D000000230F22C47804B3154C246804F4E06463
:101D1000C4F5E064210AC1F10403CA40447804FA1E
:101D200003F184781440214309010E4C0678A15533
:101D3000047804F01F050124AC4005786D11AD0056
:101D400005F1E025C5F8004109E0047804F01F051D
:101D50000124AC40044D0678761145F8264070BD4C
:101D60000CED00E000E400E080E100E00249014306
:101D7000024A1160704700000000FA050CED00E017
:101D800070B50646301D092821D2DFE800F01D1A83
:101D90001714110E0B080500482406251AE03824F4
:101DA000062517E02824062514E01824062511E04E
:101DB000082406250EE008240E250BE018240E2525
:101DC00008E028240E2505E038240E2502E000BF97
:101DD00000BF00BF00BF21469B2000F0C3FB294687
:101DE000AB2000F0BFFB70BD10B5044614F1040F2A
:101DF0000EDB042C0CDC201D0007010EA72000F0D8
:101E0000B1FB201D0007010EA82000F0ABFB01E094
:101E100000BF00BF10BD10B5044614F1040F0BDB6A
:101E2000042C09DCC4F104003022A2EB8000C1B212
:101E30009C2000F097FB01E000BF00BF10BD10B573
:101E400000F054FAFEF726FE00F0D0FE10BD0000B0
:101E500038B50024002000908021122000F082FB81
:101E600008B9002038BD0B220121684600F07AFA3B
:101E700008B90020F6E79DF80000212814D10024BD
:101E80000DE00B4A02EB44025178094A12F81400A3
:101E900000F068FB08B90020E4E7601C84B2054844
:101EA00000788442EDDB01E00020DBE70120D9E788
:101EB0003C000020D600002010B50446062C79D244
:101EC000DFE804F003142D465F79FF21132000F0B2
:101ED00049FB65210E2000F045FB00212D2000F07C
:101EE00041FB00212E2000F03DFB70E0FD2113207E
:101EF00000F038FB5A21012000F034FB5C21022065
:101F000000F030FB65210E2000F02CFB00212D207D
:101F100000F028FB00212E2000F024FB57E0FD21DB
:101F2000132000F01FFB5821012000F01BFB602153
:101F3000022000F017FB65210E2000F013FB0021AA
:101F40002D2000F00FFB00212E2000F00BFB3EE0C7
:101F5000FD21132000F006FB8421012000F002FB8C
:101F60004C21022000F0FEFA65210E2000F0FAFA62
:101F700000212D2000F0F6FA00212E2000F0F2FAC8
:101F800025E0FD21132000F0EDFA9621012000F05C
:101F9000E9FA4021022000F0E5FA65210E2000F068
:101FA000E1FA00212D2000F0DDFA00212E2000F0C2
:101FB000D9FA0CE008E0FF21132000F0D3FAE52164
:101FC0000E2000F0CFFA02E000BF00BF00BF00BF4C
:101FD00010BD10B50446072C58D2DFE804F00411F8
:101FE0001E2B384552000621A62000F0BBFA8021A6
:101FF000602000F0B7FA8021612000F0B3FA48E0D9
:102000002621A62000F0AEFA8021602000F0AAFA76
:102010008021612000F0A6FA3BE01E21A62000F0FE
:10202000A1FAA021602000F09DFA4021612000F07B
:1020300099FA2EE01E21A62000F094FA402160209B
:1020400000F090FAA021612000F08CFA21E01E211E
:10205000A62000F087FA8021602000F083FAC021DA
:10206000612000F07FFA14E01E21A62000F07AFA29
:102070006021084600F076FA6021612000F072FAD3
:1020800007E04621A62000F06DFA02E000BF00BF85
:1020900000BF00BF10BD2DE9F84306460F461446A9
:1020A0001D46DDF82080B8F1000F04D14621122032
:1020B00000F058FA03E00621122000F053FA17222C
:1020C0000121684600F04EF99DF8000000EBA600E3
:1020D00000F0FF094946172000F044FAC4F38701D5
:1020E000182000F03FFA19220121684600F03AF961
:1020F0009DF8000000EB670000F0FF094946192039
:1021000000F030FAC5F347011A2000F02BFA322212
:102110000121684600F026F904F003009DF8001044
:10212000084305F0010140EA810006F0030140EA9E
:10213000011007F0010140EA81194946322000F000
:1021400011FAC4F38701292000F00CFAC5F3470106
:102150002C2000F007FA2A220121684600F002F93B
:1021600004F003009DF80010084305F0010140EA67
:10217000810949462A2000F0F5F9BDE8F8830000FE
:1021800029B1064A52690243044B5A6104E0034AEA
:1021900052698243014B5A617047000000100240AF
:1021A00029B1064AD2690243044BDA6104E0034ACA
:1021B000D2698243014BDA6170470000001002408F
:1021C00029B1064A92690243044B9A6104E0034A2A
:1021D00092698243014B9A617047000000100240EF
:1021E00030B500210022002400232D4D6D6805F03C
:1021F0000C0121B1042905D0082923D105E0294D7E
:10220000056022E0274D05601FE0254D6D6805F44F
:102210007012234D6D6805F48034022505EB92425F
:102220001CB9214D554305600BE01D4D6D6805F44B
:1022300000351DB11C4D5543056002E0194D554355
:10224000056002E0174D056000BF00BF144D6D68CA
:1022500005F0F0010909154D6B5C0568DD4045602E
:102260000F4D6D6805F4E061090A104D6B5C45681F
:10227000DD4085600A4D6D6805F46051C90A0B4D5B
:102280006B5C4568DD40C560054D6D6805F44041F7
:10229000890B074D6B5CC568B5FBF3F5056130BD77
:1022A0000010024000127A0000093D0014000020D6
:1022B0002400002010B540210B48FEF731FF00F04C
:1022C00071F980210848FEF72BFF00F06BF94021DF
:1022D0000548FEF727FF00F065F940210248FEF7A8
:1022E0001FFF00F05FF910BD0010014008B501218B
:1022F0001020FFF765FF4020ADF8000003208DF8A7
:10230000020014208DF8030069460748FEF774FEAA
:1023100001211020FFF754FF8020ADF8000069462E
:102320000148FEF769FE08BD0010014010B54021CC
:102330000B48FEF7F5FE00F035F980210848FEF75E
:10234000F1FE00F02FF940210548FEF7EBFE00F00A
:1023500029F940210248FEF7E3FE00F023F910BD01
:102360000010014070B505460C46164600F08EF888
:1023700008B9002070BD422000F05CF800F0CCF8F5
:1023800018B900F0ADF80020F4E7304600F052F83C
:1023900000F0C2F800F0A4F800F078F808B90020C6
:1023A000E8E7432000F046F800F0B6F818B900F06E
:1023B00097F80020DEE70CE000F012F82870012CFE
:1023C00002D1FFF7B3FF01E0FFF774FF6D1C601E41
:1023D00084B2002CF0D100F083F80120CAE700009D
:1023E00070B50825002480211148FEF79BFE14E0FB
:1023F0006006040E40210E48FEF792FE00F0D2F86F
:1024000040210B48FEF78EFE00F0CCF880210848F2
:10241000FEF77DFE08B144F00104281EA5F101017C
:10242000CDB2E5D140210248FEF77AFE204670BDCC
:102430000010014070B5044608251BE040211248F9
:10244000FEF76EFE00F0AEF804F0800020B18021AF
:102450000D48FEF767FE03E080210B48FEF760FEA3
:102460006006040E00F09EF840210748FEF75AFE71
:1024700000F098F8281EA5F10101CDB2DED140216F
:102480000148FEF74DFE70BD0010014010B58021DF
:102490001248FEF747FE40211048FEF743FE00F0C9
:1024A00081F880210D48FEF732FE08B9002010BDEA
:1024B00080210A48FEF734FE00F074F880210748B6
:1024C000FEF725FE08B10020F1E780210348FEF762
:1024D00027FE00F067F80120E9E700000010014046
:1024E00010B540210B48FEF71BFE00F05BF8802181
:1024F0000848FEF715FE00F055F840210548FEF7A4
:1025000011FE00F04FF880210248FEF70BFE00F0AC
:1025100049F810BD0010014010B540211048FEF7E9
:10252000FFFD00F03FF880210D48FEF7FBFD00F0B5
:1025300039F840210A48FEF7F5FD00F033F8802114
:102540000748FEF7E4FD28B140210548FEF7E8FD05
:10255000002010BD40210248FEF7E2FD0120F8E70F
:102560000010014070B504460D46FFF78FFF08B913
:10257000002070BD4220FFF75DFFFFF7CDFF18B9C7
:10258000FFF7AEFF0020F4E7E0B2FFF753FFFFF7DD
:10259000C3FF2846FFF74EFFFFF7BEFFFFF7A0FF80
:1025A0000120E6E74FF4C87001E0411E88B2002820
:1025B000FBD1704710B500F001F810BD0CB500203C
:1025C000019000903348006840F480303149086041
:1025D00000BF3048006800F4003000900198401CB3
:1025E0000190009818B90198B0F5A06FF1D1294871
:1025F000006800F4003010B10120009001E00020DC
:1026000000900098012843D12348006840F0100052
:10261000214908600846006820F003000860084669
:10262000006840F0020008601A4840681949486094
:102630000846406848600846406840F4806048604A
:102640000846406820F47C1048600846406840F422
:10265000E81048600846006840F08070086000BFDD
:102660000C48006800F000700028F9D00948406864
:1026700020F00300074948600846406840F0020027
:10268000486000BF0348406800F00C000828F9D1FA
:102690000CBD0000001002400020024010B533F0D5
:1026A0007FF9012801D032F0FBFD10BD10B51348B1
:1026B000006840F001001149086008464068104970
:1026C00008400E494860084600680E4908400B491A
:1026D00008600846006820F48020086008464068CA
:1026E00020F4FE0048604FF41F008860FFF762FF8F
:1026F0004FF000600449086010BD00000010024067
:102700000000FFF8FFFFF6FE08ED00E010B5012124
:10271000880700F054F858B106480068401C054985
:102720000860012028F06EFF0121880700F038F8CA
:1027300010BD0000D40100201FB504460121084649
:10274000FFF72EFD40F2E730ADF808004720ADF866
:1027500004000020ADF80A00ADF8060001A94FF012
:10276000804000F047F801221146900700F038F849
:102770004FF44070FFF7FAFA1C208DF80000022099
:102780008DF8010000208DF8020001208DF8030073
:102790006846FFF7B3FA0121880700F004F81FBD6F
:1027A000CA430282704721B1028842F001020280CE
:1027B00004E002884FF6FE731A400280704730B57D
:1027C0000246002000230024158A05EA01039589AA
:1027D00005EA010413B10CB1012000E0002030BD76
:1027E0001AB183890B43838102E083898B43838100
:1027F00070470000002202881D4B98420ED01D4BEE
:1028000098420BD0B0F1804F08D01B4B984205D0B6
:102810001A4B984202D01A4B984204D14FF68F734C
:102820001A404B881A43174B984207D0164B9842D0
:1028300004D04FF6FF431A40CB881A4302808B889E
:1028400083850B8803850A4B98420BD0094B98422D
:1028500008D00E4B984205D00D4B984202D00D4B3C
:10286000984201D10B7A03860123838270470000CE
:10287000002C0140003401400004004000080040EA
:10288000000C0040001000400014004000400140D7
:10289000004401400048014000B58DB001210846C8
:1028A000FFF76EFC1B48FDF73DFF1B4800680590D5
:1028B0001020049000200C901848039000200990EC
:1028C0008020079000200A90154802900020089070
:1028D00006904FF400500B9002A90E48FDF7E7FF59
:1028E0004FF47040FDF7F6FE012202210948FDF782
:1028F000D5FF0E208DF8040006208DF8050000207D
:102900008DF8060001208DF8070001A8FFF7F6F901
:102910000DB000BD440002401C020020002B00202E
:102920000438014010B540F22551204800F0BCF8B1
:10293000D8B11E4800F04EF9C4B21D48B0F80004EA
:10294000C0F30E0040F2FF3188420EDA1849B1F8A8
:102950000014C1F30E00411C154AB2F8002461F3C3
:102960000E021349A1F800240C5440F224410F48F0
:1029700000F09AF8012817D10D48B0F8000420F4AF
:10298000004000F500400A49A1F80004074800F0A3
:1029900021F9C4B207A10648FDF795FC08B1012052
:1029A00000E000200649087010BD0000004800400B
:1029B000FC040020434C4F5345440D0A0000000026
:1029C0000101002001F40072B2F5007F00D100BFC8
:1029D000CA430280704721B1828942F40052828149
:1029E00004E082894DF6FF731A408281704700002F
:1029F00000B585B001210420FFF7E2FB0121880327
:102A0000FFF7DEFB4FF40070ADF8100018208DF8D2
:102A1000130003208DF8120004A91648FEF7ECFA03
:102A20004FF48060ADF8100004208DF8130004A965
:102A30001048FEF7E1FA4FF4612000900020ADF855
:102A40000400ADF80600ADF80800ADF80C000C204D
:102A5000ADF80A006946084800F050F80121064820
:102A6000FFF7B9FF01228021034800F007F805B005
:102A700000BD000000080140003801401AB1838AFF
:102A80000B43838202E0838A8B4383827047024632
:102A90000020B1F5007F00D100BF13880B400BB1BF
:102AA000012000E00020704770B50246002400239A
:102AB0000025002040F66A16B14200D100BFC1F3E4
:102AC000421501F01F03012606FA03F3012D02D17E
:102AD0009689334006E0022D02D1168A334001E088
:102AE000968A33400C12012606FA04F41688344004
:102AF00013B10CB1012000E0002070BD2DE9F047BA
:102B000086B005460E460024A24600BFA146002717
:102B1000B08900B100BF2F462C8A4CF6FF700440EC
:102B2000F08804432C82AC894EF6F3100440B08840
:102B300031890843718908430443AC81AC8A4FF65C
:102B4000FF400440B0890443AC8201A8FFF748FB72
:102B50001F48874202D1DDF810A001E0DDF80CA08B
:102B6000A88900F4004040B10AEBCA0000EB0A104B
:102B700031684900B0FBF1F807E00AEBCA0000EB4E
:102B80000A1031688900B0FBF1F86420B8FBF0F05E
:102B900004012009642101FB1089A88900F4004088
:102BA00040B1322000EBC900B0FBF1F000F00700AB
:102BB000044308E0322000EB09106421B0FBF1F07F
:102BC00000F00F0004432C8106B0BDE8F087000040
:102BD0000038014001468888C0F308007047C1F3FF
:102BE00008028280704700BFFEE700001FB5012188
:102BF0004120FFF7E5FA0820ADF80C0004208DF81D
:102C00000F0003208DF80E0003A91648FEF7F4F913
:102C100003210220FEF7D0F90820019000208DF852
:102C200008000C208DF8090001208DF80A0001A889
:102C3000FDF7E6FE0820FDF7C7FE4FF44070FFF7F2
:102C400095F809208DF8000001208DF80100002082
:102C50008DF8020001208DF803006846FFF74EF85A
:102C60001FBD00000010014001B5002007E00C214D
:102C700000BF0A1EA1F10103D9B2FAD1401C00998C
:102C80008842F4D308BD00002DE9FC5F05460C46E0
:102C90000126684600F0BEF8002865D0BDF90200A4
:102CA000FDF709FC83463248007800EB400004EB56
:102CB000C00041685846FDF78EFB8146BDF9000013
:102CC000FDF7F9FB83462A48007800EB400054F8F2
:102CD00030105846FDF77FFB82464946FDF723FB3F
:102CE00080462348007800EB400004EBC000816878
:102CF0004046FDF718FB0746FDF7EBFB00B22880C6
:102D0000BDF90200FDF7D7FB83461948007800EBB8
:102D1000400004EBC00001695846FDF75CFB8146AA
:102D2000BDF90000FDF7C7FB83461148007800EBB2
:102D3000400004EBC000C1685846FDF74CFB8246DA
:102D40004946FDF7F0FA80460948007800EB40005C
:102D500004EBC00041694046FDF7E5FA0746FDF780
:102D6000B8FB00B2688000E000263046BDE8FC9F5A
:102D7000DC00002008B501216020FFF721FA0120C6
:102D8000ADF800008DF8020010208DF803006946B0
:102D90001A48FEF731F90420ADF8000069461748DB
:102DA000FEF72AF90820ADF8000001208DF8020096
:102DB00048208DF8030069461048FEF71DF94FF4CE
:102DC0000050ADF8000001208DF8020010208DF8B1
:102DD000030069460A48FEF70FF94FF4005108480E
:102DE000FEF79EF91020ADF8000048208DF8030092
:102DF00069460248FEF700F908BD000000180140CE
:102E00000014014010B50446204600F0EBF800F035
:102E1000C1F810BD2DE9F0478CB0064600252821E9
:102E20006846FDF745FA00BF0AA90BA800F09EF816
:102E3000BDF92C002DF81500BDF9281005A820F8C3
:102E40001510681CC5B210214648FEF760F908B994
:102E50000A2DE9DB10214348FEF759F910B1002093
:102E6000414908700A2D7BD1BDF90070B846BDF903
:102E70001490CA4601240EE03DF91400B84202DA6B
:102E80003DF9147005E03DF91400404501DD3DF9C0
:102E90001480601CC4B20A2CEEDB012412E005A8E9
:102EA00030F91400484503DA05A830F9149007E01A
:102EB00005A830F91400504502DD05A830F914A02A
:102EC000601CC4B20A2CEADBBDF90000BDF9021097
:102ED0000844BDF904100844BDF906100844BDF9C2
:102EE00008100844BDF90A100844BDF90C10084444
:102EF000BDF90E100844BDF910100844BDF91210B8
:102F00000844C01BA0EB0800C01000B23080BDF91F
:102F10001410BDF916000144BDF918000144BDF9B3
:102F20001A000144BDF91C000144BDF91E00014412
:102F3000BDF920000144BDF922000144BDF924007F
:102F40000144BDF926000844A0EB0900A0EB0A00EB
:102F5000C01000B2708001200CB0BDE8F087FFE720
:102F60000020F9E700180140C40100202DE9F041DC
:102F700004460D469020FFF745FF06B20120FFF7FB
:102F800073FED020FFF73EFF07B226802F80BDE8FA
:102F9000F081000070B5002504211148FEF7C0F84B
:102FA00001210F48FEF7BEF8002414E001210C486F
:102FB000FEF7B6F808210A48FEF7A9F80646C4F15C
:102FC0000B0006FA00F0284385B201210448FEF701
:102FD000A9F8601CC4B20C2CE8DB284670BD0000C8
:102FE0000018014070B5054604211648FEF798F810
:102FF00001211448FEF794F800241FE0C4F10700F3
:1030000045FA00F000F0010020B104210D48FEF760
:1030100089F803E004210B48FEF782F80520FFF74A
:1030200023FE01210748FEF77DF80520FFF71CFE6F
:1030300001210448FEF774F8601CC4B2082CDDDBE3
:1030400070BD0000001801400FB4054B10B503A976
:10305000044A029801F014FF10BC5DF814FB000054
:103060008D1C0108C804002002E008C8121F08C116
:10307000002AFAD170477047002001E001C1121FF9
:10308000002AFBD1704770B50446002508E021688E
:10309000481C20600878303805EB850100EB4105BD
:1030A0002168087800F004F80028F0D1284670BDA7
:1030B0000146302903DB392901DC0120704700205B
:1030C000FCE7000010B54421074801F02AF800226F
:1030D0001E21064828F0FEFA0549086002F094FD1A
:1030E00000200449087010BDECB70020E95C00081E
:1030F00034040020300400202DE9F04F87B007464B
:103100000C4615462946204600F066F920B94FF0D6
:10311000FF3007B0BDE8F08F00222946204600F0BE
:10312000FDF808B10020F4E70026204613F08CFCDF
:10313000401E00B20490204613F0F7FB401E00B280
:10314000039068886188401A0FFA80FABAF1000F7C
:1031500016DD2088ADF814006088ADF81600A08850
:10316000ADF818006088504400B2ADF81A0030463F
:10317000711C4EB207EBC0000599016006994160D1
:10318000E8886188411A0398401A0FFA80FBBBF166
:10319000000F1CDDB5F90600B4F90610884216DAF6
:1031A0002088ADF81400E888ADF81600A088ADF8C6
:1031B0001800E888584400B2ADF81A003046711C77
:1031C0004EB207EBC0000599016006994160B5F960
:1031D0000200B4F90210884202DDB5F9020001E0F4
:1031E000B4F902008046B5F90600B4F90610884229
:1031F00002DAB5F9060001E0B4F90600029002987F
:10320000A0EB08000FFA80F928882188401A00B244
:103210000190019800281BDDB9F1000F18DD20880E
:10322000ADF81400ADF8168021880198084400B26A
:10323000ADF8180008EB090000B2ADF81A003046EE
:10324000711C4EB207EBC000059901600699416000
:10325000A8882188411A0498401A00B2009000986A
:10326000002818DDA888ADF81400ADF81680A988EC
:103270000098084400B2ADF8180008EB090000B24D
:10328000ADF81A003046711C4EB207EBC00005992C
:1032900001600699416030463BE730B50346B1F91D
:1032A0000040B2F90050AC4202DDB1F9004001E04B
:1032B000B2F900401C80B1F90240B2F90250AC42B0
:1032C00002DDB1F9024001E0B2F902405C80B1F9DF
:1032D0000440B2F90450AC4202DAB1F9044001E012
:1032E000B2F904409C80B1F90640B2F90650AC42F4
:1032F00002DAB1F9064001E0B2F90640DC800120B3
:10330000B3F90040B3F90450AC4205DCB3F9024014
:10331000B3F90650AC4200DD002030BDF8B50446DC
:103320000D4616460027B4F90000B5F90010884292
:1033300012DBB4F90200B5F9021088420CDBB4F9D3
:103340000400B5F90410884206DCB4F90600B5F9AA
:103350000610884200DC01270FB90020F8BD0EB925
:103360000120FBE72088ADF800006088ADF802007E
:1033700032466946284600F0A7F808B90020EDE774
:10338000A088ADF800006088ADF8020032466946BA
:10339000284600F099F808B90020DFE72088ADF84A
:1033A0000000E088ADF8020032466946284600F089
:1033B0008BF808B90020D1E7A088ADF80000E088BC
:1033C000ADF8020032466946284600F07DF808B99B
:1033D0000020C3E70120C1E70246B2F90000B1F9BD
:1033E0000430984213DCB2F90400B1F9003098427D
:1033F0000DDBB2F90200B1F90630984207DCB2F9F0
:103400000600B1F90230984201DB0120704700202C
:10341000FCE7F8B504460D461646B4F90400B5F9C4
:103420000010884211DBB4F90600B5F90210884299
:103430000BDBB4F90000B5F90410884205DCB4F9DF
:103440000200B5F90610884201DD0120F8BD0EB971
:103450000020FBE72088ADF800006088ADF802008E
:1034600032466946284600F02FF808B10020EDE703
:10347000A088ADF800006088ADF8020032466946C9
:10348000284600F021F808B10020DFE72088ADF8D9
:103490000000E088ADF8020032466946284600F098
:1034A00013F808B10020D1E7A088ADF80000E0884B
:1034B000ADF8020032466946284600F005F808B12A
:1034C0000020C3E70120C1E72DE9FC5F05460E4659
:1034D00014464FF0000AB6F90000B5F90010884212
:1034E00013DBB6F90000B5F9041088420DDCB6F91B
:1034F0000200B5F90210884207DBB6F90200B5F9FF
:103500000610884201DC4FF0010ABAF1000F02D127
:103510000020BDE8FC9F002C01DC0120F9E72846D3
:1035200013F092FA834600EBDB704710284613F045
:10353000FCF9834600EBDB704FEA6008474501DA8F
:10354000384600E0404681464C4500DD4C46288820
:10355000ADF800002888204400B2ADF80400688867
:10356000ADF802006888204400B2ADF806000022E1
:1035700031466846FFF7A8FF80B1BDF8040020443B
:1035800000B2ADF80400BDF80600204400B2ADF86A
:1035900006003146684624F087FCBAE7E888001B3D
:1035A00000B2ADF80200E888ADF80600002231460E
:1035B0006846FFF789FF80B1BDF80400204400B2DF
:1035C000ADF80400BDF80200001B00B2ADF8020027
:1035D0003146684624F068FC9BE7A888001B00B2CF
:1035E000ADF80000A888ADF8040000223146684616
:1035F000FFF76AFF80B1BDF80000001B00B2ADF814
:103600000000BDF80200001B00B2ADF80200314618
:10361000684624F049FC7CE76888ADF802006888B9
:10362000204400B2ADF80600002231466846FFF79C
:103630004BFF80B1BDF80000001B00B2ADF80000E8
:10364000BDF80600204400B2ADF8060031466846D9
:1036500024F02AFC5DE701205BE710B5B1F90030EA
:10366000B2F90040A34202DAB1F9003001E0B2F948
:1036700000300380B1F90230B2F90240A34202DA0D
:10368000B1F9023001E0B2F902304380B1F90430FF
:10369000B2F90440A34202DDB1F9043001E0B2F90D
:1036A00004308380B1F90630B2F90640A34202DD4E
:1036B000B1F9063001E0B2F90630C38010BD000058
:1036C000F8B5054627F08EFF07460020009035B17B
:1036D0004C49E8680860284628F014F903E016F021
:1036E0009FF84849086047490968086924F070FA5A
:1036F00044480068406920B142490968486924F09B
:1037000067FA40490968C86924F062FA3D490968C6
:10371000086A24F05DFA3B480068006938B9002067
:1037200038490968A1F8500100BF00BFF8BD24F076
:1037300085FC2BF009F82AF043FC32480068B0F809
:103740005001002856D02F4800680068007C00F027
:10375000010040B32B4800680068C068406810B39F
:10376000002419E02748006800F59870005D00B15A
:1037700010E02448006800F5AC7000F034FD064607
:1037800020480068303000EBC400016831604068B8
:10379000706000BF601C84B21A480068B0F8500125
:1037A000A042DFDC00BF4FF4807116480068303063
:1037B0001EF08AF920211348006800F598701EF069
:1037C00083F900200F490968A1F85001384627F015
:1037D000FBFE00900B4800680068406A50B1094940
:1037E000096808680749096809684B6A06490A6850
:1037F000009998471DF0E0FE00F03EF800F006F852
:1038000000BF93E7EC020020E802002010B500247E
:1038100016E0C4EBC4000C4951F8200030B1C4EBF1
:10382000C401094A52F821001DF078FFC4EBC4011D
:10383000054A02EB81001C211EF046F9601CC4B24F
:10384000042CE6DB10BD0000C8B800200146094A80
:1038500010680BE042688A4202D002688A4204D1B2
:10386000027E22F00102521C027640690028F1D14A
:1038700070470000C00200207047000010B504210E
:10388000014800F04EFC10BDE0B7002010B520212B
:10389000014800F046FC10BDF8B700202DE9FF47B5
:1038A00004460D4616461F46DDE90C896FB9B8F58A
:1038B000807F0AD1002020806080681E00B2A08036
:1038C000701E00B2E080BDE8FF87002000900190EC
:1038D00002900390ADF80450ADF80A60ADF80C50BA
:1038E000ADF80E604B4642463946684624F012FA5F
:1038F0004B464246394601A824F00CFA4B46424654
:10390000394602A824F006FA4B464246394603A837
:1039100024F000FABDF90000BDF90410884202DA73
:10392000BDF9000001E0BDF90400BDF90810BDF9C2
:103930000C20914202DABDF9081001E0BDF90C102B
:1039400088420BDABDF90000BDF90410884202DAA2
:10395000BDF900000DE0BDF904000AE0BDF9080062
:10396000BDF90C10884202DABDF9080001E0BDF98A
:103970000C00801E00B22080BDF90000BDF90410CB
:10398000884202DDBDF9000001E0BDF90400BDF987
:103990000810BDF90C20914202DDBDF9081001E0CC
:1039A000BDF90C1088420BDDBDF90000BDF9041013
:1039B000884202DDBDF900000DE0BDF904000AE017
:1039C000BDF90800BDF90C10884202DDBDF9080000
:1039D00001E0BDF90C00801C00B2A080BDF902100E
:1039E000BDF90600814202DABDF9020001E0BDF92D
:1039F0000600BDF90A20BDF90E108A4202DABDF9AF
:103A00000A1001E0BDF90E1088420BDABDF9021070
:103A1000BDF90600814202DABDF902000DE0BDF9F0
:103A200006000AE0BDF90A10BDF90E00814202DA73
:103A3000BDF90A0001E0BDF90E00801E00B26080F1
:103A4000BDF90210BDF90600814202DDBDF9020098
:103A500001E0BDF90600BDF90A20BDF90E108A4249
:103A600002DDBDF90A1001E0BDF90E1088420BDD40
:103A7000BDF90210BDF90600814202DDBDF9020068
:103A80000DE0BDF906000AE0BDF90A10BDF90E000F
:103A9000814202DDBDF90A0001E0BDF90E00801C83
:103AA00000B2E08000BF0EE72DE9F7430546164659
:103AB0000024134C27F096FD8046334629462046C5
:103AC000019A1BF075FA07465FB900BF00BF2C21B1
:103AD00020461DF0F9FF4FF00040A0620020BDE835
:103AE000FE830020A062E06918B9404627F06CFD13
:103AF000E061E06908B90120E0612046EFE70000DD
:103B00001CB8002010B51421114800F00AFB1BF06E
:103B100001FA044600BF1CB900BF00BF00BFFEE7AA
:103B200000BF14B900BF00BF10BD0A4920461BF0FA
:103B3000D9FA094920461BF0D7FA084920461BF05C
:103B4000D5FA074920461BF0CBFA00BFECE700008E
:103B500004B80020C5E6010899EB010821EE010830
:103B60008DE6010870B504460D46102128461DF06B
:103B7000ABFF20680078012804D1A08A2880E08A61
:103B800068800CE020680078022802D1E068686054
:103B900005E020680078042801D10A2068602068C8
:103BA000406820B1206829464268904701E000BF84
:103BB00000BF70BD2DE9FE4F0446A08A18B9E08A07
:103BC00008B9BDE8FE8FE66A96B920460DF0D6F931
:103BD000064606B9F5E7204610F098FC00220921B8
:103BE000304619F0B9FD6078C0F3400000B1E8E755
:103BF00000274FF48078B14616E00021484621F0B6
:103C00009FFB384407B20021484621F0D5FB82468D
:103C1000C0170AEB1060001200FB08F00FFA80F8E2
:103C200048461FF023FF8146B9F1000FE5D117B9CF
:103C3000B8F5807F11D0784207B24FF4803090FB06
:103C4000F8F00FFA80F8002000906B4642463946A3
:103C500004F1140024F05EF800BF002002900190EF
:103C600094F8400000F00F00032812D1304620F0F5
:103C70001BF8824630461FF09FFF834603200090CA
:103C8000B4F9141053465A4630460CF045FC0290E5
:103C900012E0304620F08AF8824630461FF0FEFEE1
:103CA00083460C200090B4F916105B46524630460D
:103CB0000CF032FC019000BF30461FF04FFF05466C
:103CC00005F0010028B9BDF90800002801DD002039
:103CD000029005F0020028B9BDF90800002801DAB9
:103CE0000020029005F0040028B9BDF90400002866
:103CF00001DD0020019005F0080028B9BDF904009D
:103D0000002801DA0020019001AA02A920462BF028
:103D10006DFABDF90420BDF90810304600F0FCFA38
:103D20006078C0F3400000B14BE7208BBDF808106D
:103D3000084401B22183608BBDF80410084401B22D
:103D4000618300BF3DE72DE9F84F0446D4F82CB05D
:103D5000BBF1000F01D1BDE8F88F94F8400000F0EE
:103D60000F0000B9F7E71BF065FC06463068477E98
:103D70004021584621F0DAFC10B90021E183A183EB
:103D800058461FF0FFFF8046584620F005F80546CC
:103D900094F8400000F00F000C2843D10021A183CB
:103DA0001DBBB4F91E00C7F164014843642190FBB8
:103DB000F1F001B2E18358461FF070FE814658468B
:103DC0001FF0F4FF82460C200090B4F91E104B4601
:103DD000524658460CF0A0FBE083B4F91E200023A5
:103DE0001946584623F04EF869E020462BF055FA64
:103DF00000900021E1836A4620462BF0F7F9BDF9D7
:103E0000003041F6FF72514258460DF0A9FA814642
:103E1000BDF80000484402B201230021584623F0B7
:103E200031F84CE094F8400000F00F00032846D130
:103E30000021E183B8F1000F23D1B4F91C00C7F1D0
:103E400064014843642190FBF1F001B2A18358461C
:103E50001FF0B2FE814658461FF026FF824603201F
:103E60000090B4F91C1053464A4658460CF054FBD7
:103E7000A083B4F91C1000231A46584623F002F818
:103E80001DE020462BF0EEF900900021A1830022D6
:103E9000694620462BF0AAF9BDF9003041F6FF72C1
:103EA000514258460DF0C2F98146BDF80000484421
:103EB00001B201230022584622F0E4FF00BFA08B8C
:103EC000002860D1E08B00285DD11DBB58461FF053
:103ED0006DFF814658461FF0E1FD8246B9F1000FA3
:103EE00002DCBAF1000F14DDB9F1000F06DA01238C
:103EF0004A460021584622F0C5FF0AE0BAF1000FF9
:103F000007DA0123CAF1000002B20021584622F06C
:103F1000B9FF00BFB8F1000F23D158461FF04CFE87
:103F2000814658461FF0C0FE8246B9F1000F02DC00
:103F3000BAF1000F14DDB9F1000F06DA01230022F7
:103F40004946584622F09EFF0AE0BAF1000F07DA10
:103F500001230022CAF1000001B2584622F092FF6C
:103F600000BF32460A21584619F0F6FB6078C0F3CC
:103F7000400000B1EFE694F8400020F00F0184F813
:103F800040100021E16200BFE5E62DE9FF41044653
:103F90000F4614B915F044FC04460CB9BDE8FF8186
:103FA000204615F0D6FC00B9F8E794F82800C0F3D5
:103FB000800010B100BF00BFF0E71FB90020A4F8D7
:103FC0005001EBE70020ADF80800ADF80A002046EC
:103FD00015F03EFC401E00B2ADF80C00204615F076
:103FE0009DFC401E00B2ADF80E0002AA394668469C
:103FF000FFF753F9064606B9D0E72068007CC0F306
:10400000400060B102982063039860630120A4F827
:104010005001606810B1606827F080FCBEE720683E
:10402000806918B1206869468269904700250BE0D5
:1040300004F1300000EBC50100226846FFF76EF97D
:1040400000B1ABE7681C85B2B4F85001A842EFDCC0
:10405000B4F85001202809DAB4F8502104F13001F5
:1040600001EBC200694612F0C7FB0BE00020A4F888
:104070005001B4F8502104F1300101EBC20002A953
:1040800012F0BAFBB4F85001401CA4F8500160686B
:1040900010B1606827F042FC00BF7FE770B50546AD
:1040A000284600F013F8044600260CE02146284676
:1040B00000F024F806462146284600F0C0F82046C5
:1040C0001DF02CFB3446002CF0D170BD014609B91F
:1040D000002070474868FCE770B50646002430466B
:1040E000FFF7F4FF054605E0641C2946304600F062
:1040F00005F80546002DF7D1204670BD02460B4657
:104100001068001D03441868704702460B4610688B
:10411000034418687047014609B900207047886851
:10412000FCE7002242608260CA1C22F003010160A9
:10413000704770B50446216801F108001DF010FABF
:104140000546A5B100222946204628F005FE29464D
:104150002046626828F0F2FD606820B12A462046B9
:10416000616828F0F9FD6560A06800B9A56028467F
:1041700070BD2DE9F04106460D4606B115B9002087
:10418000BDE8F0813046FFF7A1FFA84206D13046D6
:10419000FFF7CFFF044624BB0020F1E7316801F1AF
:1041A00008001DF0DDF904460CB90020E8E72946B7
:1041B0003046FFF7AAFF074622463946304628F028
:1041C000BDFD3A462146304628F0C6FD2246294626
:1041D000304628F0C1FD2A462146304628F0AEFD83
:1041E00000BF2046CCE770B50446216801F1080005
:1041F0001DF0B6F90546A5B100222946204628F053
:104200009DFD29462046A26828F0A6FDA06820B1A1
:104210002A462046A16828F091FDA560606800B993
:104220006560284670BD014609B90120704748689D
:1042300018B9886808B90120F8E70020F6E72DE9E9
:10424000F04104460D460CB9BDE8F0812046FFF769
:104250003DFFA8420FD129462046FFF74FFF60607F
:10426000606810B90020A0602FE00022204661683D
:1042700028F072FD29E02046FFF74DFFA8420FD13C
:1042800029462046FFF741FFA060A06810B9002032
:1042900060601AE000222046A16828F04FFD14E07B
:1042A00029462046FFF731FF064629462046FFF7FC
:1042B00025FF07463A463146204628F03FFD324664
:1042C0003946204628F048FD00BF00BFBCE710B5C6
:1042D00004462068806818B12068214682689047AB
:1042E0002068006828B12068006820602046FFF739
:1042F000EEFF10BD0146886818B18868B0F9160055
:1043000070470020FCE70146886818B18868807E05
:10431000800970470020FCE72DE9F04104460D4676
:1043200016461DB916B90120BDE8F08120461EF0E1
:10433000E9FAA068008A284400B2A1680882A0684F
:10434000408A304401B2A0684182012332462946A6
:10435000204621F087FE00220B21204619F0FCF9AF
:104360000746012F01D03846DEE7204621F0A2FDA6
:104370000120D9E7F7B582B004460E4614B9049877
:1043800005B0F0BD00BF62223146204620F05EFE3F
:104390000190019D00BFBDB12868A8B100BF632294
:1043A0003146204620F052FE01900198C0B20746E7
:1043B0004FB13A462B682846049998470190BDF8BA
:1043C0000400ADF8100000BF0498D9E72DE9F04FC4
:1043D00095B004468B4691469A461E9D608C20F00F
:1043E000080008306084A4F820902A8959462046A5
:1043F00020F02CFE1490A4F820A02A8959462046CB
:1044000020F024FE1390608C20F008006084DDE929
:10441000131088420CD1DDE91310884208D1BDF891
:104420005000BDF84C10884202D115B0BDE8F08FA5
:10443000A4F820902A895946204620F007FE1490BF
:10444000A4F820A0594620460EF0C6FD12902989F6
:10445000129A1068149A25F083FD28890B2833D10D
:1044600047F6FF711498884202D0139888422BD1E6
:10447000204621F0FEF8009000EBD0704710204657
:104480001FF0A4FA009000EBD0704FEA600847F6E6
:10449000FF711498884208D1781C08F10101884204
:1044A00000DA01E008F10100149047F6FF7113985B
:1044B000884208D1781C08F10101884200DA01E045
:1044C00008F10100139000BF2348FFF732FE0646B3
:1044D00000BF1EB900BF00BF00BFFEE700BF06B9A6
:1044E000A3E71498F0601398306134602889B08095
:1044F000C6F808B001A811F03BFA314601A811F046
:10450000F6FA164901A811F0BBFA1548039000BF4E
:10451000144901A811F0C2FAFF22002101A811F0EC
:10452000D4FA298801A811F0C2FA698801A811F00B
:10453000A0FAE868089000BF01A8002190F8422086
:1045400061F3000280F8422000BF2869079001A8AB
:1045500011F0E4FA00BF68E710B80020F93E030844
:10456000A1410308D140030810B514210148FFF709
:10457000D8FD10BD10B800202DE9FE4F04460F46AF
:1045800090464FF0000900254CE1E06800EBC500C3
:104590004068C0F3406000B143E1E16801EBC50150
:1045A000496821F07F4023F0D9FA064626EA070041
:1045B00008B9012000E00020029026EA080008B9AE
:1045C000012000E000200190DDE90101814270D06E
:1045D000E06850F835A04FF0000B6A4610215046B5
:1045E00025F096F810B14FF0010B98E06A461121C2
:1045F000504625F08DF810B14FF0010B8FE06A4660
:104600001221504625F084F810B14FF0010B86E0DE
:104610006A461321504625F07BF810B14FF0010B8C
:104620007DE06A461521504625F072F810B14FF032
:10463000010B74E06A461421504625F069F810B168
:104640004FF0010B6BE06A460A21504625F060F8F6
:1046500010B14FF0010B62E06A466B21504625F025
:1046600057F810B14FF0010B59E06A466C215046E3
:1046700025F04EF810B14FF0010B50E06A460121D1
:10468000504625F045F810B14FF0010B47E06A465F
:104690000421504625F03CF810B14FF0010B3EE0EC
:1046A0006A460221504625F033F818B14FF0010B4D
:1046B00035E0B5E06A460321504625F029F810B1EF
:1046C0004FF0010B2BE06A460521504625F020F8FB
:1046D00010B14FF0010B22E06A460621504625F04A
:1046E00017F810B14FF0010B19E06A46322150461D
:1046F00025F00EF810B14FF0010B10E06A466E2164
:10470000504625F005F810B14FF0010B07E06A465E
:104710006D21504624F0FCFF08B14FF0010BBBF1B6
:10472000000F02D00320BDE8FE8F6A466921504683
:1047300024F0EEFF10B14FF0020970E06A466A21E2
:10474000504624F0E5FF10B14FF0020967E06A46D9
:104750006E21504624F0DCFF10B14FF002095EE0FC
:104760006A466D21504624F0D3FF10B14FF0020984
:1047700055E06A463721504624F0CAFF10B14FF089
:1047800002094CE06A463821504624F0C1FF10B1BE
:104790004FF0020943E06A463521504624F0B8FF45
:1047A00010B14FF002093AE06A464021504624F029
:1047B000AFFF10B14FF0020931E06A464521504683
:1047C00024F0A6FF10B14FF0020928E06A4641210B
:1047D000504624F09DFF10B14FF002091FE06A46D9
:1047E0004221504624F094FF10B14FF0020916E028
:1047F0006A464321504624F08BFF10B14FF0020966
:104800000DE06A464921504624F082FF10B14FF076
:10481000020904E0B9F1000F01D14FF0010900BF16
:1048200000BF6D1C608CC0F30510A8423FF6ADAE12
:10483000484678E70148006870470000EC02002015
:1048400070470146C1F30412072A00DD0722D0B2E7
:104850007047000001464FF6FF70814201D11F20D2
:10486000704709B90020FBE7712902DA0948405C6A
:10487000F6E7A1F1710081B20748006838B1074836
:104880000068814203D204480068405CE8E70020E9
:10489000E6E7000040630408580400206C04002090
:1048A00010B518210348FFF73CFC012026F04EFF0D
:1048B00010BD0000BCB700202DE9F04105460F46B1
:1048C00016460DB9BDE8F0812846FBF70EFD80467F
:1048D000394628460A4A126890470746E819314681
:1048E000074A1268904706463C4603E0A019285C38
:1048F0002855641CA8EB0600A042F7D200BFE1E7F0
:104900009C0400202DE9F04106460C4617461D4642
:1049100029463046084A126890472060206830B126
:10492000296888190021044A1268904700E0002095
:104930003860BDE8F0810000940400202DE9F04FBC
:1049400087B004460F4692469846DDE910560DB1F1
:10495000002028801CB9002007B0BDE8F08F207827
:1049600008B90020F8E70FB90020F5E74FF000097B
:1049700006F0020010B906F0040098B1002000E033
:10498000401C215C0A2905D0215C0D2902D0215C44
:104990000029F5D1215C01B1401C15B14FF0FF3168
:1049A0002980D9E706F0020008B141F6FF7800201F
:1049B0000690059038E000200490059808B9012081
:1049C00000E0002006A904AACDE90062CDE90210AA
:1049D0000599601843465246394627F01FF9834629
:1049E0000498A8EB00000FFA80F8049848440FFAE6
:1049F00080F9BBF1000F00D11CE0059858440590E8
:104A000020780A2802D020780D2800D112E00598DD
:104A1000205C0A2803D00598205C0D2803D1059856
:104A2000401C059006E000BF0598205C10B1B8F16D
:104A3000000FC0DC00BF059870B905A92046094ADF
:104A400012689047834635B100225946384619F01E
:104A500007F80FFA80F900BF0DB1A5F8009005988E
:104A60007AE70000940400202DE9F04706468846C6
:104A7000174606B10FB9BDE8F0873046FBF735FCA5
:104A800081463846FBF731FC044604B9F3E704EBF2
:104A9000090A414630460B4A1268904780465546FF
:104AA00003E0281B305C70556D1E08EB0400A84223
:104AB000F7D906EB0800224639461CF0BFFF00BFBD
:104AC000D9E700009C040020024600200FA31B78B9
:104AD0008B4211D113781BB90123137001200BE015
:104AE0001378012B02D10023137005E01378022BF9
:104AF00002D10023137001201378012B04D1202947
:104B000001D1022313700120704700002300000030
:104B100073B582B0064603980190324600210846DC
:104B2000019B27F09BFB0546002001900024681C98
:104B30001CF016FD044600BF1CB900BF00BF00BF3B
:104B4000FEE700BF14B9002004B070BD002060551E
:104B50003246691C2046039B27F080FB2046F3E782
:104B60002DE9F04781460E4614461F46DDF820A089
:104B700035461BE0600800FB075529464846D047EC
:104B8000B0F1000809DD04F0010080F00100C0EB85
:104B90005404E8190546064608E0B8F1000F02DAA9
:104BA0006408354602E02846BDE8F087002CE1D1D4
:104BB0000020F9E72DE9FF4F85B08346DDE9158A2E
:104BC000DDE91349DDE91775129E05F00200F8B919
:104BD0004FB105F0010030B1B9F1000F02D105F07D
:104BE0000C0000B17F1E03E030222046641C3254CA
:104BF000544501D2202CF7D303E030222046641C18
:104C0000325405F0010018B1BC4201D2202CF4D37B
:104C100005F01000B0B305F4806050B94CB15445B4
:104C200001D0BC4205D1641E1CB1B8F1100F00D1F7
:104C3000641EB8F1100F09D105F0200030B9202C06
:104C400004D278222046641C325415E0B8F1100FCB
:104C500009D105F0200030B1202C04D25822204682
:104C6000641C325408E0B8F1020F05D1202C03D2A5
:104C700062222046641C3254202C03D2302220466B
:104C8000641C3254202C16D2B9F1000F04D02D220E
:104C90002046641C32540EE005F0040020B12B22A3
:104CA0002046641C325406E005F0080018B12022AA
:104CB0002046641C3254CDE90275CDE900645846A3
:104CC00006A90EC900F0A2F809B0BDE8F08F2DE9E1
:104CD000FF4F8FB08046DDE91FABDDE91D96219DBA
:104CE0001C9C00270CB925F0100505F4806000B16C
:104CF000E4B100BFB4FBF6F106FB1141C8B20A28CB
:104D000002DA00F1300107E005F0200109B141218C
:104D100000E0612101440A39CBB239467F1C07AA61
:104D20005354B4FBF6F40CB1202FE3D307A8CDE91C
:104D300004AB8DE8810203960695404610A90EC982
:104D4000FFF738FF13B0BDE8F08F2DE9FF4F8FB0AC
:104D5000DDE9217BDDF89080209EDDE91C454FF0E8
:104D60000009002184EA01006940084301D128F0CC
:104D7000100808F4806028B1002184EA010069402D
:104D800008432DD000BF32463B4620462946FBF75C
:104D900037FA02F0FF0ABAF10A0F02DA0AF130001C
:104DA00007E008F0200008B1412000E061205044F5
:104DB0000A38C2B2484609F1010907A90A54324625
:104DC0003B4620462946FBF71BFA04460D460021C8
:104DD00084EA01006940084302D0B9F1200FD2D320
:104DE0002398CDE9036BCDE9050807A91E98CDE905
:104DF000001902900FA80FC8FFF7DCFE13B0BDE842
:104E0000F08F9A4200D28854704770472DE9FF5FB7
:104E100005461446DDE90EA6DDE91087A34607F036
:104E2000020078B907F0010060B9B14607E02246F8
:104E3000641C2020039B0199A84709F10109C14581
:104E4000F5D300BF08E02246641C711E0E461AF816
:104E50000100039B0199A847002EF4D107F002003E
:104E600050B105E02246641C2020039B0199A8470D
:104E7000A4EB0B004045F5D3204604B0BDE8F09FFD
:104E80002DE9FF4F8BB088460546002606E0252811
:104E90000BD0DDE90D1290476D1C761C2878002898
:104EA000F5D10FB03046BDE8F08F0024A146A246F0
:104EB0000122AE4900E0044315F8013F203B02FA0D
:104EC00003F00842F7D128782A2810D06FF02F027B
:104ED0002878A0F13001092915D809EB890102EBE6
:104EE000410144F0020400EB01096D1CF0E758F8A1
:104EF000041B5FEA010903D544F40054C9F1000919
:104F000044F002046D1C28782E2817D115F8010FE3
:104F100044F004042A280ED06FF02F022878A0F164
:104F2000300109290AD80AEB8A0102EB410100EBA2
:104F3000010A6D1CF2E758F804AB6D1C28786C2848
:104F40000FD006DC4C2817D068280DD06A2814D161
:104F500004E0742810D07A280FD10DE044F4001436
:104F60000AE044F4801401E044F44014697881427A
:104F700002D104F580146D1C6D1C2878692865D059
:104F800006DC00288DD0632827D0642806D15DE098
:104F90006E2808D073282AD0752877D0DDE90D1245
:104FA0009047761CE0E0C4F30250022809D00328A1
:104FB0000DD0D8F8001004280DD00E6008F10408B8
:104FC000D2E0D8F80010F217C1E90062F6E7D8F88D
:104FD00000100E80F2E70E70F0E718F8041B8DF851
:104FE000001000208DF80100EB46012003E058F886
:104FF00004BB4FF0FF3061074FF0000701D40AE017
:105000007F1C57450DDA8742FADB1BF80710002991
:10501000F6D106E07F1C8742FCDB1BF80710002955
:10502000F8D1DDE90D23A9EB07008146214600F008
:10503000B1F83044C61904E0DDE90D121BF8010B8C
:1050400090477F1EF8D22146484688E058F8040B66
:10505000C4F302514FF00A0B032900D100B2042916
:1050600000D140B2002802DA40422D2102E02105A1
:1050700005D52B218DF82410012104E006E0E1077D
:1050800010D02021F6E708AF089113E058F8040B80
:10509000C4F302514FF00A0B032900D180B2042956
:1050A00000D1C0B20021EEE75946FBF72BFA3031B0
:1050B00007F8011D0028F7D1ADEB070000F1200B28
:1050C000600702D524F4803401E04FF0010ADA458C
:1050D00002DDAAEB0B0000E00020824600EB0B0192
:1050E00008980144A9EB01000A90E00306D4DDE929
:1050F0000D2321460A9800F04DF806444FF00009B0
:1051000008E009A911F80900DDE90D12904709F13D
:105110000109761C08998945F3DBE0030CD5DDE92C
:105120000D2321460A9800F035F8064404E0DDE935
:105130000D1230209047761CBAF10001AAF1010A45
:10514000F5DC05E0DDE90D1217F8010B9047761C40
:10515000BBF10001ABF1010BF4DC0A982146DDE95B
:105160000D2300F005F806446D1C97E609280100A0
:105170002DE9F041044600251E461746880404D454
:1051800005E039462020B0476D1C641EF9D528463D
:10519000BDE8F0812DE9F041044600251E46904609
:1051A000C80301D5302700E02027880404D505E096
:1051B00041463846B0476D1C641EF9D52846BDE807
:1051C000F08100002DE9FF4F8BB0074600250C98B9
:1051D00000B9FA4FEAE20E98007825280AD02A464C
:1051E0006D1C0E990878DDE90C13B8470E98401C29
:1051F0000E90DBE20E98401C0E90002400BF0E982B
:1052000000782B2819D004DC20281ED023282CD18C
:1052100023E02D2809D0302827D144F001040E982E
:10522000401C0E9001200A9022E044F002040E98E7
:10523000401C0E9001200A901AE044F004040E98DD
:10524000401C0E9001200A9012E044F008040E98D1
:10525000401C0E9001200A900AE044F010040E98C1
:10526000401C0E9001200A9002E000200A9000BF2E
:1052700000BF0A980028C2D180460E990878FDF731
:1052800017FF20B10EA8FDF7FEFE804612E00E9833
:1052900000782A280ED1189901C91891002804DA3B
:1052A00044F00204C0F1000800E080460E99491C59
:1052B0000E9100BF4FF000090E9800782E281FD1E4
:1052C00044F480640E98401C0E900E990878FDF707
:1052D000EFFE20B10EA8FDF7D6FE814610E00E9835
:1052E00000782A280CD1189901C91891002801DDED
:1052F000014600E0002189460E99491C0E9100BF2D
:105300000E9800786C280AD004DC682816D06A2829
:1053100035D128E0742820D07A2830D129E044F40F
:1053200080740E98401C0E900E9800786C2804D162
:1053300044F400740E98401C0E9021E044F0800468
:105340000E98401C0E900E980078682804D144F006
:1053500040040E98401C0E9012E044F480740E98A5
:10536000401C0E900CE044F400740E98401C0E900B
:1053700006E044F480740E98401C0E9000E000BFDC
:1053800000BF0E98007869281DD00EDC622821D05D
:1053900006DC25287ED050281AD058287BD115E06D
:1053A000632879D06428F9D10CE0732875D004DC27
:1053B0006F280ED07028F1D109E0752804D0782824
:1053C000ECD102E000BF00BF00BF00BF00BF00BFC4
:1053D00000BF00BF0E980078782803D00E980078A0
:1053E000582801D1102623E00E980078702803D0A9
:1053F0000E98007850280CD1102644F0100444F484
:1054000080740E984078562812D10E98401C0E9049
:105410000EE00E9800786F2801D1082608E00E985B
:105420000078622801D1022602E00A2624F0100446
:105430000E980078582803D00E980078502801D193
:1054400044F020040E980078692805D00E98007862
:10545000642801D024F00C0404F4806008B124F026
:1054600001040E980078692803D00E98007864280B
:105470007CD104F40070B8B31898C01D20F0070068
:105480001890D0E900AB189A083218920020CDE9A4
:10549000069803E073E17CE1F2E01CE1CDE90460F1
:1054A0000894BAEB00017BEB000001DA012000E078
:1054B0000020002102900846B1EB0A0170EB0B00BE
:1054C00002DA5046594605E000200146B0EB0A00DA
:1054D00061EB0B01CDE900012A463846DDE90C13EA
:1054E000FFF733FC0546C7E0FFE704F48070D0B156
:1054F000189850F804AB18904FEADA70CDE9039889
:1055000002960594BAF1000F01DD514601E0CAF19F
:105510000001CDE900102A463846DDE90C13FFF7FB
:10552000D6FB0546A8E004F0400028B1189810F812
:10553000041B1890C8B20DE004F0800028B1189840
:1055400030F8041B189008B204E018980068189905
:10555000091D189182464FEADA70CDE90398029648
:105560000594BAF1000F02DD514602E00BE0CAF1EA
:105570000001CDE900102A463846DDE90C13FFF79B
:10558000A6FB054678E00E980078562818D11898A2
:1055900050F804AB1890DAF80400006809900998F4
:1055A0000090DAF800300D98421B0C9841193846EB
:1055B000FFF708FE0544002009905DE00B4E00084F
:1055C00004F40070D0B11898C01D20F00700CDE998
:1055D0000698089418900020CDE90460029018996C
:1055E00003C9189A08321892CDE900012A463846B4
:1055F000DDE90C13FFF7A9FB05463DE004F48070DC
:1056000098B10022CDE90398029605941898006895
:105610001899091DCDE9000218912A463846DDE99E
:105620000C13FFF754FB054626E004F0400028B1B8
:10563000189810F8041B1890C8B20DE004F0800010
:1056400028B1189830F8041B189088B204E0189814
:1056500000681899091D189182460020CDE900A024
:10566000CDE90398029605942A463846DDE90C13E5
:10567000FFF72DFB054600BF0E98401C0E9093E0EF
:10568000012604F0020050B905E02A466D1C2020D6
:10569000DDE90C13B8473046761C4045F5D3189920
:1056A00011F8043BD8B22A466D1C1891DDE90C13A1
:1056B000B84704F0020050B105E02A466D1C2020D6
:1056C000DDE90C13B8473046761C4045F5D30E98FB
:1056D000401C0E9068E0189850F804AB18905046A3
:1056E000B9F1000F01D0494601E04FF0FF310A4601
:1056F000014600E0491C0B781BB1131EA2F1010208
:10570000F8D10E1A04F4806028B14E4501D230461B
:1057100000E04846064604F0020050B905E02A467B
:105720006D1C2020DDE90C13B8473046761C40453F
:10573000F5D306E01AF8010B2A466D1CDDE90C13BF
:10574000B8479AF8000040B104F480600028F1D016
:10575000B9F10000A9F10109ECD104F0020050B147
:1057600005E02A466D1C2020DDE90C13B8473046C1
:10577000761C4045F5D30E98401C0E9014E02A4646
:105780006D1C2520DDE90C13B8470E98401C0E90C7
:105790000AE02A466D1C0E990878DDE90C13B8471B
:1057A0000E98401C0E9000BF00BF00BF0E980078FE
:1057B00000287FF410AD0D98854201D2284601E003
:1057C0000D98401E02460020DDE90C13B84728461C
:1057D0000FB0BDE8F08F2DE9F04104460E460027DA
:1057E00074B13146204600F02DF80546B5F5804FDE
:1057F00005D20C2D01D9284600E00C20074600BF39
:105800003846BDE8F081024600BF481E084018B186
:1058100000BF00BF00BFFEE700BF481E1040101AC7
:10582000704710B502464B1E13444C1E23EA040079
:1058300000BF4B1E0B401BB100BF00BF00BFFEE707
:1058400000BF10BD024600BF481E084018B100BF8F
:1058500000BF00BFFEE700BF481E10444B1E984328
:10586000704700002DE9F04180460E464446012075
:105870006086002500270DE056F8270025A1FAF7DD
:105880003BFD10B1681C85B202E0608E401C608652
:10589000781C87B256F8270020B156F82700007808
:1058A0000028E9D1208EA84201D1BDE8F081A06A8C
:1058B00020B1A06A1BF032FF0020A062E06A20B194
:1058C000E06A1BF02BFF0020E062E8001BF048FEBE
:1058D000A06200BFA06A18B900BF00BF00BFFEE70A
:1058E00000BF68001BF03CFEE06200BFE06A18B930
:1058F00000BF00BF00BFFEE700BFA06A08B1E06ABA
:1059000000B900256900E06A1CF0DEF8258600BFBA
:10591000CBE700000A0000002DE9F84F81460E4653
:10592000924699F8090000F00700022801D130469C
:1059300000E050468346564501DD304600E05046C3
:105940000746032000EB470020F0030000F110059C
:105950003948006839490968A0EB0108002405EBC3
:10596000080037490968884206D2334804686068ED
:1059700020F0004060603AE031480068854221D85C
:1059800013E04FF0FF300090002269462D480FF0E1
:1059900041FB002269462C480FF03CFB264800687A
:1059A00026490968A0EB010800BF08EB050024495F
:1059B00009688842E5D820480468606820F0004003
:1059C000606014E028461BF0CBFD044600BF1CB904
:1059D00000BF00BF00BFFEE700BF14B90020BDE854
:1059E000F88F606820F0004000F1004060603246AF
:1059F0005946484602F06DF92060606800F040406A
:105A0000401C6060606820F080406060A781A4F85E
:105A10000EB06068C00F20B1204600F11001A160F7
:105A200008E0054800681030A0600348006828447A
:105A3000014908602046D2E7F40200205404002007
:105A4000F00200205F0F010895500108F0B585B005
:105A500006460D46344600200490039002906548A7
:105A60000088A84202D0FF20634908706148058081
:105A700094F83C0000F0030020B1012838D002283F
:105A800066D000BF94F83C0000F003005A49097842
:105A900088421BD02620005D00EB001000EB400088
:105AA000142190FBF1F0554908702720005D00EBB0
:105AB000001000EB4000142190FBF1F050490870F9
:105AC00094F83C0000F003004B49087002A803A9B9
:105AD000CDE9001005EB45014FF6FF7202EA4100E7
