:020000040800F2
:1000000080C50020DD0100082D1B0008BD0F000881
:10001000291B00082B0500087127000800000000BC
:100020000000000000000000000000004501000882
:10003000090800080000000089010008B124000838
:10004000F7010008F7010008F7010008F7010008B0
:10005000F7010008F7010008F7010008F7010008A0
:10006000F70100080D080008F7010008F701000873
:10007000F7010008F701000831050008F701000842
:10008000F7010008F7010008F7010008F701000870
:10009000F7010008F7010008F7010008F701000860
:1000A000F7010008F7010008F7010008F701000850
:1000B000F7010008F7010008F7010008F701000840
:1000C000F7010008F7010008F7010008F701000830
:1000D000F7010008F7010008F7010008F701000820
:1000E000F7010008F7010008F7010008F701000810
:1000F000F7010008F7010008F7010008F701000800
:10010000F7010008F7010008F7010008F7010008EF
:10011000F7010008F7010008F7010008F7010008DF
:10012000F7010008F7010008F7010008F7010008CF
:10013000DFF80CD000F0BCF900480047492C00085B
:1001400080C50020224B19680868B0E8F00F80F3E2
:100150000988BFF36F8F4FF0000080F311884EF0D5
:100160000D0E70470000000006480068006880F32C
:10017000088862B661B6BFF34F8FBFF36F8F00DFA1
:1001800000BF00BF08ED00E0EFF30980BFF36F8F01
:100190000F4B1A6820E9F00F106008B54FF05000BF
:1001A00080F31188BFF34F8FBFF36F8F04F0A2FC71
:1001B0004FF0000080F31188BDE808401968086816
:1001C000B0E8F00F80F30988BFF36F8F704700BF6E
:1001D00034010020EFF30580704700000648804797
:1001E00006480047FEE7FEE7FEE7FEE7FEE7FEE71C
:1001F000FEE7FEE7FEE7FEE7C12400083101000844
:1002000040EA01039B0703D009E008C9121F08C098
:10021000042AFAD203E011F8013B00F8013B521E18
:10022000F9D27047D2B201E000F8012B491EFBD28F
:1002300070470022F6E710B513460A4604461946F1
:10024000FFF7F0FF204610BDF0B480EA0102D40FA2
:100250004200B2EB410F02D20246084611464A0064
:1002600042D0C30DDDB2C1F3C752AD1A202D35DA2D
:10027000C1F3160141F4000204B15242C5F1200657
:1002800002FA06F12A411044B3EBD05F23D0C4B187
:10029000012DA0EBC35009DCF0BC4FF0004202EA94
:1002A000C352DBB200F5000000F0D3B8400000F10B
:1002B000807000EBC350A0F1807040EAD17049001B
:1002C00009E0490841EAC071A0EBC35000F5000005
:1002D000400800EBC350F0BC00F0B2B8614201220C
:1002E00002EB4101001BF6E7F0BC704781F00041D2
:1002F000AAE780F00040A7E780EA010210B502F00B
:100300000043400022D04A001FD0010E01EB1261D1
:10031000C0F35600C2F3560240F4000042F400025B
:10032000A0FB022000047F39140400D0401C50EAD6
:10033000124001D44000491EC2B20C0604EBD0109A
:10034000401C4008802A02D003E0002010BD20F0AD
:100350000100002900DA0020184310BD30B480EA03
:10036000010202F0004530F0004221F0004013D0BD
:1003700090B1C30DD40DC2F31601C0F31600E41AF8
:1003800041F4000140F400027D34914201D3641C29
:1003900000E04900002C02DA30BC002070474FF426
:1003A00000000023914201D3891A034340084FEA19
:1003B0004101F7D151B1914202D14FF0004105E026
:1003C00002D24FF0010101E06FF0010103EBC450D4
:1003D000284430BC00F034B896230022114600F0C7
:1003E00038B800F0004220F00040C10DC0F3160004
:1003F00040F400007F2901DA00207047962903DCD1
:10040000C1F19601C84001E096398840002AF4D035
:100410004042704730B50B4601460020202201249F
:1004200009E021FA02F59D4205D303FA02F5491BC2
:1004300004FA02F52844151EA2F10102F1DC30BDD8
:100440000029A8BF7047401C490008BF20F00100E8
:10045000704710B4B0FA80FC00FA0CF050EA0104C6
:1004600004BF10BC704749B1CCF1200421FA04F458
:1004700011FA0CF118BF012121430843A3EB0C0131
:10048000CB1D4FEA00614FEA102042BF002010BC94
:10049000704700EBC35010440029A4BF10BC704744
:1004A000401C490008BF20F0010010BC704700004C
:1004B000064C074D06E0E06840F0010394E80700B1
:1004C00098471034AC42F6D3FFF736FEB4960008D6
:1004D000D496000870B58C1810F8015B15F007036E
:1004E00001D110F8013B2A1106D110F8012B03E0CD
:1004F00010F8016B01F8016B5B1EF9D12B0705D4D5
:100500000023521E0DD401F8013BFAE710F8013B1D
:10051000CB1A921C03E013F8015B01F8015B521E39
:10052000F9D5A142D8D3002070BD00BFFEE700007E
:1005300008B54FF4005000F0F1F8D0B10020009061
:1005400069460C48006804F083FE69460A48006862
:1005500004F07EFE4FF4005000F020F8009838B10F
:100560004FF0805005490860BFF34F8FBFF36F8F86
:1005700000BF08BD480000204C00002004ED00E052
:1005800000F0805111B10349086001E00249486060
:1005900070470000040402400000024000F0805157
:1005A00011B10349086001E002494860704700004A
:1005B000040402400000024021B1026842F001023E
:1005C000026004E002684FF6FE731A400260704752
:1005D00001684FF6FE721140016000210160416028
:1005E0008160C1604B49884208D14A49083949684D
:1005F00041F00F01474A083A51608AE045491431F9
:10060000884208D143490839496841F0F001414A1C
:10061000083A51607DE03F492831884208D13D4980
:100620000839496841F470613A4A083A516070E00B
:1006300038493C31884208D136490839496841F483
:100640007041344A083A516063E03249503188427F
:1006500008D130490839496841F470212D4A083AD7
:10066000516056E02B496431884208D12949083944
:10067000496841F47001274A083A516049E0254928
:100680007831884208D123490839496841F07061BE
:10069000204A083A51603CE01F49884206D1011FB8
:1006A000096841F00F01021F116032E01A4914314C
:1006B000884208D11849091F096841F0F001164A1B
:1006C000121F116025E014492831884208D11249CF
:1006D000091F096841F470610F4A121F116018E088
:1006E0000D493C31884208D10B49091F096841F482
:1006F0007041094A121F11600BE0074950318842CE
:1007000007D10549091F096841F47021024A121FE7
:1007100011607047080002400804024001460020B2
:10072000002201F0805313B1054B1A6801E0054B1C
:100730001A6802EA01030BB1012000E000207047B3
:1007400000040240000002401AB103680B4303603A
:1007500002E003688B430360704710B50022026813
:1007600047F6F0739A430C6A8B6823430C69234362
:100770004C6923438C692343CC6923434C6A23434C
:100780008C6A23431A430260CB6843600B68836022
:100790004B68C36010BD41607047000008B5002081
:1007A000009000BF00235A1E69461248006804F0FA
:1007B00035FB00211048FFF7FFFE4FF40050FFF714
:1007C000DFFE40210D4801F0F1FE0D48008881B2A6
:1007D0000948FFF7E0FF01210748FFF7EDFE00237E
:1007E0005A1E19460748006804F018FB0020044907
:1007F0000860D7E744000020440002400038014070
:10080000280100204C0000207047000010B508208F
:1008100000F038F800B31148007878B9102010497A
:10082000486108200F49086001200C490870082021
:100830000C49086010200A4908610AE0074800785E
:10084000012806D108200749091D08600220034934
:100850000870082000F008F810BD0000FF0000201C
:100860000010014010140140014908607047000069
:1008700014040140024909680143014A11607047AC
:1008800010040140014600200022074B1B6803EAC8
:100890000102054B14331B680B4013B10AB1012050
:1008A00000E00020704700000004014000212349BF
:1008B0008279002A3AD00A46126803689A430B46A6
:1008C0001A600A1D126803689A430B1D1A600279A8
:1008D00011440A6803681A430A60184A0832126809
:1008E00003689A43154B08331A601A1D126803688F
:1008F0009A43124B0C331A604279102A0ED11A1FF8
:10090000126803681A430D4B08331A601A1D1268E7
:1009100003681A43094B0C331A600DE0074942790A
:1009200011440A6803681A430A6005E00279114419
:100930000A6803689A430A60704700000004014097
:1009400008B501213C2001F045FB10208DF8030083
:1009500003208DF802000820ADF8000069461A480F
:1009600000F094FA1020ADF800006946174800F036
:100970008DFA0420ADF800006946134800F086FAAD
:100980002020ADF800006946104800F07FFA0820EA
:10099000ADF8000069460E4800F078FA4FF47F4049
:1009A000ADF8000004208DF8030003208DF802004C
:1009B0006946084800F06AFA0820034914310860C3
:1009C00003491031086008BD0008014000100140D3
:1009D00000140140000C014000BFC9480078022803
:1009E000FBD10023C21E1946C648006804F016FA5F
:1009F000C548007800287DD14FF47A7003F09EFE40
:100A000000BF0420C14908602020C1494861086135
:100A10000420BE49091F08602020BD4948610861C3
:100A200000BF002065E000215FE000BF0022B94B5D
:100A30001A802022B64B5A61B74A126802F47F42EC
:100A4000B44B1A802022B24B1A615A61B24A126822
:100A5000C2F30722AF4B1B881A43AE4B1A802022E9
:100A6000AB4B1A6100BFAB4A1288D20AAB4B1A706B
:100A7000A84A1288C2F34512A94B1A70A54A1278E7
:100A800002F01F02A74B1A70A44A1278D200A34B9F
:100A90001B7842EAA302D3B200EB800201EB821280
:100AA00002EB4202A04CA3549D4A127892009C4B48
:100AB0001B7842EA2312D3B200EB800201EB8212D0
:100AC00002EB4202521CA354964A1278D200954B74
:100AD0001B7842EAA302D3B200EB800201EB821240
:100AE00002EB4202921CA354491CB1F5A07F9CDB8F
:100AF000401C00E00DE0082895DB83480078401C8E
:100B00008149087000235A1E8848006804F0CAFA18
:100B100063E77D4800781E2876DA002065E0002132
:100B20005FE000BF00227B4B1A802022784B5A6185
:100B3000794A126802F47F42764B1A802022744B65
:100B40001A615A61744A1268C2F30722714B1B88FA
:100B50001A43704B1A8020226D4B1A6100BF6D4AF8
:100B60001288D20A6D4B1A706A4A1288C2F3451273
:100B70006B4B1A70674A127802F01F02694B1A70A9
:100B8000664A1278D200654B1B7842EAA302D3B2C0
:100B900000EB800201EB821202EB4202624CA35492
:100BA0005F4A127892005E4B1B7842EA2312D3B25E
:100BB00000EB800201EB821202EB4202521CA354B2
:100BC000584A1278D200574B1B7842EAA302D3B29C
:100BD00000EB800201EB821202EB4202921CA35452
:100BE000491CB1F5A07F9CDB401C082897DB4648D8
:100BF0000078401C4449087000235A1E4B48006886
:100C000004F050FAE9E6FFE7002065E000215FE02C
:100C100000BF00223F4B1A8020223D4B5A613E4AC2
:100C2000126802F47F423B4B1A802022384B1A6133
:100C30005A61394A1268C2F30722364B1B881A439D
:100C4000344B1A802022324B1A6100BF314A12887D
:100C5000D20A324B1A702F4A1288C2F34512304B17
:100C60001A702C4A127802F01F022E4B1A702B4A6F
:100C70001278D200294B1B7842EAA302D3B200EBD0
:100C8000800201EB821202EB4202274CA354244A59
:100C900012789200224B1B7842EA2312D3B200EB67
:100CA000800201EB821202EB4202521CA3541D4A45
:100CB0001278D2001B4B1B7842EAA302D3B200EB9E
:100CC000800201EB821202EB4202921CA354491CE7
:100CD000B1F5A07F9CDB401C082897DB00200A4967
:100CE0000870074908700023421E07490F48006832
:100CF00004F0D8F947F2305003F020FD6DE6000013
:100D0000FF000020480000203101002014080140AD
:100D1000001001402C010020080C01402E01002091
:100D20002F01002030010020980100204000002009
:100D300051B18200A2F1C042126842F00103820068
:100D4000A2F1C042136009E08200A2F1C042126821
:100D5000034B1A408300A3F1C0431A6070470000A0
:100D6000FEFF0F00D0E901121143C268114302696E
:100D700011434269114382691143C2691143026AF6
:100D80001143426A1143826A1143C26A1143026BE2
:100D9000114302689200A2F1C042116081680829E3
:100DA0000BD101688900A1F1C041096841F04002FE
:100DB00001688900A1F1C0410A60416B0968426B7A
:100DC000526841EA0211426B926841EA0221426B89
:100DD000928941EA0241426B128A41EA0251426B16
:100DE000127D41EA0261426B926911430268521C12
:100DF0009200A2F1C0421160C16AB1F5804F1BD1CF
:100E0000816B0968826B526841EA0211826B9268B9
:100E100041EA0221826B128A41EA0251826B127D01
:100E200041EA0261826B9269114302689200A2F169
:100E3000C042C2F8041107E06FF0704201688900F7
:100E4000A1F1C041C1F804217047000030B5002273
:100E50008B071C0F0F2303FA04F20B4B8C1053F873
:100E600024309343084C8D1044F8253023468C10D1
:100E700053F824308C07240F00FA04F42343024C67
:100E80008D1044F8253030BD080001402DE9F041B7
:100E9000024600250026002000230024002791F8A8
:100EA00003C00CF00F0591F803C00CF0100CBCF15E
:100EB000000F03D091F802C04CEA050591F800C07C
:100EC000BCF1000F31D0146800202BE04FF0010C72
:100ED0000CFA00F3B1F800C00CEA03069E4220D1E0
:100EE00083004FF00F0C0CFA03F7BC4305FA03FC28
:100EF0004CEA040491F803C0BCF1280F06D14FF06E
:100F0000010C0CFA00FCC2F814C00AE091F803C00E
:100F1000BCF1480F05D14FF0010C0CFA00FCC2F8EF
:100F200010C0401C0828D1D31460B1F800C0BCF137
:100F3000FF0F34DD546800202EE000F1080C4FF064
:100F4000010808FA0CF3B1F800C00CEA03069E424F
:100F500021D183004FF00F0C0CFA03F7BC4305FAC4
:100F600003FC4CEA040491F803C0BCF1280F05D13E
:100F700000F1080C08FA0CF8C2F8148091F803C0CC
:100F8000BCF1480F07D100F1080C4FF0010808FA36
:100F90000CF8C2F81080401C0828CED35460BDE87D
:100FA000F0810246002093680B400BB1012000E065
:100FB00000207047416170470161704700BFFEE744
:100FC00010B504462CB14FF480510548FFF7F2FFED
:100FD00004E04FF480510248FFF7EEFF10BD00001F
:100FE000001401402DE9F04106460F4614461D4607
:100FF0002B4622463946304600F02CFA04FB05F019
:101000000249098800F0C5F8BDE8F0810E01002012
:1010100001B502E00098401E009000980028F9D128
:1010200008BD00002DE9F04F804689461646A6F11E
:1010300020001FFA80FA1E49096889881C4A126834
:10104000D28801FB02F0C11700EB5171C1F3C70751
:101050001748006800680AFB070B15480068C3883A
:101060001348006882884946404600F0F3F92C2076
:1010700000F090FC002416E0002510E01BF80400AE
:1010800080212941084020B10A48008800F086FCF0
:1010900003E00948008800F081FC681CC5B2082DF7
:1010A000ECDB601CC4B2BC42E6DBBDE8F08F0000A4
:1010B000080100200C0100200E01002070B504463C
:1010C0000D46002624E03046134909688988084403
:1010D00012490988884205DD00260F480068C0884B
:1010E000204484B220460C490968C98808440C4948
:1010F0000988884201DD002600242A7821463046EE
:10110000FFF790FF6D1C044800688088304486B269
:1011100028780028D7D170BD0801002000010020E8
:101120000201002000B597B03C2108A8FFF781F824
:101130001C2101A8FFF77DF80121080200F03AFF09
:101140000120019004200390800607900020029067
:101150000490059006900890099008200A901020AD
:101160000B9000200C900E900F9010904FF4805038
:101170001190002012901390149001A815901690D1
:1011800008A8FFF7EFFD01210020FFF7D1FD17B000
:1011900000BD10B502460B4600242C2000F0FAFBDF
:1011A00000BF03E0184600F0F9FB641C9442F9D339
:1011B00010BD000008B50121602000F00BFF0320E6
:1011C0008DF8020018208DF803004FF48040ADF830
:1011D000000069465B48FFF759FE4FF40040ADF848
:1011E000000069465748FFF751FE0120ADF80000A6
:1011F00069465448FFF74AFE0220ADF800006946F0
:101200005048FFF743FE8020ADF8000069464E4885
:10121000FFF73CFE4FF48070ADF8000069464A4885
:10122000FFF734FE4FF40070ADF800006946464801
:10123000FFF72CFE4FF48060ADF80000694642488D
:10124000FFF724FE4FF40060ADF8000069463E4809
:10125000FFF71CFE4FF48050ADF8000069463A4895
:10126000FFF714FE4FF40050ADF800006946364811
:10127000FFF70CFE4FF48040ADF80000694632489D
:10128000FFF704FE4FF40040ADF8000069462E4819
:10129000FFF7FCFD4FF48070ADF800006946294867
:1012A000FFF7F4FD4FF40070ADF8000069462548E3
:1012B000FFF7ECFD4FF48060ADF80000694621486F
:1012C000FFF7E4FD03208DF8020018208DF80300DD
:1012D0001020ADF8000069461A48FFF7D7FD20201E
:1012E000ADF8000069461748FFF7D0FD8020ADF843
:1012F000000069461348FFF7C9FD4FF40060ADF8E0
:10130000000069460F48FFF7C1FD10208DF803006B
:1013100003208DF802000220ADF8000069460A485B
:10132000FFF7B4FD10208DF8030003208DF80200B4
:101330004FF48050ADF8000069460248FFF7A6FD63
:1013400008BD0000001401400018014000B502462D
:10135000072A00DD00BD31480270104602EBD07153
:101360004910A2EB410139B9F0202D4908804FF412
:10137000A0702C49088006E04FF4A070284908802E
:10138000F02028490880362000F004FB2648008819
:1013900049F24131884205D1082141EA421000F06A
:1013A000FDFA0AE02048008848F25251884204D1F0
:1013B000002141EA421000F0F1FA2A2000F0EAFA96
:1013C000002000F0EBFA002000F0E8FA1449098848
:1013D000491EC1F3072000F0E1FA11490978491EBE
:1013E000C8B200F0DBFA2B2000F0D4FA002000F0A5
:1013F000D5FA002000F0D2FA0A490988491EC1F343
:10140000072000F0CBFA07490978491EC8B200F05E
:10141000C5FA2C2000F0BEFA00BF9BE704010020B3
:1014200000010020020100200601002010B5FFF796
:10143000C1FEFFF777FE0120FFF7C2FD00F096FA2C
:1014400000F034F802480078FFF780FF10BD00007C
:101450000401002030B504460D462A2000F09AFA17
:10146000201200F09BFAE0B200F098FAA118491E91
:10147000C1F30F2000F092FAA118491EC8B200F083
:101480008DFA2B2000F086FA281200F087FAE8B2D5
:1014900000F084FAE918491EC1F30F2000F07EFA2B
:1014A000E918491EC8B200F079FA30BD10B500F055
:1014B00025FAFE4908800846008849F241318842F1
:1014C0007ED1CF2000F066FA002000F067FA81207C
:1014D00000F064FA302000F061FAED2000F05AFAD2
:1014E000642000F05BFA032000F058FA122000F0AC
:1014F00055FA812000F052FAE82000F04BFA8520DE
:1015000000F04CFA102000F049FA782000F046FA7A
:10151000CB2000F03FFA392000F040FA2C2000F0F8
:101520003DFA002000F03AFA342000F037FA0220A9
:1015300000F034FAF72000F02DFA202000F02EFA07
:10154000EA2000F027FA002000F028FA002000F03E
:1015500025FAB12000F01EFA002000F01FFA1B202F
:1015600000F01CFAB62000F015FA0A2000F016FA76
:10157000A22000F013FAC02000F00CFA352000F091
:101580000DFAC12000F006FA112000F007FAC5207C
:1015900000F000FA452000F001FA452000F0FEF9C5
:1015A000C72000F0F7F9A22000F0F8F9F22000F0CF
:1015B000F1F9002000F0F2F9262000F0EBF900E04C
:1015C00096E0012000F0EAF9E02000F0E3F90F20B6
:1015D00000F0E4F9262000F0E1F9242000F0DEF923
:1015E0000B2000F0DBF90E2000F0D8F9092000F004
:1015F000D5F9542000F0D2F9A82000F0CFF9462008
:1016000000F0CCF90C2000F0C9F9172000F0C6F961
:10161000092000F0C3F90F2000F0C0F9072000F006
:10162000BDF9002000F0BAF9E12000F0B3F9002084
:1016300000F0B4F9192000F0B1F91B2000F0AEF968
:10164000042000F0ABF9102000F0A8F9072000F00A
:10165000A5F92A2000F0A2F9472000F09FF93920CF
:1016600000F09CF9032000F099F9062000F096F9AB
:10167000062000F093F9302000F090F9382000F0B7
:101680008DF90F2000F08AF9362000F083F9C82088
:1016900000F084F92A2000F07DF9002000F07EF9A6
:1016A000002000F07BF9002000F078F9EF2000F036
:1016B00075F92B2000F06EF9002000F06FF9002082
:1016C00000F06CF9012000F069F93F2000F066F9A4
:1016D0003A2000F05FF9552000F060F9112000F089
:1016E00059F97348FFF794FC292000F053F901E100
:1016F0006E48008848F252518842F8D1CF2000F05D
:1017000049F9002000F04AF9C12000F047F93020E3
:1017100000F044F9ED2000F03DF9642000F03EF9BE
:10172000032000F03BF9122000F038F9812000F08E
:1017300035F9E82000F02EF9852000F02FF910206F
:1017400000F02CF9782000F029F9CB2000F022F9E4
:10175000392000F023F92C2000F020F9002000F0BF
:101760001DF9342000F01AF9022000F017F9F720D3
:1017700000F010F9202000F011F9EA2000F00AF939
:10178000002000F00BF9002000F008F9C02000F064
:1017900001F9212000F002F9C12000F0FBF811202E
:1017A00000F0FCF8C52000F0F5F82D2000F0F6F868
:1017B000332000F0F3F8362000F0ECF8002000F0C1
:1017C000EDF83A2000F0E6F8552000F0E7F8B120F7
:1017D00000F0E0F8002000F0E1F8172000F0DEF85B
:1017E000B62000F0D7F80A2000F0D8F8A22000F0C8
:1017F000D5F8F62000F0CEF8012000F0CFF8302028
:1018000000F0CCF8F22000F0C5F8002000F0C6F897
:10181000262000F0BFF8012000F0C0F8E02000F022
:10182000B9F8D02000F0BAF8002000F0B7F8022094
:1018300000F0B4F8072000F0B1F80B2000F0AEF88B
:101840001A2000F0ABF8312000F0A8F8542000F086
:10185000A5F8402000F0A2F8292000F09FF81220FF
:1018600000F09CF8122000F099F8122000F096F891
:10187000172000F093F8E12000F08CF8D02000F061
:101880008DF8002000F08AF8022000F087F8072089
:1018900000F084F8052000F081F8252000F07EF8A3
:1018A0002D2000F07BF8442004E000000601002019
:1018B000FCBF020000F072F8452000F06FF81C2019
:1018C00000F06CF8182000F069F8162000F066F8B7
:1018D0001C2000F063F81D2000F060F8112000F0DB
:1018E00059F80548FFF794FB292000F053F82C2005
:1018F00000F050F810BD0000FCBF020000B500224F
:10190000042000F047F800F02BF800F029F800F070
:1019100027F802464FF6FF7000EA022200F020F896
:10192000024348F25250824201D1104600BDD320FA
:1019300000F030F800F014F800F012F800F010F8A1
:1019400002464FF6FF7000EA022200F009F8024357
:1019500049F24130824201D11046E7E70020E5E735
:1019600001480088704700000000026010B50221A5
:101970000748FFF71FFB40F6FF20FFF749FB022156
:101980000348FFF719FB40F6FF20FFF741FB10BDAE
:10199000001801404FF0C04108807047014908809D
:1019A0007047000000000260ADF5985D00BF00BF09
:1019B00000BF00BF01200DF58051C1F8FC0200BF3F
:1019C00000235A1E20492148006803F027FA1E48C8
:1019D0000078012818D100BF4FF4F0501C490322B1
:1019E000F023CDE90132CDE903104FF4A0700223BA
:1019F00000221849009007A801F0A4FD0028EBD0B0
:101A000007A801F09FFE14E00F480078012807DDC9
:101A10000D4800781E2803DC07A801F093FE08E0BB
:101A20000948007828B907A801F08CFE07A801F042
:101A30004BFD00235A1E41F2FC2169440648006810
:101A400003F030FBBCE70000320100204000002022
:101A500098010020C52C00084400002008B5012191
:101A6000142000F0B7FA0120ADF8000004208DF832
:101A7000030069460748FFF709FA4FF40050ADF834
:101A8000000004208DF8030069460348FFF7FEF9C3
:101A900008BD000000080140001001400148006836
:101AA0007047000008010020024A1080024A11809D
:101AB000704700000C0100200E0100200149086061
:101AC000704700000801002008B50121082000F03F
:101AD00081FA2020ADF8000010208DF803000320CB
:101AE0008DF8020069460F48FFF7D0F90120ADF8E4
:101AF000000069460B48FFF7C9F90220ADF8000065
:101B000069460848FFF7C2F920210648FFF754FA52
:101B100001210448FFF750FA02210248FFF74CFA6E
:101B200008BD0000000C014000BFFEE77047000048
:101B300070B5002100230F22C47804B3154C24682B
:101B400004F4E064C4F5E064210AC1F10403CA406E
:101B5000447804FA03F184781440214309010E4CBF
:101B60000678A155047804F01F050124AC400578DF
:101B70006D11AD0005F1E025C5F8004109E00478DC
:101B800004F01F050124AC40044D0678761145F899
:101B9000264070BD0CED00E000E400E080E100E0D4
:101BA00002490143024A1160704700000000FA0533
:101BB0000CED00E070B50646301D092821D2DFE8A3
:101BC00000F01D1A1714110E0B08050048240625F5
:101BD0001AE03824062517E02824062514E01824E6
:101BE000062511E0082406250EE008240E250BE04A
:101BF00018240E2508E028240E2505E038240E259B
:101C000002E000BF00BF00BF00BF21469B2000F0E4
:101C1000B3FB2946AB2000F0AFFB70BD10B5044606
:101C200014F1040F0EDB042C0CDC201D0007010E48
:101C3000A72000F0A1FB201D0007010EA82000F046
:101C40009BFB01E000BF00BF10BD10B5044614F1BE
:101C5000040F0BDB042C09DCC4F104003022A2EBDE
:101C60008000C1B29C2000F087FB01E000BF00BFF4
:101C700010BD10B500F044FAFEF762FE00F07AFDE8
:101C800010BD000038B500240020009080211220F3
:101C900000F072FB08B9002038BD0B220121684614
:101CA00000F06AFA08B90020F6E79DF80000212844
:101CB00014D100240DE00B4A02EB44025178094A8A
:101CC00012F8140000F058FB08B90020E4E7601C8B
:101CD00084B2054800788442EDDB01E00020DBE7B8
:101CE0000120D9E764000020FE00002010B5044662
:101CF000062C79D2DFE804F003142D465F79FF212A
:101D0000132000F039FB65210E2000F035FB002187
:101D10002D2000F031FB00212E2000F02DFB70E083
:101D2000FD21132000F028FB5A21012000F024FBA4
:101D30005C21022000F020FB65210E2000F01CFB3E
:101D400000212D2000F018FB00212E2000F014FBB4
:101D500057E0FD21132000F00FFB5821012000F077
:101D60000BFB6021022000F007FB65210E2000F034
:101D700003FB00212D2000F0FFFA00212E2000F0AF
:101D8000FBFA3EE0FD21132000F0F6FA8421012049
:101D900000F0F2FA4C21022000F0EEFA65210E204C
:101DA00000F0EAFA00212D2000F0E6FA00212E20B2
:101DB00000F0E2FA25E0FD21132000F0DDFA962183
:101DC000012000F0D9FA4021022000F0D5FA652167
:101DD0000E2000F0D1FA00212D2000F0CDFA0021D4
:101DE0002E2000F0C9FA0CE008E0FF21132000F0DB
:101DF000C3FAE5210E2000F0BFFA02E000BF00BFE9
:101E000000BF00BF10BD10B50446072C58D2DFE854
:101E100004F004111E2B384552000621A62000F0C4
:101E2000ABFA8021602000F0A7FA8021612000F049
:101E3000A3FA48E02621A62000F09EFA8021602027
:101E400000F09AFA8021612000F096FA3BE01E2112
:101E5000A62000F091FAA021602000F08DFA402128
:101E6000612000F089FA2EE01E21A62000F084FAFD
:101E70004021602000F080FAA021612000F07CFA6F
:101E800021E01E21A62000F077FA8021602000F0DA
:101E900073FAC021612000F06FFA14E01E21A62021
:101EA00000F06AFA6021084600F066FA60216120BD
:101EB00000F062FA07E04621A62000F05DFA02E099
:101EC00000BF00BF00BF00BF10BD2DE9F8430646AC
:101ED0000F4614461D46DDF82080B8F1000F04D1EE
:101EE0004621122000F048FA03E00621122000F0FB
:101EF00043FA17220121684600F03EF99DF80000E0
:101F000000EBA60000F0FF094946172000F034FA64
:101F1000C4F38701182000F02FFA19220121684626
:101F200000F02AF99DF8000000EB670000F0FF09BF
:101F30004946192000F020FAC5F347011A2000F0A5
:101F40001BFA32220121684600F016F904F0030062
:101F50009DF80010084305F0010140EA810006F0F9
:101F6000030140EA011007F0010140EA81194946E6
:101F7000322000F001FAC4F38701292000F0FCF9B7
:101F8000C5F347012C2000F0F7F92A220121684609
:101F900000F0F2F804F003009DF80010084305F08B
:101FA000010140EA810949462A2000F0E5F9BDE82F
:101FB000F883000029B1064A52690243044B5A6172
:101FC00004E0034A52698243014B5A6170470000A2
:101FD0000010024029B1064A92690243044B9A61FB
:101FE00004E0034A92698243014B9A617047000002
:101FF0000010024030B500210022002400232D4DA6
:102000006D6805F00C0121B1042905D0082923D100
:1020100005E0294D056022E0274D05601FE0254DB4
:102020006D6805F47012234D6D6805F48034022547
:1020300005EB92421CB9214D554305600BE01D4D47
:102040006D6805F400351DB11C4D5543056002E077
:10205000194D5543056002E0174D056000BF00BFF4
:10206000144D6D6805F0F0010909154D6B5C0568AC
:10207000DD4045600F4D6D6805F4E061090A104DC3
:102080006B5C4568DD4085600A4D6D6805F4605104
:10209000C90A0B4D6B5C4568DD40C560054D6D6838
:1020A00005F44041890B074D6B5CC568B5FBF3F542
:1020B000056130BD0010024000127A0000093D00A9
:1020C000140000202400002010B540210B48FEF72A
:1020D00071FF00F071F980210848FEF76BFF00F0F6
:1020E0006BF940210548FEF767FF00F065F94021D4
:1020F0000248FEF75FFF00F05FF910BD00100140DD
:1021000008B501211020FFF765FF4020ADF8000061
:1021100003208DF8020014208DF80300694607485B
:10212000FEF7B4FE01211020FFF754FF8020ADF828
:10213000000069460148FEF7A9FE08BD00100140F5
:1021400010B540210B48FEF735FF00F035F980212E
:102150000848FEF731FF00F02FF940210548FEF74F
:102160002BFF00F029F940210248FEF723FF00F081
:1021700023F910BD0010014070B505460C46164607
:1021800000F08EF808B9002070BD422000F05CF825
:1021900000F0CCF818B900F0ADF80020F4E73046B4
:1021A00000F052F800F0C2F800F0A4F800F078F85F
:1021B00008B90020E8E7432000F046F800F0B6F840
:1021C00018B900F097F80020DEE70CE000F012F8F4
:1021D0002870012C02D1FFF7B3FF01E0FFF774FF75
:1021E0006D1C601E84B2002CF0D100F083F8012039
:1021F000CAE7000070B50825002480211148FEF7C9
:10220000DBFE14E06006040E40210E48FEF7D2FE0D
:1022100000F0D2F840210B48FEF7CEFE00F0CCF8DB
:1022200080210848FEF7BDFE08B144F00104281ED5
:10223000A5F10101CDB2E5D140210248FEF7BAFE79
:10224000204670BD0010014070B5044608251BE013
:1022500040211248FEF7AEFE00F0AEF804F0800018
:1022600020B180210D48FEF7A7FE03E080210B4836
:10227000FEF7A0FE6006040E00F09EF8402107481D
:10228000FEF79AFE00F098F8281EA5F10101CDB2E4
:10229000DED140210148FEF78DFE70BD00100140E7
:1022A00010B580211248FEF787FE40211048FEF746
:1022B00083FE00F081F880210D48FEF772FE08B918
:1022C000002010BD80210A48FEF774FE00F074F86B
:1022D00080210748FEF765FE08B10020F1E7802164
:1022E0000348FEF767FE00F067F80120E9E7000009
:1022F0000010014010B540210B48FEF75BFE00F0D6
:102300005BF880210848FEF755FE00F055F84021A3
:102310000548FEF751FE00F04FF880210248FEF715
:102320004BFE00F049F810BD0010014010B54021EF
:102330001048FEF73FFE00F03FF880210D48FEF701
:102340003BFE00F039F840210A48FEF735FE00F068
:1023500033F880210748FEF724FE28B140210548C4
:10236000FEF728FE002010BD40210248FEF722FEA5
:102370000120F8E70010014070B504460D46FFF754
:102380008FFF08B9002070BD4220FFF75DFFFFF707
:10239000CDFF18B9FFF7AEFF0020F4E7E0B2FFF77A
:1023A00053FFFFF7C3FF2846FFF74EFFFFF7BEFFBF
:1023B000FFF7A0FF0120E6E74FF4C87001E0411EDF
:1023C00088B20028FBD1704710B500F001F810BDAD
:1023D0000CB50020019000903348006840F4803034
:1023E0003149086000BF3048006800F400300090B8
:1023F0000198401C0190009818B90198B0F5A06FA1
:10240000F1D12948006800F4003010B1012000909B
:1024100001E0002000900098012843D12348006883
:1024200040F01000214908600846006820F00300D1
:1024300008600846006840F0020008601A484068DA
:10244000194948600846406848600846406840F4BA
:10245000806048600846406820F47C104860084668
:10246000406840F4E81048600846006840F080701A
:10247000086000BF0C48006800F000700028F9D028
:102480000948406820F00300074948600846406852
:1024900040F00200486000BF0348406800F00C00B4
:1024A0000828F9D10CBD00000010024000200240B5
:1024B00010B502F0C9FF012801D002F057FC10BD91
:1024C00010B51348006840F0010011490860084643
:1024D0004068104908400E494860084600680E49A7
:1024E00008400B4908600846006820F48020086016
:1024F0000846406820F4FE0048604FF41F008860E2
:10250000FFF762FF4FF000600449086010BD000053
:10251000001002400000FFF8FFFFF6FE08ED00E0AB
:1025200000B58DB001210846FFF744FD1B48FEF7BA
:102530004FF81B48006805901020049000200C9074
:1025400018480390002009908020079000200A90EE
:10255000154802900020089006904FF400500B9010
:1025600002A90E48FEF7F9F84FF47040FEF708F89C
:10257000012202210948FEF7E7F80E208DF8040039
:1025800006208DF8050000208DF8060001208DF84A
:10259000070001A8FFF7CCFA0DB000BD44000240CF
:1025A00028010020981F00200438014001F4007227
:1025B000B2F5007F00D100BFCA430280704721B14D
:1025C000828942F40052828104E082894DF6FF73D1
:1025D0001A4082817047000000B585B001210420B7
:1025E000FFF7F8FC01218803FFF7F4FC4FF40070BB
:1025F000ADF8100018208DF8130003208DF812009C
:1026000004A91648FEF742FC4FF48060ADF81000B4
:1026100004208DF8130004A91048FEF737FC4FF48E
:10262000612000900020ADF80400ADF80600ADF880
:102630000800ADF80C000C20ADF80A006946084807
:1026400000F026F801210648FFF7B9FF012280219A
:10265000034800F007F805B000BD00000008014085
:10266000003801401AB1838A0B43838202E0838AD7
:102670008B438382704702460020B1F5007F00D172
:1026800000BF13880B400BB1012000E00020704711
:102690002DE9F04786B005460E460024A24600BF4D
:1026A000A1460027B08900B100BF2F462C8A4CF606
:1026B000FF700440F08804432C82AC894EF6F3107E
:1026C0000440B08831890843718908430443AC81D0
:1026D000AC8A4FF6FF400440B0890443AC8201A8A5
:1026E000FFF788FC1F48874202D1DDF810A001E007
:1026F000DDF80CA0A88900F4004040B10AEBCA0044
:1027000000EB0A1031684900B0FBF1F807E00AEB72
:10271000CA0000EB0A1031688900B0FBF1F86420B0
:10272000B8FBF0F004012009642101FB1089A8899D
:1027300000F4004040B1322000EBC900B0FBF1F0E2
:1027400000F00700044308E0322000EB0910642188
:10275000B0FBF1F000F00F0004432C8106B0BDE89F
:10276000F087000000380140C1F308028280704702
:1027700000BFFEE71FB501214120FFF72BFC082019
:10278000ADF80C0004208DF80F0003208DF80E002A
:1027900003A91648FEF77AFB03210220FEF756FB39
:1027A0000820019000208DF808000C208DF8090009
:1027B00001208DF80A0001A8FEF778F80820FEF73E
:1027C00059F84FF44070FFF7EBF909208DF800003D
:1027D00001208DF8010000208DF8020001208DF805
:1027E00003006846FFF7A4F91FBD00000010014078
:1027F0000FB4054B10B503A9044A029800F018F86D
:1028000010BC5DF814FB0000252C0008940100208A
:1028100002E008C8121F08C1002AFAD170477047A9
:10282000002001E001C1121F002AFBD17047000007
:102830002DE9FF4F8BB09A460F460546002606E06D
:1028400025280BD052460D9990476D1C761C287890
:102850000028F5D10FB03046BDE8F08F0024A04627
:102860000122604900E0044315F8013F203B02FAD1
:1028700003F00842F7D128782E2817D115F8010F58
:1028800044F004042A280ED06FF02F022878A0F11B
:10289000300109290AD808EB880102EB410100EB5D
:1028A00001086D1CF2E757F8048B6D1C2878692825
:1028B0003ED006DC0028CDD063280BD0642804D19C
:1028C00036E0732810D075284BD052460D999047AA
:1028D000761C85E017F8040B8DF8000000208DF8B9
:1028E0000100E946012003E057F8049B4FF0FF3058
:1028F00061074FF0000401D40AE0641C44450DDA7E
:102900008442FADB19F804100029F6D106E0641CB1
:102910008442FCDB19F804100029F8D1264404E0B5
:1029200019F8010B52460D999047641EF8D257E0F2
:1029300001CF4FF00A0B002802DA40422D2102E0BD
:10294000210504D52B218DF82410012103E0E10796
:1029500005D02021F7E70DF1200908910CE00021B6
:10296000F9E701CF4FF00A0BF9E75946FDF752FDA1
:1029700001F1300209F8012D0028F6D1ADEB090074
:1029800000F1200B600701D44FF00108D84502DDAB
:10299000A8EB0B0000E000208046002406E009A818
:1029A0005246005D0D999047641C761C089884423D
:1029B000F5DB04E0302052460D999047761CB8F1C3
:1029C0000001A8F10108F5DC05E019F8010B5246F9
:1029D0000D999047761CBBF10001ABF1010BF4DCC3
:1029E0006D1C34E70928010038B50024FEF71EFDF0
:1029F0000320FEF7ABFC3C48FFF760F800214FF4E2
:102A00007840FFF751F83948038839480288002197
:102A10000846FEF7E7FAFFF741F8002535A12846FA
:102A2000FEF74CFBFFF7D8FDFFF74EF8FFF716F85F
:102A300035A0FFF7DDFEFFF71CF9FFF771FD202041
:102A40003B490860012008600220091D086011E070
:102A5000601CC4B2052C0DDD36A0FFF7C9FEFFF7E0
:102A60001DF8C0884004050C39A12846FEF726FB56
:102A700000BFFEE7FFF706F90128E9D13B49C87C12
:102A8000FFF7C1F93949C87BFFF730F9374991F9A8
:102A90001000FFF7C3F8354991F91100FFF78AF8E4
:102AA000324991F91200FFF7D0F83049C87CFFF79E
:102AB000AAF92E4800782D4D00902B89EA88A98824
:102AC0006888FFF702FA2946887BFEF73FFCFEF78D
:102AD000E5FFC0884004050C25A12846FEF7EEFA64
:102AE0002AA0FFF785FE38BD10010020020100205A
:102AF000000100204248204F5637373235205465B8
:102B000073742044656D6F000D0A202A2A204F56E9
:102B100037373235C9E3CFF1CDB7CAB5CAB1D2BA6A
:102B2000BEA7CFD4CABEC0FDB3CC2A2A200D0A004E
:102B3000100C01400D0AC3BBD3D0BCECB2E2B5BD52
:102B40004F5637373235C9E3CFF1CDB70D0A000004
:102B50004E6F204F5637373235206D6F64756C6578
:102B60002064657465637465642100005000002072
:102B70004F563737323520696E697469616C697AEE
:102B80006520737563636573732100000D0A4F56EA
:102B900037373235C9E3CFF1CDB7B3F5CABCBBAFD8
:102BA000CDEAB3C90D0A00002DE9F041C0F3C751C9
:102BB000A1F17F050446172DA8BFBDE8F0814FF0B5
:102BC0007F471549002D0FDAFDF73EFBB7EB400FAD
:102BD0001FD300281DDD002CA8BF002419DAB4F192
:102BE000004F18BF0D4C14E00D4A22FA05F634428E
:102BF00008BFBDE8F081FDF727FBB7EB400F08D316
:102C0000002806DD002C03DA4FF40000E8400444FD
:102C1000B4432046BDE8F081CAF24971000080BF8C
:102C2000FFFF7F0070B504460D46E1B20548FFF78F
:102C30009BFD00BF80210348FFF71DFD0028F9D050
:102C4000204670BD003801401CB50124FFF7CCFEC2
:102C50001248042100230A02CDE9001010A11548F2
:102C600002F0C2FB044600201349087000BF042094
:102C700012490860202012494861086104200F4968
:102C8000091F086020200E494861086100BF012C1F
:102C900001D101F0D1FE00BFFEE7000028000020B6
:102CA0004170705461736B4372656174655F546108
:102CB000736B0000D94B0008FF000020140801408E
:102CC0000010014070B506460D46144609480068DC
:102CD0002044B0F5706F0CD80749064A126888186E
:102CE00022462946FDF78CFA024800682044014933
:102CF000086070BD28010020981F00202DE9F041D8
:102D000005460E461C4807681C480068001D01F077
:102D10007DFB50B91948006890F82C1001208840BC
:102D200017490968814316480160681C38B936B1F3
:102D300012480168091D134801F0C2FB1AE07C1912
:102D40000E4800684460BC4207D20C480168091D67
:102D50000D48006801F09AFB0CE008480168091D65
:102D60000A48006801F092FB09480068844201D2D9
:102D700007480460BDE8F0814801002034010020CC
:102D80004C010020683100203C0100203801002067
:102D90006401002010B5044601F09EFB2348006842
:102DA000401C224908602248006840B9204804605D
:102DB0000846006801280DD100F0A6F90AE01D4878
:102DC000006838B91A480068C06AE16A884201D8C8
:102DD0001748046018480068401C1749086094F8B8
:102DE0002C100120884015490968084313490860E0
:102DF000E16A01EB8101124A02EB8100211D01F021
:102E00005FFB01F0ABFB0B48006868B10848006845
:102E1000C06AE16A884207D24FF0805009490860D1
:102E2000BFF34F8FBFF36F8F10BD00004401002030
:102E30003401002050010020600100204C010020DE
:102E4000982E002004ED00E070B523E001F04AFE6A
:102E50001348006808B9012000E00020054602F090
:102E600085FCBDB901F038FB0D48C068C468201D61
:102E700001F0CCFA0B480068401E0A4908600A4875
:102E80000068401E0849086001F068FB204600F019
:102E900060F800BF044800680028D7D170BD00006A
:102EA00054310020440100204001002070B5044648
:102EB0000D46206C70B1216CE0680844E0606168E8
:102EC000E068884201D32068E0602846226CE1680F
:102ED000FDF796F970BD2DE9F04104460F46154601
:102EE0004FF00008A66B206C40B9206860BB60689A
:102EF00002F06EFB80460020606025E07DB9394617
:102F0000226CA068FDF77CF9216CA0680844A060E1
:102F1000D4E90110884217D32068A06014E0394634
:102F2000226CE068FDF76CF9216CE068401AE06003
:102F30002168E068884203D2216C6068401AE06032
:102F4000022D01D106B1761E701CA0634046BDE87B
:102F5000F08110B50446206B01F036FB204601F0ED
:102F600033FB10BD30B54FF41043174800F0070491
:102F70002CB1C01D20F00700134C041B1B1B024684
:102F8000124C22600024114D6C60D018083820F0DB
:102F900007000F4C206000240D4D2D686C600C4D17
:102FA0002D682C601146441A4C60094C24680C6052
:102FB000084D4C682C60084D4C682C604FF0004464
:102FC000064D2C6030BD00007C31002070010020D7
:102FD00078010020800100207C0100208401002075
:102FE00000BFFFF731FF064800680128F9D94FF00C
:102FF000805004490860BFF34F8FBFF36F8FF0E735
:10300000982E002004ED00E02DE9F04106460D4623
:1030100017469846069C0DB9246000E02760E663D9
:1030200025640121204601F0E1FFBDE8F0810000A8
:103030002DE9F05F82460F4690469B460A9E0C9C07
:103040004FEA8801A522206BFDF7ECF8A8F10100FA
:10305000216B01EB800929F0070909F0070008B985
:10306000012000E0002028B940F22B321BA122A051
:10307000FFF7BEFB002507E0795D04F13400415500
:10308000785D00B902E06D1C102DF5D300BF002162
:1030900043200155202E00D31F26E66266640020DF
:1030A000A064201D01F0EFF904F1180001F0EBF924
:1030B0002461C6F12000A06164620020E06484F80D
:1030C00050005A465146484600F0ECF920600B98F3
:1030D00008B10B980460BDE8F09F00002E2E5C2E16
:1030E0002E5C4672656552544F535C7372635C7418
:1030F00061736B732E6300004572726F723A2573B1
:103100002C25640D0A00000010B5002407E004EB34
:1031100084010F4A02EB810001F0A8F9641C202C05
:10312000F5D30C4801F0A2F90B4801F09FF90B48C8
:1031300001F09CF90A4801F099F90A4801F096F962
:1031400004480949086004480849086010BD0000A7
:10315000982E0020183100202C3100204031002012
:103160005431002068310020380100203C0100204B
:1031700010B50146164800E0006803688B42FBD397
:103180000246436813448B4204D143684C6823448D
:10319000436001460A464B6813440468A34211D1B8
:1031A0000C4C03682468A34208D04B680468646828
:1031B00023444B6003681B680B6005E0054B1B68EC
:1031C0000B6001E003680B60884200D0016010BD15
:1031D000700100207801002070B5054601F07CF9EF
:1031E000A86B08B9012400E0002401F0B7F92046DB
:1031F00070BD70B5054601F06FF9A86BE96B8842A8
:1032000001D1012400E0002401F0A8F9204670BD9E
:103210000A490968096809B9012100E0002121B1C2
:103220004FF0FF31064A116006E004490968C96899
:10323000C868034A416811607047000038010020E7
:10324000640100200B480068401C08B9012000E020
:10325000002020B9F42208A111A0FFF7C9FA00BF8D
:10326000502080F31188BFF34F8FBFF36F8F00BFE3
:1032700000BFFEE7880100202E2E5C2E2E5C4672D9
:10328000656552544F535C706F72745C5256445370
:103290005C41524D5F434D335C706F72742E63001E
:1032A0004572726F723A25732C25640D0A00000076
:1032B00070B5044601F010F994F9455010E0606AC9
:1032C00008B9012000E0002038B904F1240002F020
:1032D000EFF918B101F0FAFA00E003E0681E45B218
:1032E000002DECDC00BFFF2084F8450001F036F92A
:1032F00001F0F2F894F9445010E0206908B9012077
:1033000000E0002048B904F1100002F0D1F908B142
:1033100001F0DCFA681E45B200E001E0002DECDCB3
:1033200000BFFF2084F8440001F018F970BD0000D0
:103330002DE9F04104464FF0000801F0D3FB3E4870
:10334000006808B9FFF70EFE3C48006820400028DE
:103350005FD1A4B1083404F0070080B104F0070085
:10336000C0F10800044404F0070008B9012000E09F
:10337000002020B9BF2232A13BA0FFF739FA002C70
:1033800047D03D480068844243D83C4E30460568EB
:1033900001E02E462D686868A04202D22868002805
:1033A000F7D125480068854233D0306800F108081D
:1033B000286830606868001B102813D92F1907F09F
:1033C000070008B9012000E0002020B9EC221CA170
:1033D00025A0FFF70DFA6868001B78606C6038461E
:1033E000FFF7C6FE244968680968081A2249086080
:1033F0000846006822490968884203D21E480068CE
:103400001F4908600D496868096808436860002022
:10341000286002F0ABF908F0070008B9012000E0CD
:10342000002028B94FF4967205A10FA0FFF7E0F92C
:103430004046BDE8F08100007801002084010020B2
:103440002E2E5C2E2E5C4672656552544F535C7076
:103450006F72745C4D656D4D616E675C686561701F
:103460005F342E63000000004572726F723A25735C
:103470002C25640D0A0000007C0100207001002052
:10348000800100200648006830B10549096801F153
:103490004800896C491C01600148006870470000C1
:1034A00034010020001F4FF080730360001F21F0E3
:1034B00001030360001F034B0360143802602038CF
:1034C00070470000453200081CB5044641F2DC009C
:1034D000005908B900201CBD41F2D8000059A0B124
:1034E00041F2D800005908280FD20020009041F284
:1034F000D8000059C0F1080083B241F2D800221868
:10350000001F2118204600F041FE4FF6D97000F050
:1035100041FA01900123022201A9204600F08EFD0C
:10352000D4F8AC0C60B140F6A8410B5904F54B61DE
:10353000D4F8AC2CD4F8A40C98470020C4F8AC0CF8
:103540000120C8E72DE9FF4F87B004468A461E4692
:10355000DDF85080169F012E01DB032E03DD0020D5
:103560000BB0BDE8F08F032F03D0042F01D0002053
:10357000F6E74FEAC800784306901899069881420A
:1035800001DA0020ECE74FF497512046FCF751FE9A
:103590004FF00109012E12D0022E0DD0032E30D192
:1035A000002006E0012204F624410A5440310A5466
:1035B000401C4028F6DB26E04FF00A0900BF00203F
:1035C0001CE05C49095C91FBF9F1CAB204F62441A4
:1035D0000A54095C19B9012204F624410A545649D7
:1035E000095C91FBF9F1CAB204F664410A54095C22
:1035F00019B9012204F664410A54401C4028E0DB5A
:1036000001E00020ACE700BFC4F8A8AC0998C4F8FA
:10361000A40C204600F026FC41F2B00040F80480E3
:1036200041F2B40115980851081D075141F2BC013F
:1036300017980851091D18980851002141F2C4003B
:10364000015141F2D0000151001F0151001F0151F1
:1036500041F2D4000151001D0151001D015100250E
:103660005AE04FF0000B53E00BEBC5000590334AD6
:103670000599525C04F62441885CFCF7ADFE03908A
:103680002F4850F82B104FF08240FCF735FE019088
:103690002B4850F825100198FCF72EFE0290039954
:1036A000FCF72AFE014604904FF07E50FCF756FED0
:1036B00001460BEBC50204F58F5040F822101F4A5B
:1036C0000599525C04F66441885CFCF785FE039022
:1036D0001B4850F82B104FF08240FCF70DFE019074
:1036E000174850F825100198FCF706FE0290039940
:1036F000FCF702FE014604904FF07E50FCF72EFED0
:103700000BEBC50204F5875141F822000BF1010BC8
:10371000BBF1080FA8DB6D1C082DA2DB414620463B
:10372000159A00F069FD012141F2DC0001510120F0
:1037300016E70000F493000834940008109600087F
:10374000949600082DE9F04FADF54F7D044641F207
:10375000DC00005920B900200DF54F7DBDE8F08F49
:1037600041F2B0000759001D0059CE9041F2B80057
:1037700050F80490001D0059CD904FF0000AEEE083
:10378000002597E0002691E00AEB06000C900C98CB
:10379000B84201DB781E0C9005FB07F0CD9900FBC9
:1037A00009110C9800FB091898F800000B9098F884
:1037B00001000A9098F8020009900998FCF70CFEA5
:1037C0006D490390FCF798FD05900A98FCF704FEFC
:1037D0006A490190FCF790FD03900B98FCF7FCFD03
:1037E00067490190FCF788FD02900399FCF72CFDD6
:1037F00004900599FCF728FD4FF086410690FCF7F0
:1038000075FD08900998FCF7E7FD4FF07C51049096
:10381000FCF772FD06900A98FCF7DEFD594902900C
:10382000FCF76AFD04900B98FCF7D6FD5649029010
:10383000FCF762FD03900499FCF758FD059006998A
:10384000FCF702FD07900998FCF7C6FD4F4904906C
:10385000FCF752FD06900A98FCF7BEFD4C49029019
:10386000FCF74AFD04900B98FCF7B6FD4FF07C5135
:103870000290FCF741FD03900499FCF737FD059099
:103880000699FCF733FD834606EBC5018DAA08981F
:1038900042F8210006EBC5014DAA079842F8210025
:1038A00006EBC5010DAA42F821B0761C082EFFF6E2
:1038B0006BAF6D1C082DFFF665AF41F2D8002318E1
:1038C000001F211841F2C800221804F20460CDE95B
:1038D0000413CDE9020204F2011004F2044123466C
:1038E00004F58F52CDE900108DA9204600F076F83E
:1038F00041F2D8002118001F231841F2CC002218F1
:1039000004F6042002AE0DC6059104F2033104F65C
:10391000040004F2022304F58752CDE900014DA909
:10392000204600F05BF841F2D8002118001F231850
:10393000001F221804F6042002AE0DC6059104F201
:10394000033104F6040004F2022304F58752CDE9A2
:1039500000010DA9204600F041F80AF1080ABA4515
:10396000FFF60EAF41F2C4000059083041F2C40125
:1039700008510120F0E60000D578E93DA245163F48
:103980008716993E27A0A93EB1BF2CBE9D80A63DBB
:10399000D95FD63E0CB50146C8B28DF80500080ABD
:1039A0008DF8040001980090BDF800000CBD10B522
:1039B0000246002801DA5242401E01234B8002E0F9
:1039C0004B885B1C4B8053101A1EF9D18C78012355
:1039D000A3405B1E03400B8010BD00002DE9FF4F8C
:1039E000ADF5037D1D46929F919E4FF4807203A812
:1039F0008499FCF705FC03A800F0BCF8002427E03C
:103A000003A850F824A0859850F824105046FCF7DD
:103A100073FC82464FF089415046FCF715FC4FF08D
:103A20007C510090FCF710FC0190FFF7BDF8824636
:103A30004FF089415046FCF759FC82465046FCF74E
:103A4000D0FC83464A48005D43A941F820B0641C7D
:103A5000402CD5DB439993980068A1EB000843996B
:103A600093980160B8F1000F1AD002A94046FFF701
:103A70009EFFBDF80A10909830F8110000906B5C22
:103A8000959A9499839800F081FBBDF80800009006
:103A9000BDF80A30959A9499839800F077FB08E076
:103AA0009098008800902B78959A9499839800F0CC
:103AB0006DFB4FF000093F2006E043A951F82010AC
:103AC00009B1814602E0401E0028F6DC00BF012457
:103AD0003CE04FF0000A11E00AF1010A641CBAF15F
:103AE000100F0BD1B7F8E001009096F8F030959ADE
:103AF0009499839800F04AFB4FF0000A43A850F8CD
:103B000024000028E8D043A951F8240002A9FFF7B7
:103B10004EFF4FF6FF7000EA0A10BDF80A1040EAA7
:103B2000010B37F81B00009016F80B30959A94990A
:103B3000839800F02BFBBDF808000090BDF80A3018
:103B4000959A9499839800F021FB641C4C45C0DD44
:103B5000B9F13F0F07D0388800903378959A94993F
:103B6000839800F013FB0DF5077DBDE8F08F000092
:103B7000109600082DE9F04F8FB006463446072511
:103B8000A7E0E1692068FCF75FFB0E90E16920681F
:103B9000FCF7ACFB0890A1696068FCF755FB0D9041
:103BA000A1696068FCF7A2FB09906169A068FCF755
:103BB0004BFB0C906169A068FCF798FB8346D4E945
:103BC0000301FCF741FB0B90D4E90301FCF78EFBEA
:103BD0000A900B990E98FCF737FB07900B990E98FB
:103BE000FCF784FB0490DDE90C10FCF72DFB06903C
:103BF000DDE90C10FCF77AFB0590DDE90610FCF717
:103C000023FB2060DDE90610FCF770FB2061DDE995
:103C10000410FCF719FB8F490090FCF76DFB074679
:103C200039460498FCF710FBA06039460498FCF76D
:103C30005DFBA06159460A98FCF706FB07905846C1
:103C40000999FCF701FB0690DDE90810FCF7FCFA86
:103C5000059005990798FCF749FB7F490090FCF710
:103C60004BFB82467D480799FCF746FB5146009086
:103C7000FCF7EAFA80467A480599FCF73DFB514685
:103C80000090FCF7E1FA814672490698FCF734FB94
:103C9000039003990898FCF7D7FA029003990898C3
:103CA000FCF724FB019041460198FCF7CDFA6061D6
:103CB00041460198FCF71AFBE06049460298FCF780
:103CC000C3FA606049460298FCF710FBE0612034BB
:103CD0006D1E002DBFF655AF34460725B3E0D4F86E
:103CE000E0102068FCF7B0FA0E90D4F8E0102068DD
:103CF000FCF7FCFA0890D4F8C010206AFCF7A4FA8C
:103D00000D90D4F8C010206AFCF7F0FA0990D4F8AE
:103D1000A010206CFCF798FA0C90D4F8A010206C3E
:103D2000FCF7E4FA8346D4F88010206EFCF78CFA96
:103D30000B90D4F88010206EFCF7D8FA0A900B99FB
:103D40000E98FCF781FA07900B990E98FCF7CEFAC3
:103D50000490DDE90C10FCF777FA0690DDE90C1011
:103D6000FCF7C4FA0590DDE90610FCF76DFA206057
:103D7000DDE90610FCF7BAFAC4F88000DDE90410AA
:103D8000FCF762FA33490090FCF7B6FA0746394669
:103D90000498FCF759FA206439460498FCF7A6FA0F
:103DA000C4F8C00059460A98FCF74EFA07905846E6
:103DB0000999FCF749FA0690DDE90810FCF744FA86
:103DC000059005990798FCF791FA23490090FCF7B4
:103DD00093FA824621480799FCF78EFA51460090E3
:103DE000FCF732FA80461E480599FCF785FA5146E1
:103DF0000090FCF729FA814616490698FCF77CFAF0
:103E0000039003990898FCF71FFA02900399089809
:103E1000FCF76CFA019041460198FCF715FAC4F8DA
:103E2000A00041460198FCF761FA206649460298D5
:103E3000FCF70AFA206249460298FCF757FAC4F8E0
:103E4000E000241D6D1E002DBFF649AF0FB0BDE888
:103E5000F08F0000F304353F15EFC33ED48B0A3FCB
:103E6000753DA73F2DE9F041ADF6284D0446434886
:103E7000C4F8040C424940F6084001514149001D74
:103E800001514149001D01514048C4F8140C4049FA
:103E900040F6184001513F49001D01513E49001DA7
:103EA00001510020CDF8180CCDF81C0CCDF8200CD9
:103EB000CDF8240C00BF13E000210EE00DF61842EF
:103EC00052F8203004F6044252F82020525C1A4482
:103ED0000DF6184343F82020491C1029EEDB401C46
:103EE0000428E9DB00251DE004F6044252F8251001
:103EF00005EB05220DF61403D01800F04FF80DF66F
:103F0000184252F82520D717164605EB05220DF664
:103F10001403D11805AA02EB452032463B4600F0B7
:103F200054F86D1C042DDFDB002520E00DF6184051
:103F300050F82500C717064605A800EB452005EBFD
:103F4000052C0DF614080CEB080304F6144CCDE90F
:103F5000026700905CF8252004F2044C0CEB45212C
:103F600005EB052C0CEB040000F04EF86D1C042D45
:103F7000DCDB0DF6284DBDE8F081000074940008EC
:103F8000AC940008909400085E95000884940008A2
:103F9000BC940008A09400086E950008F0B5024695
:103FA000002300200DE0002405E0451CEFB21D4673
:103FB0005B1C5755641C0D5CA542F6DC0024D454F0
:103FC000401C1028EFDB1046F0BDF0B515461E462C
:103FD000002300220C7800BF00BF1746521C20F8B7
:103FE00017305F1CBBB28F5CA742F6D08F5C07B95D
:103FF000F0BD00BF4FF6FF7707EA4303671CFCB232
:104000008F5CA742F6D1E7E72DE9F0410446DDF8E1
:1040100018C0DDE90856002000BF175C3CF810808E
:1040200021F8178013F8008004F80780401CC71798
:10403000B0EB0508B741F0DBBDE8F0812DE9F047B2
:1040400004460F469046994608FB09F640F2FF31B8
:10405000D4F8AC0C081AB04201D9304604E040F262
:10406000FF31D4F8AC0C081A054604F54B61D4F8BE
:10407000AC2C50182A463946FCF7C2F8D4F8AC0CE0
:104080002844C4F8AC0C40F2FF31D4F8AC0C8842A0
:104090000CD140F6A8410B5904F54B61D4F8AC2C77
:1040A000D4F8A40C98470020C4F8AC0CB54205D253
:1040B000721B791901232046FFF7C0FFBDE8F08786
:1040C0002DE9FE4380460D4616461F46DDF8289032
:1040D0000024002002E0295C0C44401C1028FADB7C
:1040E0004FF6C470FFF756FC029004F1130188B23A
:1040F000FFF750FC019049EA0710C0B2009001237D
:10410000022202A94046FFF799FF0123022201A9DA
:104110004046FFF793FF01231A4669464046FFF7E2
:104120008DFF1023012229464046FFF787FF2346D3
:10413000012231464046FFF781FFBDE8FE83FEB510
:1041400005460E4614464FF6DB70FFF723FC02903F
:104150000123022202A92846FFF770FF4320FFF740
:1041600019FC01900123022201A92846FFF766FFEE
:10417000009401231A4669462846FFF75FFF012392
:10418000402231462846FFF759FFFEBD2DE9FC4786
:1041900080460C4615461E46DDF82890286887198B
:1041A000C7F1200109FA01F12068084320602F605F
:1041B0001CE02068000E019001231A4601A9404628
:1041C000FFF73CFF9DF80400FF2808D10020009075
:1041D00001231A4669464046FFF730FF00BF2068BA
:1041E0000002206028680838286000BF2868082876
:1041F000DFD2BDE8FC870000F0B589B004460D466B
:1042000016464FF6D870FFF7C5FBADF810004FF615
:10421000E070FFF7BFFBADF8120010273846FFF73C
:10422000B9FBADF8140075480168CDF81610007997
:104230008DF81A004FF48170FFF7ACFBADF81B004E
:1042400001208DF81D006020FFF7A4FBADF81E00D3
:104250006020FFF79FFBADF8200000208DF82200C2
:104260008DF823000123142204A92046FFF7E6FE5F
:104270001E274FF6FE70FFF78DFBADF804003846A1
:10428000FFF788FBADF806001C225D4902A8FBF78A
:10429000B7FF0123202201A92046FFF7CFFE00220D
:1042A00004F624412046FFF74AFF012204F6644148
:1042B0002046FFF744FF4FF6C070FFF76BFBADF8E9
:1042C00010001120FFF766FBADF8120008208DF8F2
:1042D0001400A8B2FFF75EFBADF81700B0B2FFF70D
:1042E00059FBADF8150003208DF8190045A00068B2
:1042F0000390002016E0411CC9B28DF8081011216E
:104300008DF8091003A9095C8DF80A1000EB400232
:104310000DF11A011144BDF808200A809DF80A2009
:104320008A70401C0328E6DB0123132204A92046DF
:10433000FFF784FE0020009003462046D4F8142C9A
:10434000D4F8041CFFF7BCFE0020009040F6184093
:10435000025940F60840015901232046FFF7B0FEFC
:104360000120009040F61C40025940F60C400159D3
:1043700000232046FFF7A4FE012000904FF4426086
:1043800002594FF44160015901232046FFF798FE7E
:104390004FF6DA70FFF7FEFAADF814000C20FFF7C5
:1043A000F9FAADF8160003208DF8180016A0006881
:1043B000049000200FE0411CC9B28DF80C1004A934
:1043C000095C8DF80D100DF1190101EB4001BDF8EC
:1043D0000C200A80401C0328EDDB00208DF81F0014
:1043E0003F208DF8200000208DF8210001230E22AF
:1043F00005A92046FFF722FE09B0F0BD509600083F
:1044000055960008000101000011110001460A69DB
:10441000D1E901309860D1E90103586050688842C1
:1044200001D188685060002008611068401E10604B
:10443000106870470C46214606A0FEF7D9F900BF68
:10444000502080F31188BFF34F8FBFF36F8F00BFF1
:1044500000BFFEE7537461636B204F766572666C34
:104460006F773A2025730D0A0000000000F1080163
:1044700041604FF0FF31816000F10801C1600161CE
:1044800000210160704700210161704710B50246AC
:104490000B685C1C0CB9106907E002F1080000E031
:1044A0004068446824689C42FAD944684C604C686F
:1044B000A160886041600A611468641C146010BDCA
:1044C00042684A6093688B609368596091600861A4
:1044D00003685B1C0360704710B500BF502080F379
:1044E0001188BFF34F8FBFF36F8F00BF0B48006879
:1044F000401C0A4908600846006801280DD1084898
:104500000068C0B208B9012000E0002028B94FF4CB
:10451000BD7204A10DA0FEF76BF910BD880100204B
:1045200004ED00E02E2E5C2E2E5C46726565525422
:104530004F535C706F72745C525644535C41524DE1
:104540005F434D335C706F72742E63004572726FFF
:10455000723A25732C25640D0A00000010B50B4833
:10456000006828B940F2811209A113A0FEF740F9B2
:1045700006480068401E054908600846006820B9E2
:10458000002080F3118800BF00BF10BD880100200B
:104590002E2E5C2E2E5C4672656552544F535C7015
:1045A0006F72745C525644535C41524D5F434D33BD
:1045B0005C706F72742E63004572726F723A25736D
:1045C0002C25640D0A00000070B506463546002E05
:1045D00035D0083D2C461A4960680968084008B182
:1045E000012000E0002028B94FF4A07215A11FA0FF
:1045F000FEF7FEF8206808B9012000E0002028B985
:1046000040F241120FA119A0FEF7F2F80C496068C0
:104610000968084098B1206888B909496068096844
:104620008843606000F05EFA1449606809680844D5
:10463000124908602046FEF79BFD01F097F870BD17
:10464000840100202E2E5C2E2E5C4672656552542D
:104650004F535C706F72745C4D656D4D616E675C3D
:10466000686561705F342E63000000004572726FF0
:10467000723A25732C25640D0A0000007C0100208D
:10468000064800684FF47A71B0FBF1F0401E4FF01D
:10469000E021486107200861704700000000002009
:1046A00070B5FBF797FD0546102D11D305F1E020FD
:1046B00090F8F04310480078844201DB012000E0CC
:1046C000002028B94FF42A720CA116A0FEF790F82A
:1046D0001848006800F4E06017490968884201D86A
:1046E000012000E0002028B94FF42E7203A10DA094
:1046F000FEF77EF870BD00008C0100202E2E5C2E8F
:104700002E5C4672656552544F535C706F72745CD8
:10471000525644535C41524D5F434D335C706F724F
:10472000742E63004572726F723A25732C25640DE6
:104730000A0000000CED00E09001002070B5044676
:104740000025ACB10F48006808B9012000E0002046
:1047500028B940F2CF420CA112A0FEF749F800F0B0
:10476000C1F900212046FEF7C9FA00F0FFFF054617
:104770003DB94FF080500F490860BFF34F8FBFF332
:104780006F8F70BD6C0100202E2E5C2E2E5C467249
:10479000656552544F535C7372635C7461736B73E1
:1047A0002E6300004572726F723A25732C25640DDA
:1047B0000A00000004ED00E070B50546FFF78CFE2E
:1047C00015B92D48006800E028460446201DFFF773
:1047D0001DFE78B9E06A00EB8000284951F82000FE
:1047E00040B994F82C10012088402549096881437C
:1047F00023480160A06A18B104F11800FFF706FE13
:1048000020480068401C1F4908601B48006884421B
:1048100009D1211D1C48FFF753FE1C480068401CAD
:104820001A49086009E01A480068401E18490860E3
:104830002046FEF78EFBFEF7EBFCFFF78FFE1548D8
:104840000068C0B10C480068844214D11248006866
:1048500008B9012000E0002028B940F265420FA10C
:1048600015A0FDF7C5FF4FF0805017490860BFF352
:104870004F8FBFF36F8F70BD34010020982E002042
:104880004C01002060010020543100204001002034
:1048900044010020500100206C0100202E2E5C2ECF
:1048A0002E5C4672656552544F535C7372635C7440
:1048B00061736B732E6300004572726F723A2573D9
:1048C0002C25640D0A00000004ED00E001200149E0
:1048D000086070475801002070B504460D462CB999
:1048E00040F6063207A10EA0FDF782FF10480168CE
:1048F00018312046FFF7CAFD01212846FEF7FEF9D0
:1049000070BD00002E2E5C2E2E5C467265655254E2
:104910004F535C7372635C7461736B732E6300003E
:104920004572726F723A25732C25640D0A000000DF
:104930003401002070B505462C46002D4BD0264989
:10494000E06A0968C96A884245D2A06900F000405F
:1049500028B921480068C06AC0F12000A061E16A5E
:1049600001EB81011D4A02EB81016069884201D19E
:10497000012000E0002050B3201DFFF747FD78B96B
:10498000E06A00EB8000154951F8200040B994F826
:104990002C100120884012490968814310480160A9
:1049A0000D480068C06AE06294F82C10012088402D
:1049B0000B49096808430A490860E16A01EB810173
:1049C000064A02EB8100211DFFF77AFD03E0024851
:1049D0000068C06AE06270BD34010020982E00209B
:1049E0004C01002010B504462CB940F6C13205A197
:1049F0000BA0FDF7FDFE0E48006820600D48006822
:104A0000606010BD2E2E5C2E2E5C46726565525481
:104A10004F535C7372635C7461736B732E6300003D
:104A20004572726F723A25732C25640D0A000000DE
:104A30005C010020480100201CB5184800210B46ED
:104A40008022CDE9001016A1174800F0CDFC0446E5
:104A5000012C15D100BF502080F31188BFF34F8F78
:104A6000BFF36F8F00BF4FF0FF3010490860012087
:104A70000F49086000200F49086000F027F90BE09B
:104A8000601C08B1012000E0002028B940F28472C7
:104A900009A110A0FDF7ACFE1CBD000068010020BC
:104AA00049444C4500000000E12F0008640100204B
:104AB00050010020480100202E2E5C2E2E5C4672F4
:104AC000656552544F535C7372635C7461736B73AE
:104AD0002E6300004572726F723A25732C25640DA7
:104AE0000A00000002480068401C01490860704745
:104AF0006C01002070B52848006818B101202749D2
:104B0000086048E000202549086025480068046BDB
:104B10004FF0A5352068B0F1A53F0BD16068B0F12A
:104B2000A53F07D1A068B0F1A53F03D1E068B0F17F
:104B3000A53F05D01A48016834310068FFF77AFCB8
:104B400018480068B0FA80F0C0F11F0404EB84003C
:104B5000154951F8200008B1012000E0002028B9D3
:104B600040F6F62211A118A0FDF742FE04EB8401E5
:104B70000D4A02EB810041684968416000F108017B
:104B800042688A4202D14168496841604168C96807
:104B9000034A116000BF70BD6C0100205801002065
:104BA000340100204C010020982E00202E2E5C2E77
:104BB0002E5C4672656552544F535C7372635C742D
:104BC00061736B732E6300004572726F723A2573C6
:104BD0002C25640D0A0000001CB50124FFF77CFCA5
:104BE00000220121022000F0DBF8234908600022A6
:104BF0000121022000F0D4F820490860032200219E
:104C0000012000F0CDF81E49086003220021012098
:104C100000F0C6F81B4908601B480321002322024C
:104C2000CDE9001019A11D4800F0DEFB0446012467
:104C30001B48042100234A02CDE9001019A11C4899
:104C400000F0D2FB044601241A48042100238A0103
:104C5000CDE9001018A11C4800F0C6FB0446002353
:104C60001A4619460648006800F01CFAFFF776FC61
:104C70000020FFF7A1FD1CBD4000002044000020E3
:104C8000480000204C000020300000204649464FDC
:104C90005F526561645F5461736B0000D90900085D
:104CA000340000204A5045475F5461736B00000098
:104CB000A919000838000020444D415F5553415266
:104CC000545F5461736B00009D0700081CB52248B7
:104CD000014609780191FF210246117001460978C9
:104CE00000919DF8001001F050011C4A117007213D
:104CF0001B4A116009E01A490968491E184A1160E7
:104D00009DF800104906090E00919DF8001001F071
:104D100080018029EFD0124909680902104A116008
:104D20001146098801F4E06111600B4A0199117084
:104D30000C48006840F470000A49086008460068A2
:104D400040F070400860FFF79BFC002006490860B7
:104D5000FBF70AFA00201CBD00E400E08C010020F3
:104D60009001002020ED00E08801002010B500BF78
:104D7000502080F31188BFF34F8FBFF36F8F00BFB8
:104D800000F072FB18B14FF080500449086000BF7A
:104D9000002080F3118800BF10BD000004ED00E08A
:104DA0002DE9F84305460E4690460DB1012000E07E
:104DB000002028B94FF4C4720DA114A0FDF718FD0E
:104DC0000EB9002701E005FB06F707F14800FEF7E2
:104DD000AFFA044644B104F1480943464A46314615
:104DE00028460094FEF710F92046BDE8F88300003D
:104DF0002E2E5C2E2E5C4672656552544F535C73AA
:104E000072635C71756575652E6300004572726F23
:104E1000723A25732C25640D0A0000002DE9FF4726
:104E200082B005460E461F464FF0000A2C462CB9AC
:104E300040F2DC4261A168A0FDF7DAFC0EB9206CFB
:104E400008B9012000E0002028B940F2DD425BA152
:104E500061A0FDF7CDFC00F0F7FA08B9049808B995
:104E6000012000E0002028B94FF49C6253A15AA011
:104E7000FDF7BEFC00BFFFF72FFBD4F83890B9F167
:104E8000000F3DD0D4F80C8031462046FEF70EF8D6
:104E9000DFB9A9F10100A063206810B9FEF7F2FAAA
:104EA0006060206908B9012000E0002010BB04F117
:104EB000100000F0FDFBE8B14FF080504A49086057
:104EC000BFF34F8FBFF36F8F14E0C4F80C80606A9C
:104ED00008B9012000E0002060B904F1240000F0CE
:104EE000E7FB38B14FF080503F490860BFF34F8F68
:104EF000BFF36F8FFFF732FB012006B0BDE8F087EC
:104F0000049818B9FFF72AFB0020F6E7BAF1000F62
:104F100004D16846FFF766FD4FF0010AFFF71EFB5C
:104F2000FFF7E0FDFFF7D8FA94F94400401C10B9F0
:104F3000002084F8440094F94500401C10B900207A
:104F400084F84500FFF70AFB04A9684600F0F8F969
:104F500040BB2046FEF740F9F0B1206830B9FFF7BA
:104F6000BBFA6068FFF7E6FCFFF7F8FA04F12400EB
:104F70000499FFF7B1FC2046FEF79AF900F0F6FB22
:104F800000287FF478AF4FF0805017490860BFF3D6
:104F90004F8FBFF36F8F6EE72046FEF789F900F061
:104FA000E5FB68E72046FEF783F900F0DFFB2046CB
:104FB000FEF712F90028EED000209EE72E2E5C2E80
:104FC0002E5C4672656552544F535C7372635C711C
:104FD000756575652E6300004572726F723A2573B0
:104FE0002C25640D0A00000004ED00E070B50546B4
:104FF0000E462C462CB940F21B121EA124A0FDF730
:10500000F7FBFFF769FAD4E90F12206801FB0200F1
:1050100060600020A0632068A060E06B401E226CEE
:10502000216800FB0210E060FF2084F8440084F84F
:1050300045009EB9206908B9012000E00020A8B908
:1050400004F1100000F034FB80B14FF0805014499F
:105050000860BFF34F8FBFF36F8F07E004F11000BC
:10506000FFF704FA04F12400FFF700FAFFF776FADD
:10507000012070BD2E2E5C2E2E5C4672656552544A
:105080004F535C7372635C71756575652E630000C8
:105090004572726F723A25732C25640D0A00000068
:1050A00004ED00E02DE9FF4383B0064688461D4627
:1050B0004FF0000934462CB940F2D92258A15FA024
:1050C000FDF796FBB8F1000F01D1206C08B9012063
:1050D00000E0002028B940F2DA2251A157A0FDF7E4
:1050E00087FB022D02D1E06B012801D1012000E0F5
:1050F000002028B940F2DB2249A150A0FDF778FB3F
:1051000000F0A2F908B9059808B9012000E00020D4
:1051100028B940F2DE2242A148A0FDF769FB00BF9A
:10512000FFF7DAF9A06BE16B884201D3022D28D199
:105130002A4641462046FDF7CEFE0746606A08B97A
:10514000012000E0002068B904F1240000F0B0FA6A
:1051500088B14FF080503D490860BFF34F8FBFF3D7
:105160006F8F08E03FB14FF0805038490860BFF3BF
:105170004F8FBFF36F8FFFF7F1F9012007B0BDE844
:10518000F083059818B9FFF7E9F90020F6E7B9F1BF
:10519000000F04D101A8FFF725FC4FF00109FFF72C
:1051A000DDF9FFF79FFCFFF797F994F94400401CE5
:1051B00010B9002084F8440094F94500401C10B94F
:1051C000002084F84500FFF7C9F905A901A800F0FF
:1051D000B7F8F0B92046FEF70CF8A0B104F11000C2
:1051E0000599FFF779FB2046FEF762F800F0BEFA5A
:1051F000002895D14FF0805014490860BFF34F8FBD
:10520000BFF36F8F8CE72046FEF752F800F0AEFA3E
:1052100086E72046FEF74CF800F0A8FA0020ADE73C
:105220002E2E5C2E2E5C4672656552544F535C7375
:1052300072635C71756575652E6300004572726FEF
:10524000723A25732C25640D0A00000004ED00E07D
:105250002DE9F04706460F4634462CB940F23C4251
:105260002CA133A0FDF7C4FA206C08B9012000E09E
:10527000002028B94FF4886226A12DA0FDF7B8FAC6
:10528000206808B9606808B9012000E0002028B94A
:1052900040F245421FA126A0FDF7AAFAFFF700FA47
:1052A00000BF5021EFF3118081F31188BFF34F8FBE
:1052B000BFF36F8F00BF0546D4F83890E06B4845C8
:1052C0001ED994F945A009F10100A0630AF101007B
:1052D00070B9606A08B9012000E0002068B904F1E3
:1052E000240000F0E5F940B13FB10120386004E04E
:1052F0000AF1010040B284F845004FF0010801E0D6
:105300004FF0000800BF85F3118800BF4046BDE89C
:10531000F08700002E2E5C2E2E5C4672656552547E
:105320004F535C7372635C71756575652E63000025
:105330004572726F723A25732C25640D0A000000C5
:105340002DE9F04104460D462CB940F6CB3219A1A7
:105350001FA0FDF74DFA2DB940F6CC3215A11CA0C7
:10536000FDF746FAFFF7B8F81D4807682868401CA3
:1053700008B9002619E01B4920680968884204D052
:105380006068B84201D801260FE06068381A2968C1
:10539000884209D228686168791A401A2860204634
:1053A000FFF720FB002600E00126FFF7D7F8304684
:1053B000BDE8F0812E2E5C2E2E5C4672656552543F
:1053C0004F535C7372635C7461736B732E63000084
:1053D0004572726F723A25732C25640D0A00000025
:1053E000480100205C0100202DE9FF4F85B0804678
:1053F00089461746DDE912ABB800FDF799FF06466E
:1054000056B15420FDF794FF04460CB1266304E026
:105410003046FFF7D9F800E000247CB10020CDE948
:1054200000ABCDE902403A4649464046089BFDF7AD
:10543000FFFD2046FDF7AEFC012501E04FF0FF35F2
:10544000284609B0BDE8F08F0549096809B901206F
:1054500005E00449096809B9022000E0002070470E
:10546000500100206C0100202DE9F0414FF00008B0
:1054700041480068002872D140480068451C3F48F8
:105480000560EDB93E480068006808B9012000E0F9
:10549000002028B940F6D9123AA141A0FDF7A8F999
:1054A0003748076842480068354908604048076047
:1054B00040480068401C3F490860FDF7A9FE00BF56
:1054C0003D48006885423CD300BF2D480068006815
:1054D00008B9012000E0002020B14FF0FF3036492C
:1054E00008602DE026480068C068C4686668B54258
:1054F00002D23148066023E0201DFEF787FFA06A34
:1055000018B104F11800FEF781FF94F82C10012067
:1055100088402A490968084328490860E16A01EB84
:105520008101274A02EB8100211DFEF7C9FF2549B1
:10553000E06A0968C96A8842C7D34FF00108C4E726
:1055400000BF20480068C06A00EB80001C4951F889
:105550002000012801D94FF0010805E0FFE71A48B3
:105560000068401C184908601848006808B14FF0EE
:1055700001084046BDE8F0816C0100204801002090
:10558000380100202E2E5C2E2E5C4672656552542A
:105590004F535C7372635C7461736B732E630000B2
:1055A0004572726F723A25732C25640D0A00000053
:1055B0003C0100205C010020640100204C0100201F
:1055C000982E0020340100205401002058010020B2
:1055D00070B505462C460026002D4BD026480068A5
:1055E000844201D1012000E0002028B940F6C762C2
:1055F00022A129A0FDF7FCF8A06C28B940F6C962E9
:105600001EA125A0FDF7F4F8A06C401EA064616CFB
:10561000E06A88422ED0A06C60BB201DFEF7F6FE2B
:1056200078B9E06A00EB80001F4951F8200040B9CA
:1056300094F82C10012088401C49096881431B48BC
:105640000160606CE062E06AC0F12000A06194F843
:105650002C10012088401549096808431349086047
:10566000E16A01EB8101104A02EB8100211DFEF786
:1056700027FF0126304670BD340100202E2E5C2EFF
:105680002E5C4672656552544F535C7372635C7452
:1056900061736B732E6300004572726F723A2573EB
:1056A0002C25640D0A000000982E00204C010020DB
:1056B00070B50646F068C4682CB940F661321AA18C
:1056C00020A0FDF795F804F11800FEF79FFE214891
:1056D0000068A8B9201DFEF799FE94F82C1001204F
:1056E00088401D49096808431B490860E16A01EBCD
:1056F00081011A4A02EB8100211DFEF7E1FE04E060
:1057000004F118011648FEF7DBFE1649E06A096845
:10571000C96A884204D9012501201349086000E0C4
:105720000025284670BD00002E2E5C2E2E5C467291
:10573000656552544F535C7372635C7461736B7331
:105740002E6300004572726F723A25732C25640D2A
:105750000A0000006C0100204C010020982E00205F
:1057600040310020340100205801002070B5002491
:1057700000263448006828B94FF4FD6232A139A0F0
:10578000FDF736F8FEF7A8FE2E480068401E2D49AA
:1057900008600846006800284FD136480068002895
:1057A0004BD024E03448C068C46804F11800FEF708
:1057B0002DFE201DFEF72AFE94F82C1001208840B3
:1057C0002E49096808432D490860E16A01EB81010F
:1057D0002B4A02EB8100211DFEF772FE2949E06A87
:1057E0000968C96A884202D3012027490860224813
:1057F000006808B9012000E000200028D2D00CB1D8
:10580000FDF706FD2148056865B100BFFFF72CFED6
:1058100010B101201C4908606D1E002DF6D100203A
:105820001A4908601848006838B10126300718493D
:105830000860BFF34F8FBFF36F8FFEF78FFE3046C8
:1058400070BD00006C0100202E2E5C2E2E5C467276
:10585000656552544F535C7372635C7461736B7310
:105860002E6300004572726F723A25732C25640D09
:105870000A00000044010020403100204C010020BB
:10588000982E0020340100205801002054010020EF
:1058900004ED00E000000000000000000000000037
:1058A0000000000000000018181818181808000858
:1058B0001800000000000034242424000000000030
:1058C000000000000000000016247F2424247E2411
:1058D00024000000000000083E6848681C161212F0
:1058E0007C10100000000061D2967408101629493F
:1058F000C6000000000000003C646438724ACE46D6
:105900007F000000000000181818180000000000B8
:105910000000000000000004081810303030301083
:1059200010180C04000000201008080C0404040CDB
:1059300008181020000000080A341C6A0800000043
:10594000000000000000000000001818187F181860
:105950001800000000000000000000000000001817
:10596000180830000000000000000000003C0000AB
:10597000000000000000000000000000000000180F
:10598000180000000000000206040C080810102097
:1059900020400000000000003C6642475B73426606
:1059A0003C000000000000001878480808080808BB
:1059B0007E000000000000003C460606040810209F
:1059C0007E000000000000007C0606043C02020687
:1059D0007C000000000000000C1C14246444FF0440
:1059E00004000000000000007E6060607E0202068D
:1059F0007C000000000000001E30604876424262D9
:105A00003C000000000000007E0206040C08181094
:105A100030000000000000003C6242361C6642423A
:105A20003C000000000000003C664242661A02048E
:105A300078000000000000000000181800000018A6
:105A400018000000000000000000181800000018F6
:105A50001808300000000000000004183060100C2E
:105A60000600000000000000000000007E007E0034
:105A700000000000000000000000301804060C10B8
:105A800020000000000000301C0606061810001060
:105A9000100000000000001C224141DDB5A5A5AFAB
:105AA00094C0403C00000000181C342426627E4351
:105AB000C1000000000000007C4642467C42424299
:105AC0007C000000000000001E204040404040607C
:105AD0003E000000000000007C4642434343424633
