:020000040800F2
:1000000020510020DD010008411600085D0B0008AA
:100010003D1600080F0500087924000800000000C4
:100020000000000000000000000000004501000882
:10003000010700080000000089010008F121000804
:10004000F7010008F7010008F7010008F7010008B0
:10005000F7010008F7010008F7010008F7010008A0
:10006000F701000805070008F7010008F70100087C
:10007000F7010008F7010008F7010008F701000880
:10008000F7010008F7010008F7010008F701000870
:10009000F7010008F7010008F7010008F701000860
:1000A000F7010008F7010008F7010008F701000850
:1000B000F7010008F7010008F7010008F701000840
:1000C000F7010008F7010008F7010008F701000830
:1000D000F7010008F7010008F7010008F701000820
:1000E000F7010008F7010008F7010008F701000810
:1000F000F7010008F7010008F7010008F701000800
:10010000F7010008F7010008F7010008F7010008EF
:10011000F7010008F7010008F7010008F7010008DF
:10012000F7010008F7010008F7010008F7010008CF
:10013000DFF80CD000F0BCF9004800479127000818
:1001400020510020224B19680868B0E8F00F80F3B6
:100150000988BFF36F8F4FF0000080F311884EF0D5
:100160000D0E70470000000006480068006880F32C
:10017000088862B661B6BFF34F8FBFF36F8F00DFA1
:1001800000BF00BF08ED00E0EFF30980BFF36F8F01
:100190000F4B1A6820E9F00F106008B54FF05000BF
:1001A00080F31188BFF34F8FBFF36F8F03F04CFCC8
:1001B0004FF0000080F31188BDE808401968086816
:1001C000B0E8F00F80F30988BFF36F8F704700BF6E
:1001D000F8000020EFF305807047000006488047D4
:1001E00006480047FEE7FEE7FEE7FEE7FEE7FEE71C
:1001F000FEE7FEE7FEE7FEE7F9210008310100080F
:1002000040EA01039B0703D009E008C9121F08C098
:10021000042AFAD203E011F8013B00F8013B521E18
:10022000F9D27047D2B201E000F8012B491EFBD28F
:1002300070470022F6E710B513460A4604461946F1
:10024000FFF7F0FF204610BDF0B480EA0102D40FA2
:100250004200B2EB410F02D20246084611464A0064
:1002600042D0C30DDDB2C1F3C752AD1A202D35DA2D
:10027000C1F3160141F4000204B15242C5F1200657
:1002800002FA06F12A411044B3EBD05F23D0C4B187
:10029000012DA0EBC35009DCF0BC4FF0004202EA94
:1002A000C352DBB200F5000000F0D3B8400000F10B
:1002B000807000EBC350A0F1807040EAD17049001B
:1002C00009E0490841EAC071A0EBC35000F5000005
:1002D000400800EBC350F0BC00F0B2B8614201220C
:1002E00002EB4101001BF6E7F0BC704781F00041D2
:1002F000AAE780F00040A7E780EA010210B502F00B
:100300000043400022D04A001FD0010E01EB1261D1
:10031000C0F35600C2F3560240F4000042F400025B
:10032000A0FB022000047F39140400D0401C50EAD6
:10033000124001D44000491EC2B20C0604EBD0109A
:10034000401C4008802A02D003E0002010BD20F0AD
:100350000100002900DA0020184310BD30B480EA03
:10036000010202F0004530F0004221F0004013D0BD
:1003700090B1C30DD40DC2F31601C0F31600E41AF8
:1003800041F4000140F400027D34914201D3641C29
:1003900000E04900002C02DA30BC002070474FF426
:1003A00000000023914201D3891A034340084FEA19
:1003B0004101F7D151B1914202D14FF0004105E026
:1003C00002D24FF0010101E06FF0010103EBC450D4
:1003D000284430BC00F034B896230022114600F0C7
:1003E00038B800F0004220F00040C10DC0F3160004
:1003F00040F400007F2901DA00207047962903DCD1
:10040000C1F19601C84001E096398840002AF4D035
:100410004042704730B50B4601460020202201249F
:1004200009E021FA02F59D4205D303FA02F5491BC2
:1004300004FA02F52844151EA2F10102F1DC30BDD8
:100440000029A8BF7047401C490008BF20F00100E8
:10045000704710B4B0FA80FC00FA0CF050EA0104C6
:1004600004BF10BC704749B1CCF1200421FA04F458
:1004700011FA0CF118BF012121430843A3EB0C0131
:10048000CB1D4FEA00614FEA102042BF002010BC94
:10049000704700EBC35010440029A4BF10BC704744
:1004A000401C490008BF20F0010010BC704700004C
:1004B000064C074D06E0E06840F0010394E80700B1
:1004C00098471034AC42F6D3FFF736FEB47A0008F2
:1004D000D47A000830B58C1810F8012B12F00F03F5
:1004E00001D110F8013B120906D110F8012B03E0ED
:1004F00010F8015B01F8015B5B1EF9D101E001F826
:10050000013B521EFBD1A142E6D3002030BD00BF0B
:10051000FEE7000000F0805111B10349086001E0DE
:100520000249486070470000040402400000024095
:1005300021B1026842F00102026004E002684FF655
:10054000FE731A400260704701684FF6FE72114058
:1005500001600021016041608160C1604B498842B7
:1005600008D14A490839496841F00F01474A083A19
:1005700051608AE045491431884208D1434908391D
:10058000496841F0F001414A083A51607DE03F4935
:100590002831884208D13D490839496841F47061E1
:1005A0003A4A083A516070E038493C31884208D1F3
:1005B00036490839496841F47041344A083A516073
:1005C00063E032495031884208D1304908394968DE
:1005D00041F470212D4A083A516056E02B496431AC
:1005E000884208D129490839496841F47001274AED
:1005F000083A516049E025497831884208D12349B9
:100600000839496841F07061204A083A51603CE07D
:100610001F49884206D1011F096841F00F01021FDE
:10062000116032E01A491431884208D11849091F73
:10063000096841F0F001164A121F116025E01449C3
:100640002831884208D11249091F096841F47061B4
:100650000F4A121F116018E00D493C31884208D141
:100660000B49091F096841F47041094A121F1160C2
:100670000BE007495031884207D10549091F096835
:1006800041F47021024A121F1160704708000240B5
:100690000804024001460020002201F0805313B1FB
:1006A000054B1A6801E0054B1A6802EA01030BB119
:1006B000012000E0002070470004024000000240DA
:1006C00010B50022026847F6F0739A430C6A8B68F3
:1006D00023430C6923434C6923438C692343CC692E
:1006E00023434C6A23438C6A23431A430260CB683A
:1006F00043600B6883604B68C36010BD4160704706
:100700007047000010B5082000F038F800B3114819
:10071000007878B910201049486108200F49086016
:1007200001200C49087008200C49086010200A4973
:1007300008610AE007480078012806D10820074927
:10074000091D0860022003490870082000F008F81D
:1007500010BD0000C700002000100140101401402F
:10076000014908607047000014040140024909680B
:100770000143014A11607047100401400146002006
:100780000022074B1B6803EA0102054B14331B6868
:100790000B4013B10AB1012000E0002070470000B7
:1007A00000040140002123498279002A3AD00A46F8
:1007B000126803689A430B461A600A1D12680368A0
:1007C0009A430B1D1A60027911440A6803681A43A0
:1007D0000A60184A0832126803689A43154B0833B6
:1007E0001A601A1D126803689A43124B0C331A6080
:1007F0004279102A0ED11A1F126803681A430D4B52
:1008000008331A601A1D126803681A43094B0C3327
:100810001A600DE00749427911440A6803681A43D7
:100820000A6005E0027911440A6803689A430A6085
:10083000704700000004014008B501213C2001F090
:1008400053F910208DF8030003208DF802000820D2
:10085000ADF8000069461A4800F0E8F81020ADF83D
:1008600000006946174800F0E1F80420ADF80000E8
:100870006946134800F0DAF82020ADF80000694618
:10088000104800F0D3F80820ADF8000069460E4883
:1008900000F0CCF84FF47F40ADF8000004208DF854
:1008A000030003208DF802006946084800F0BEF8F6
:1008B000082003491431086003491031086008BD5D
:1008C000000801400010014000140140000C0140EC
:1008D00051B18200A2F1C042126842F001038200CD
:1008E000A2F1C042136009E08200A2F1C042126886
:1008F000034B1A408300A3F1C0431A607047000005
:10090000FEFF0F00D0E901121143C26811430269D2
:1009100011434269114382691143C2691143026A5A
:100920001143426A1143826A1143C26A1143026B46
:10093000114302689200A2F1C04211608168082947
:100940000BD101688900A1F1C041096841F0400262
:1009500001688900A1F1C0410A60416B0968426BDE
:10096000526841EA0211426B926841EA0221426BED
:10097000928941EA0241426B128A41EA0251426B7A
:10098000127D41EA0261426B926911430268521C76
:100990009200A2F1C0421160C16AB1F5804F1BD133
:1009A000816B0968826B526841EA0211826B92681E
:1009B00041EA0221826B128A41EA0251826B127D66
:1009C00041EA0261826B9269114302689200A2F1CE
:1009D000C042C2F8041107E06FF07042016889005C
:1009E000A1F1C041C1F804217047000030B50022D8
:1009F0008B071C0F0F2303FA04F20B4B8C1053F8D8
:100A000024309343084C8D1044F8253023468C1035
:100A100053F824308C07240F00FA04F42343024CCB
:100A20008D1044F8253030BD080001402DE9F0411B
:100A3000024600250026002000230024002791F80C
:100A400003C00CF00F0591F803C00CF0100CBCF1C2
:100A5000000F03D091F802C04CEA050591F800C0E0
:100A6000BCF1000F31D0146800202BE04FF0010CD6
:100A70000CFA00F3B1F800C00CEA03069E4220D144
:100A800083004FF00F0C0CFA03F7BC4305FA03FC8C
:100A90004CEA040491F803C0BCF1280F06D14FF0D2
:100AA000010C0CFA00FCC2F814C00AE091F803C073
:100AB000BCF1480F05D14FF0010C0CFA00FCC2F854
:100AC00010C0401C0828D1D31460B1F800C0BCF19C
:100AD000FF0F34DD546800202EE000F1080C4FF0C9
:100AE000010808FA0CF3B1F800C00CEA03069E42B4
:100AF00021D183004FF00F0C0CFA03F7BC4305FA29
:100B000003FC4CEA040491F803C0BCF1280F05D1A2
:100B100000F1080C08FA0CF8C2F8148091F803C030
:100B2000BCF1480F07D100F1080C4FF0010808FA9A
:100B30000CF8C2F81080401C0828CED35460BDE8E1
:100B4000F0810246002093680B400BB1012000E0C9
:100B500000207047416170470161704700BFFEE7A8
:100B600010B504462CB14FF480510548FFF7F2FF51
:100B700004E04FF480510248FFF7EEFF10BD000083
:100B8000001401402DE9F04106460F4614461D466B
:100B90002B4622463946304600F02CFA04FB05F07D
:100BA0000249098800F0C5F8BDE8F081DE000020A8
:100BB00001B502E00098401E009000980028F9D18D
:100BC00008BD00002DE9F04F804689461646A6F183
:100BD00020001FFA80FA1E49096889881C4A126899
:100BE000D28801FB02F0C11700EB5171C1F3C707B6
:100BF0001748006800680AFB070B15480068C3889F
:100C00001348006882884946404600F0F3F92C20DA
:100C100000F090FC002416E0002510E01BF8040012
:100C200080212941084020B10A48008800F086FC54
:100C300003E00948008800F081FC681CC5B2082D5B
:100C4000ECDB601CC4B2BC42E6DBBDE8F08F000008
:100C5000D8000020DC000020DE00002070B5044633
:100C60000D46002624E03046134909688988084467
:100C700012490988884205DD00260F480068C088AF
:100C8000204484B220460C490968C98808440C49AC
:100C90000988884201DD002600242A782146304652
:100CA000FFF790FF6D1C044800688088304486B2CE
:100CB00028780028D7D170BDD8000020D0000020AF
:100CC000D200002000B597B03C2108A8FFF7B1FA88
:100CD0001C2101A8FFF7ADFA0121080200F0F4FE83
:100CE00001200190042003908006079000200290CC
:100CF0000490059006900890099008200A90102012
:100D00000B9000200C900E900F9010904FF480509C
:100D10001190002012901390149001A81590169035
:100D200008A8FFF7EFFD01210020FFF7D1FD17B064
:100D300000BD10B502460B4600242C2000F0FAFB43
:100D400000BF03E0184600F0F9FB641C9442F9D39D
:100D500010BD000008B50121602000F0C5FE032091
:100D60008DF8020018208DF803004FF48040ADF894
:100D7000000069465B48FFF759FE4FF40040ADF8AC
:100D8000000069465748FFF751FE0120ADF800000A
:100D900069465448FFF74AFE0220ADF80000694654
:100DA0005048FFF743FE8020ADF8000069464E48EA
:100DB000FFF73CFE4FF48070ADF8000069464A48EA
:100DC000FFF734FE4FF40070ADF800006946464866
:100DD000FFF72CFE4FF48060ADF8000069464248F2
:100DE000FFF724FE4FF40060ADF8000069463E486E
:100DF000FFF71CFE4FF48050ADF8000069463A48FA
:100E0000FFF714FE4FF40050ADF800006946364875
:100E1000FFF70CFE4FF48040ADF800006946324801
:100E2000FFF704FE4FF40040ADF8000069462E487D
:100E3000FFF7FCFD4FF48070ADF8000069462948CB
:100E4000FFF7F4FD4FF40070ADF800006946254847
:100E5000FFF7ECFD4FF48060ADF8000069462148D3
:100E6000FFF7E4FD03208DF8020018208DF8030041
:100E70001020ADF8000069461A48FFF7D7FD202082
:100E8000ADF8000069461748FFF7D0FD8020ADF8A7
:100E9000000069461348FFF7C9FD4FF40060ADF844
:100EA000000069460F48FFF7C1FD10208DF80300D0
:100EB00003208DF802000220ADF8000069460A48C0
:100EC000FFF7B4FD10208DF8030003208DF8020019
:100ED0004FF48050ADF8000069460248FFF7A6FDC8
:100EE00008BD0000001401400018014000B5024692
:100EF000072A00DD00BD31480270104602EBD071B8
:100F00004910A2EB410139B9F0202D4908804FF476
:100F1000A0702C49088006E04FF4A0702849088092
:100F2000F02028490880362000F004FB264800887D
:100F300049F24131884205D1082141EA421000F0CE
:100F4000FDFA0AE02048008848F25251884204D154
:100F5000002141EA421000F0F1FA2A2000F0EAFAFA
:100F6000002000F0EBFA002000F0E8FA14490988AC
:100F7000491EC1F3072000F0E1FA11490978491E22
:100F8000C8B200F0DBFA2B2000F0D4FA002000F009
:100F9000D5FA002000F0D2FA0A490988491EC1F3A7
:100FA000072000F0CBFA07490978491EC8B200F0C3
:100FB000C5FA2C2000F0BEFA00BF9BE7D400002049
:100FC000D0000020D2000020D600002010B5FFF78E
:100FD000C1FEFFF777FE0120FFF7C2FD00F096FA91
:100FE00000F034F802480078FFF780FF10BD0000E1
:100FF000D400002030B504460D462A2000F09AFAAD
:10100000201200F09BFAE0B200F098FAA118491EF5
:10101000C1F30F2000F092FAA118491EC8B200F0E7
:101020008DFA2B2000F086FA281200F087FAE8B239
:1010300000F084FAE918491EC1F30F2000F07EFA8F
:10104000E918491EC8B200F079FA30BD10B500F0B9
:1010500025FAFE4908800846008849F24131884255
:101060007ED1CF2000F066FA002000F067FA8120E0
:1010700000F064FA302000F061FAED2000F05AFA36
:10108000642000F05BFA032000F058FA122000F010
:1010900055FA812000F052FAE82000F04BFA852042
:1010A00000F04CFA102000F049FA782000F046FADF
:1010B000CB2000F03FFA392000F040FA2C2000F05D
:1010C0003DFA002000F03AFA342000F037FA02200E
:1010D00000F034FAF72000F02DFA202000F02EFA6C
:1010E000EA2000F027FA002000F028FA002000F0A3
:1010F00025FAB12000F01EFA002000F01FFA1B2094
:1011000000F01CFAB62000F015FA0A2000F016FADA
:10111000A22000F013FAC02000F00CFA352000F0F5
:101120000DFAC12000F006FA112000F007FAC520E0
:1011300000F000FA452000F001FA452000F0FEF929
:10114000C72000F0F7F9A22000F0F8F9F22000F033
:10115000F1F9002000F0F2F9262000F0EBF900E0B0
:1011600096E0012000F0EAF9E02000F0E3F90F201A
:1011700000F0E4F9262000F0E1F9242000F0DEF987
:101180000B2000F0DBF90E2000F0D8F9092000F068
:10119000D5F9542000F0D2F9A82000F0CFF946206C
:1011A00000F0CCF90C2000F0C9F9172000F0C6F9C6
:1011B000092000F0C3F90F2000F0C0F9072000F06B
:1011C000BDF9002000F0BAF9E12000F0B3F90020E9
:1011D00000F0B4F9192000F0B1F91B2000F0AEF9CD
:1011E000042000F0ABF9102000F0A8F9072000F06F
:1011F000A5F92A2000F0A2F9472000F09FF9392034
:1012000000F09CF9032000F099F9062000F096F90F
:10121000062000F093F9302000F090F9382000F01B
:101220008DF90F2000F08AF9362000F083F9C820EC
:1012300000F084F92A2000F07DF9002000F07EF90A
:10124000002000F07BF9002000F078F9EF2000F09A
:1012500075F92B2000F06EF9002000F06FF90020E6
:1012600000F06CF9012000F069F93F2000F066F908
:101270003A2000F05FF9552000F060F9112000F0ED
:1012800059F97348FFF794FC292000F053F901E164
:101290006E48008848F252518842F8D1CF2000F0C1
:1012A00049F9002000F04AF9C12000F047F9302048
:1012B00000F044F9ED2000F03DF9642000F03EF923
:1012C000032000F03BF9122000F038F9812000F0F3
:1012D00035F9E82000F02EF9852000F02FF91020D4
:1012E00000F02CF9782000F029F9CB2000F022F949
:1012F000392000F023F92C2000F020F9002000F024
:101300001DF9342000F01AF9022000F017F9F72037
:1013100000F010F9202000F011F9EA2000F00AF99D
:10132000002000F00BF9002000F008F9C02000F0C8
:1013300001F9212000F002F9C12000F0FBF8112092
:1013400000F0FCF8C52000F0F5F82D2000F0F6F8CC
:10135000332000F0F3F8362000F0ECF8002000F025
:10136000EDF83A2000F0E6F8552000F0E7F8B1205B
:1013700000F0E0F8002000F0E1F8172000F0DEF8BF
:10138000B62000F0D7F80A2000F0D8F8A22000F02C
:10139000D5F8F62000F0CEF8012000F0CFF830208C
:1013A00000F0CCF8F22000F0C5F8002000F0C6F8FC
:1013B000262000F0BFF8012000F0C0F8E02000F087
:1013C000B9F8D02000F0BAF8002000F0B7F80220F9
:1013D00000F0B4F8072000F0B1F80B2000F0AEF8F0
:1013E0001A2000F0ABF8312000F0A8F8542000F0EB
:1013F000A5F8402000F0A2F8292000F09FF8122064
:1014000000F09CF8122000F099F8122000F096F8F5
:10141000172000F093F8E12000F08CF8D02000F0C5
:101420008DF8002000F08AF8022000F087F80720ED
:1014300000F084F8052000F081F8252000F07EF807
:101440002D2000F07BF8442004E00000D6000020AE
:10145000FCBF020000F072F8452000F06FF81C207D
:1014600000F06CF8182000F069F8162000F066F81B
:101470001C2000F063F81D2000F060F8112000F03F
:1014800059F80548FFF794FB292000F053F82C2069
:1014900000F050F810BD0000FCBF020000B50022B3
:1014A000042000F047F800F02BF800F029F800F0D5
:1014B00027F802464FF6FF7000EA022200F020F8FB
:1014C000024348F25250824201D1104600BDD3205F
:1014D00000F030F800F014F800F012F800F010F806
:1014E00002464FF6FF7000EA022200F009F80243BC
:1014F00049F24130824201D11046E7E70020E5E79A
:1015000001480088704700000000026010B5022109
:101510000748FFF71FFB40F6FF20FFF749FB0221BA
:101520000348FFF719FB40F6FF20FFF741FB10BD12
:10153000001801404FF0C041088070470149088001
:10154000704700000000026008B50121142000F07F
:10155000CBFA0120ADF8000004208DF803006946A5
:101560000748FFF763FA4FF40050ADF8000004207D
:101570008DF8030069460348FFF758FA08BD0000DC
:10158000000801400010014070B504460D46294690
:101590002046FFF7D6FA012808D100BF2946204689
:1015A000FFF7CFFA0128F9D0012070BD0020FCE739
:1015B0000148006870470000D8000020024A1080EF
:1015C000024A118070470000DC000020DE0000208D
:1015D0000149086070470000D800002008B50121CB
:1015E000082000F081FA2020ADF8000010208DF8CE
:1015F000030003208DF8020069460F48FFF716FA32
:101600000120ADF8000069460B48FFF70FFA0220F1
:10161000ADF8000069460848FFF708FA202106489F
:10162000FFF79AFA01210448FFF796FA02210248CF
:10163000FFF792FA08BD0000000C014000BFFEE772
:101640007047000070B5002100230F22C47804B356
:10165000154C246804F4E064C4F5E064210AC1F187
:101660000403CA40447804FA03F184781440214307
:1016700009010E4C0678A155047804F01F050124D9
:10168000AC4005786D11AD0005F1E025C5F80041CD
:1016900009E0047804F01F050124AC40044D0678ED
:1016A000761145F8264070BD0CED00E000E400E046
:1016B00080E100E002490143024A116070470000E6
:1016C0000000FA050CED00E070B50646301D092853
:1016D00021D2DFE800F01D1A1714110E0B080500C7
:1016E000482406251AE03824062517E02824062574
:1016F00014E01824062511E0082406250EE008242D
:101700000E250BE018240E2508E028240E2505E000
:1017100038240E2502E000BF00BF00BF00BF2146F5
:101720009B2000F0C9FC2946AB2000F0C5FC70BD31
:1017300010B5044614F1040F0EDB042C0CDC201D44
:101740000007010EA72000F0B7FC201D0007010EC6
:10175000A82000F0B1FC01E000BF00BF10BD10B533
:10176000044614F1040F0BDB042C09DCC4F1040063
:101770003022A2EB8000C1B29C2000F09DFC01E071
:1017800000BF00BF10BD10B500F05AFBFFF754F8C2
:1017900000F074FE10BD000038B500240020009059
:1017A0008021122000F088FC08B9002038BD0B22EF
:1017B0000121684600F080FB08B90020F6E79DF89B
:1017C0000000212814D100240DE00B4A02EB440252
:1017D0005178094A12F8140000F06EFC08B9002094
:1017E000E4E7601C84B2054800788442EDDB01E048
:1017F0000020DBE70120D9E72C000020C6000020F4
:1018000010B50446062C79D2DFE804F003142D4607
:101810005F79FF21132000F04FFC65210E2000F0BE
:101820004BFC00212D2000F047FC00212E2000F071
:1018300043FC70E0FD21132000F03EFC5A21012002
:1018400000F03AFC5C21022000F036FC65210E20FD
:1018500000F032FC00212D2000F02EFC00212E2073
:1018600000F02AFC57E0FD21132000F025FC582150
:10187000012000F021FC6021022000F01DFC652108
:101880000E2000F019FC00212D2000F015FC002195
:101890002E2000F011FC3EE0FD21132000F00CFC96
:1018A0008421012000F008FC4C21022000F004FCFF
:1018B00065210E2000F000FC00212D2000F0FCFB33
:1018C00000212E2000F0F8FB25E0FD21132000F080
:1018D000F3FB9621012000F0EFFB4021022000F0F5
:1018E000EBFB65210E2000F0E7FB00212D2000F02E
:1018F000E3FB00212E2000F0DFFB0CE008E0FF21DD
:10190000132000F0D9FBE5210E2000F0D5FB02E00A
:1019100000BF00BF00BF00BF10BD10B50446072CBC
:1019200058D2DFE804F004111E2B3845520006217E
:10193000A62000F0C1FB8021602000F0BDFB8021CB
:10194000612000F0B9FB48E02621A62000F0B4FB9E
:101950008021602000F0B0FB8021612000F0ACFB12
:101960003BE01E21A62000F0A7FBA021602000F094
:10197000A3FB4021612000F09FFB2EE01E21A6204A
:1019800000F09AFB4021602000F096FBA02161202E
:1019900000F092FB21E01E21A62000F08DFB8021AB
:1019A000602000F089FBC021612000F085FB14E07D
:1019B0001E21A62000F080FB6021084600F07CFB81
:1019C0006021612000F078FB07E04621A62000F0AE
:1019D00073FB02E000BF00BF00BF00BF10BD2DE9D8
:1019E000F84306460F4614461D46DDF82080B8F140
:1019F000000F04D14621122000F05EFB03E0062117
:101A0000122000F059FB17220121684600F054FA19
:101A10009DF8000000EBA60000F0FF0949461720E2
:101A200000F04AFBC4F38701182000F045FB19229F
:101A30000121684600F040FA9DF8000000EB6700C5
:101A400000F0FF094946192000F036FBC5F34701B5
:101A50001A2000F031FB32220121684600F02CFAF6
:101A600004F003009DF80010084305F0010140EA6E
:101A7000810006F0030140EA011007F0010140EA8D
:101A800081194946322000F017FBC4F38701292051
:101A900000F012FBC5F347012C2000F00DFB2A22B9
:101AA0000121684600F008FA04F003009DF80010D8
:101AB000084305F0010140EA810949462A2000F067
:101AC000FBFABDE8F883000029B1064A52690243D7
:101AD000044B5A6104E0034A52698243014B5A6144
:101AE000704700000010024029B1064A9269024383
:101AF000044B9A6104E0034A92698243014B9A6164
:101B0000704700000010024030B500210022002480
:101B100000232D4D6D6805F00C0121B1042905D07D
:101B2000082923D105E0294D056022E0274D0560F5
:101B30001FE0254D6D6805F47012234D6D6805F4A6
:101B40008034022505EB92421CB9214D55430560B6
:101B50000BE01D4D6D6805F400351DB11C4D55435E
:101B6000056002E0194D5543056002E0174D056020
:101B700000BF00BF144D6D6805F0F0010909154D57
:101B80006B5C0568DD4045600F4D6D6805F4E061F4
:101B9000090A104D6B5C4568DD4085600A4D6D6833
:101BA00005F46051C90A0B4D6B5C4568DD40C560AA
:101BB000054D6D6805F44041890B074D6B5CC568A8
:101BC000B5FBF3F5056130BD0010024000127A004C
:101BD00000093D0000000020100000202DE9F04128
:101BE000ADF5985D4FF4A074F02503260227002080
:101BF00069E0002163E000BF0022754B1A802022BB
:101C0000744B5A61744A126802F47F42704B1A8016
:101C10002022704B1A615A616F4A1268C2F3072280
:101C20006B4B1B881A436A4B1A802022694B1A613E
:101C300000BF674A1288D20A684B1A70644A128839
:101C4000C2F34512664B1A70614A127802F01F0205
:101C5000644B1A70614A1278D200604B1B7842EADA
:101C6000A302D3B200EB800201EB821202EB42022C
:101C7000DFF874C10CF80230594A12789200584BC0
:101C80001B7842EA2312D3B200EB800201EB8212EE
:101C900002EB4202521C0CF80230524A1278D20077
:101CA000504B1B7842EAA302D3B200EB800201EB57
:101CB000821202EB4202921C0CF80230491CB1F570
:101CC000A07F98DB401C082893DB4848007828B99F
:101CD00046480078401C454908700EE043480078AB
:101CE0001E2805DA41480078401C4049087004E08D
:101CF00000203E4908703E4908703C4800780128A1
:101D000018D100BF4FF4F05037490322F023CDE93A
:101D10000132CDE903104FF4A070022300223549AF
:101D2000009008A800F00CFF0028EBD008A801F0F4
:101D300007F825E02D480078012807DD2B480078BA
:101D40001E2803DC08A800F0FBFF19E027480078F4
:101D5000B0B908A800F0F4FF08A800F0B3FE00BF77
:101D600004202549086020201A49486108610420A0
:101D70002149091F0860202016494861086100BFF9
:101D800000211E48FEF7D4FB4FF40050FEF7C2FBC3
:101D900040211B4800F08EFA1A48008881B217488B
:101DA000FEF7ACFC01211548FEF7C2FB00BF4FF463
:101DB0000050FEF76FFC0028F9D04FF40050FEF7FA
:101DC000A9FB00200F4908600DF5985DBDE8F08182
:101DD000C800002000100140080C0140CA0000208B
:101DE000CB000020CC00002038010020CD000020D6
:101DF000C7000020592A000814080140440002408E
:101E0000003801401400002010B540210B48FEF7B7
:101E1000A1FE00F071F980210848FEF79BFE00F05A
:101E20006BF940210548FEF797FE00F065F9402167
:101E30000248FEF78FFE00F05FF910BD0010014070
:101E400008B501211020FFF74FFE4020ADF800003B
:101E500003208DF8020014208DF80300694607481E
:101E6000FEF7E4FD01211020FFF73EFE8020ADF8D3
:101E7000000069460148FEF7D9FD08BD0010014089
:101E800010B540210B48FEF765FE00F035F98021C2
:101E90000848FEF761FE00F02FF940210548FEF7E3
:101EA0005BFE00F029F940210248FEF753FE00F0E6
:101EB00023F910BD0010014070B505460C461646CA
:101EC00000F08EF808B9002070BD422000F05CF8E8
:101ED00000F0CCF818B900F0ADF80020F4E7304677
:101EE00000F052F800F0C2F800F0A4F800F078F822
:101EF00008B90020E8E7432000F046F800F0B6F803
:101F000018B900F097F80020DEE70CE000F012F8B6
:101F10002870012C02D1FFF7B3FF01E0FFF774FF37
:101F20006D1C601E84B2002CF0D100F083F80120FB
:101F3000CAE7000070B50825002480211148FEF78B
:101F40000BFE14E06006040E40210E48FEF702FE70
:101F500000F0D2F840210B48FEF7FEFD00F0CCF86F
:101F600080210848FEF7EDFD08B144F00104281E69
:101F7000A5F10101CDB2E5D140210248FEF7EAFD0D
:101F8000204670BD0010014070B5044608251BE0D6
:101F900040211248FEF7DEFD00F0AEF804F08000AC
:101FA00020B180210D48FEF7D7FD03E080210B48CA
:101FB000FEF7D0FD6006040E00F09EF840210748B1
:101FC000FEF7CAFD00F098F8281EA5F10101CDB278
:101FD000DED140210148FEF7BDFD70BD001001407B
:101FE00010B580211248FEF7B7FD40211048FEF7DA
:101FF000B3FD00F081F880210D48FEF7A2FD08B97D
:10200000002010BD80210A48FEF7A4FD00F074F8FE
:1020100080210748FEF795FD08B10020F1E78021F7
:102020000348FEF797FD00F067F80120E9E700009C
:102030000010014010B540210B48FEF78BFD00F069
:102040005BF880210848FEF785FD00F055F8402137
:102050000548FEF781FD00F04FF880210248FEF7A9
:102060007BFD00F049F810BD0010014010B5402183
:102070001048FEF76FFD00F03FF880210D48FEF795
:102080006BFD00F039F840210A48FEF765FD00F0CD
:1020900033F880210748FEF754FD28B14021054858
:1020A000FEF758FD002010BD40210248FEF752FD0A
:1020B0000120F8E70010014070B504460D46FFF717
:1020C0008FFF08B9002070BD4220FFF75DFFFFF7CA
:1020D000CDFF18B9FFF7AEFF0020F4E7E0B2FFF73D
:1020E00053FFFFF7C3FF2846FFF74EFFFFF7BEFF82
:1020F000FFF7A0FF0120E6E74FF4C87001E0411EA2
:1021000088B20028FBD1704710B500F001F810BD6F
:102110000CB50020019000903348006840F48030F6
:102120003149086000BF3048006800F4003000907A
:102130000198401C0190009818B90198B0F5A06F63
:10214000F1D12948006800F4003010B1012000905E
:1021500001E0002000900098012843D12348006846
:1021600040F01000214908600846006820F0030094
:1021700008600846006840F0020008601A4840689D
:10218000194948600846406848600846406840F47D
:10219000806048600846406820F47C10486008462B
:1021A000406840F4E81048600846006840F08070DD
:1021B000086000BF0C48006800F000700028F9D0EB
:1021C0000948406820F00300074948600846406815
:1021D00040F00200486000BF0348406800F00C0077
:1021E0000828F9D10CBD0000001002400020024078
:1021F00010B501F081FC10BD10B51348006840F027
:1022000001001149086008464068104908400E491D
:102210004860084600680E4908400B4908600846B7
:10222000006820F4802008600846406820F4FE0022
:1022300048604FF41F008860FFF766FF4FF00060B2
:102240000449086010BD0000001002400000FFF8C3
:10225000FFFFF6FE08ED00E000B58BB00121084657
:10226000FFF732FC0F48FEF76FF90F480068039044
:102270001020029000200A900C4801900020079046
:1022800080200590002008900948009000200690CA
:1022900004904FF40050099069460248FEF710FA86
:1022A0000BB000BD4400024014000020381F002085
:1022B0000438014001F40072B2F5007F00D100BF84
:1022C000CA430280704721B1828942F40052828160
:1022D00004E082894DF6FF731A4082817047000046
:1022E00000B585B001210420FFF7FEFB0121880322
:1022F000FFF7FAFB4FF40070ADF8100018208DF8CE
:10230000130003208DF8120004A91648FEF78EFB77
:102310004FF48060ADF8100004208DF8130004A97C
:102320001048FEF783FB4FF4E13000900020ADF839
:102330000400ADF80600ADF80800ADF80C000C2064
:10234000ADF80A006946084800F026F80121064861
:10235000FFF7B9FF01228021034800F007F805B01C
:1023600000BD000000080140003801401AB1838A16
:102370000B43838202E0838A8B4383827047024649
:102380000020B1F5007F00D100BF13880B400BB1D6
:10239000012000E0002070472DE9F04786B0054697
:1023A0000E460024A24600BFA1460027B08900B116
:1023B00000BF2F462C8A4CF6FF700440F08804437F
:1023C0002C82AC894EF6F3100440B0883189084362
:1023D000718908430443AC81AC8A4FF6FF40044046
:1023E000B0890443AC8201A8FFF78EFB1F488742E7
:1023F00002D1DDF810A001E0DDF80CA0A88900F4FE
:10240000004040B10AEBCA0000EB0A1031684900F5
:10241000B0FBF1F807E00AEBCA0000EB0A103168E4
:102420008900B0FBF1F86420B8FBF0F0040120094A
:10243000642101FB1089A88900F4004040B13220DA
:1024400000EBC900B0FBF1F000F00700044308E026
:10245000322000EB09106421B0FBF1F000F00F0016
:1024600004432C8106B0BDE8F0870000003801402D
:10247000C1F308028280704700BFFEE71FB501214B
:102480004120FFF731FB0820ADF80C0004208DF847
:102490000F0003208DF80E0003A91648FEF7C6FAB8
:1024A00003210220FEF7A2FA0820019000208DF8F7
:1024B00008000C208DF8090001208DF80A0001A801
:1024C000FEF770F90820FEF751F94FF4C060FFF7EE
:1024D000F1F809208DF8000000208DF8010003209C
:1024E0008DF8020001208DF803006846FFF7AAF876
:1024F0001FBD0000001001400FB4054B10B503A92B
:10250000044A029800F018F810BC5DF814FB0000B3
:102510006D2700083401002002E008C8121F08C11E
:10252000002AFAD170477047002001E001C1121F54
:10253000002AFBD1704700002DE9FF4F8BB09A466F
:102540000F460546002606E025280BD052460D9979
:1025500090476D1C761C28780028F5D10FB03046C6
:10256000BDE8F08F0024A0460122604900E004434A
:1025700015F8013F203B02FA03F00842F7D1287812
:102580002E2817D115F8010F44F004042A280ED084
:102590006FF02F022878A0F1300109290AD808EB42
:1025A000880102EB410100EB01086D1CF2E757F8CE
:1025B000048B6D1C287869283ED006DC0028CDD01D
:1025C00063280BD0642804D136E0732810D0752816
:1025D0004BD052460D999047761C85E017F8040BB6
:1025E0008DF8000000208DF80100E946012003E08D
:1025F00057F8049B4FF0FF3061074FF0000401D4FF
:102600000AE0641C44450DDA8442FADB19F8041030
:102610000029F6D106E0641C8442FCDB19F80410A2
:102620000029F8D1264404E019F8010B52460D990F
:102630009047641EF8D257E001CF4FF00A0B0028F4
:1026400002DA40422D2102E0210504D52B218DF82C
:102650002410012103E0E10705D02021F7E70DF167
:10266000200908910CE00021F9E701CF4FF00A0B97
:10267000F9E75946FDF7CEFE01F1300209F8012DC8
:102680000028F6D1ADEB090000F1200B600701D462
:102690004FF00108D84502DDA8EB0B0000E0002058
:1026A0008046002406E009A85246005D0D99904737
:1026B000641C761C08988442F5DB04E03020524606
:1026C0000D999047761CB8F10001A8F10108F5DCDE
:1026D00005E019F8010B52460D999047761CBBF1A5
:1026E0000001ABF1010BF4DC6D1C34E7092801009B
:1026F0002DE9F041C0F3C751A1F17F050446172D24
:10270000A8BFBDE8F0814FF07F471549002D0FDAD3
:10271000FDF79AFDB7EB400F1FD300281DDD002CFD
:10272000A8BF002419DAB4F1004F18BF0D4C14E013
:102730000D4A22FA05F6344208BFBDE8F081FDF7E4
:1027400083FDB7EB400F08D3002806DD002C03DA29
:102750004FF40000E8400444B4432046BDE8F08153
:10276000CAF24971000080BFFFFF7F0070B50446C8
:102770000D46E1B20548FFF77BFE00BF802103480C
:10278000FFF7FDFD0028F9D0204670BD003801405C
:1027900008B500250024FEF719FC0320FEF7A6FB70
:1027A0007A48FEF715FF00214FF47840FEF706FF48
:1027B000774803887748028800210846FEF7E2F947
:1027C000FEF7F6FE002674A13046FEF747FAFFF743
:1027D00087FDFEF703FFFEF7B7FEFFF73DFD73A091
:1027E000FFF78AFEFEF7CFFF20207A49086001201C
:1027F00008600220091D086011E0601CC4B2052CAD
:102800000DDD75A0FFF778FEFEF7D2FEC08840040C
:10281000060C78A13046FEF721FA00BFFEE7FEF76E
:10282000BBFF0128E9D17A49C87CFFF776F87849DF
:10283000C87BFEF7E5FF764991F91000FEF778FFB7
:10284000734991F91100FEF73FFF714991F91200A8
:10285000FEF785FF6E49C87CFFF75FF86C4800788B
:102860006B4E00903389F288B1887088FFF7B7F813
:102870003146887BFEF73AFBFEF79AFEC08840049B
:10288000060C64A13046FEF7E9F969A0FFF734FEB3
:1028900000206E49087000BF04206D4908602020A8
:1028A0006C494861086104206949091F08602020BB
:1028B00068494861086100BF67E064480078022801
:1028C00007D14FF07E512846FDF7BEFC0546FFF7C5
:1028D00085F901215E481438FEF756FE012807D11C
:1028E0003C48001F006880F001003A49091F086059
:1028F0004FF400515748FEF747FE012845D13548AF
:10290000001F006880F002003249091F08600020A3
:102910003F490870488088804FF4A070C880F0203C
:102920000881002048818881032088730020C873B3
:102930000874487488740120C874C87CFEF7EDFFE1
:102940003349C87BFEF75CFF314991F91000FEF76F
:10295000EFFE2F4991F91100FEF7B6FE2C4991F9CF
:102960001200FEF7FCFE2A49C87CFEF7D6FF284875
:102970000078274E00903389F288B1887088FFF77D
:102980002EF83146887BFEF7B1FA96E7E00000208A
:10299000D2000020D00000204248204F5637373266
:1029A0003520546573742044656D6F000D0A202A2C
:1029B0002A204F5637373235C9E3CFF1CDB7CAB5E4
:1029C000CAB1D2BABEA7CFD4CABEC0FDB3CC2A2AE0
:1029D000200D0A00100C01400D0AC3BBD3D0BCEC83
:1029E000B2E2B5BD4F5637373235C9E3CFF1CDB777
:1029F0000D0A00004E6F204F5637373235206D6F6D
:102A000064756C6520646574656374656421000099
:102A1000180000204F563737323520696E697469C7
:102A2000616C697A65207375636365737321000057
:102A30000D0A4F5637373235C9E3CFF1CDB7B3F56D
:102A4000CABCBBAFCDEAB3C90D0A0000C700002065
:102A5000140801400010014070B506460D461446AA
:102A6000094800682044B0F5706F0CD80749064A41
:102A70001268881822462946FDF7C2FB0248006802
:102A800020440149086070BD14000020381F002058
:102A90000A490968096809B9012100E0002121B14A
:102AA0004FF0FF31064A116006E004490968C96821
:102AB000C868034A4168116070470000FC000020AC
:102AC000280100201CB5044641F2DC00005908B979
:102AD00000201CBD41F2D8000059A0B141F2D8003D
:102AE000005908280FD20020009041F2D800005968
:102AF000C0F1080083B241F2D8002218001F21184B
:102B0000204600F041FE4FF6D97000F041FA0190E6
:102B10000123022201A9204600F08EFDD4F8AC0C5E
:102B200060B140F6A8410B5904F54B61D4F8AC2CC8
:102B3000D4F8A40C98470020C4F8AC0C0120C8E7D6
:102B40002DE9FF4F87B004468A461E46DDF85080C7
:102B5000169F012E01DB032E03DD00200BB0BDE824
:102B6000F08F032F03D0042F01D00020F6E74FEAA7
:102B7000C8007843069018990698814201DA00202F
:102B8000ECE74FF497512046FDF753FB4FF0010956
:102B9000012E12D0022E0DD0032E30D1002006E0DF
:102BA000012204F624410A5440310A54401C4028B2
:102BB000F6DB26E04FF00A0900BF00201CE05C496C
:102BC000095C91FBF9F1CAB204F624410A54095C8C
:102BD00019B9012204F624410A545649095C91FBB3
:102BE000F9F1CAB204F664410A54095C19B9012228
:102BF00004F664410A54401C4028E0DB01E0002058
:102C0000ACE700BFC4F8A8AC0998C4F8A40C2046EF
:102C100000F026FC41F2B00040F8048041F2B4011B
:102C200015980851081D075141F2BC011798085129
:102C3000091D18980851002141F2C400015141F2C8
:102C4000D0000151001F0151001F015141F2D40079
:102C50000151001D0151001D015100255AE04FF0A6
:102C6000000B53E00BEBC5000590334A0599525C0D
:102C700004F62441885CFDF7AFFB03902F4850F821
:102C80002B104FF08240FDF737FB01902B4850F896
:102C900025100198FDF730FB02900399FDF72CFBFE
:102CA000014604904FF07E50FDF758FB01460BEBB8
:102CB000C50204F58F5040F822101F4A0599525C56
:102CC00004F66441885CFDF787FB03901B4850F8CD
:102CD0002B104FF08240FDF70FFB0190174850F882
:102CE00025100198FDF708FB02900399FDF704FBFE
:102CF000014604904FF07E50FDF730FB0BEBC50210
:102D000004F5875141F822000BF1010BBBF1080FCC
:102D1000A8DB6D1C082DA2DB41462046159A00F069
:102D200069FD012141F2DC000151012016E700009C
:102D3000943C0008D43C0008B03E0008343F000832
:102D40002DE9F04FADF54F7D044641F2DC0000590E
:102D500020B900200DF54F7DBDE8F08F41F2B000A5
:102D60000759001D0059CE9041F2B80050F8049068
:102D7000001D0059CD904FF0000AEEE0002597E0CD
:102D8000002691E00AEB06000C900C98B84201DB9B
:102D9000781E0C9005FB07F0CD9900FB09110C98EB
:102DA00000FB091898F800000B9098F801000A90B1
:102DB00098F8020009900998FDF70EFB6D49039001
:102DC000FDF79AFA05900A98FDF706FB6A4901900B
:102DD000FDF792FA03900B98FDF7FEFA6749019010
:102DE000FDF78AFA02900399FDF72EFA04900599EF
:102DF000FDF72AFA4FF086410690FDF777FA089022
:102E00000998FDF7E9FA4FF07C510490FDF774FA48
:102E100006900A98FDF7E0FA59490290FDF76CFA1E
:102E200004900B98FDF7D8FA56490290FDF764FA22
:102E300003900499FDF75AFA05900699FDF704FAF4
:102E400007900998FDF7C8FA4F490490FDF754FA26
:102E500006900A98FDF7C0FA4C490290FDF74CFA2B
:102E600004900B98FDF7B8FA4FF07C510290FDF7F3
:102E700043FA03900499FDF739FA05900699FDF796
:102E800035FA834606EBC5018DAA089842F8210061
:102E900006EBC5014DAA079842F8210006EBC501D3
:102EA0000DAA42F821B0761C082EFFF66BAF6D1C00
:102EB000082DFFF665AF41F2D8002318001F211836
:102EC00041F2C800221804F20460CDE90413CDE9F0
:102ED000020204F2011004F20441234604F58F5269
:102EE000CDE900108DA9204600F076F841F2D80017
:102EF0002118001F231841F2CC00221804F60420E8
:102F000002AE0DC6059104F2033104F6040004F28A
:102F1000022304F58752CDE900014DA9204600F0B7
:102F20005BF841F2D8002118001F2318001F221857
:102F300004F6042002AE0DC6059104F2033104F636
:102F4000040004F2022304F58752CDE900010DA923
:102F5000204600F041F80AF1080ABA45FFF60EAF24
:102F600041F2C4000059083041F2C4010851012067
:102F7000F0E60000D578E93DA245163F8716993E58
:102F800027A0A93EB1BF2CBE9D80A63DD95FD63EED
:102F90000CB50146C8B28DF80500080A8DF804008A
:102FA00001980090BDF800000CBD10B50246002845
:102FB00001DA5242401E01234B8002E04B885B1C29
:102FC0004B8053101A1EF9D18C780123A3405B1E4D
:102FD00003400B8010BD00002DE9FF4FADF5037DD0
:102FE0001D46929F919E4FF4807203A88499FDF72D
:102FF00007F903A800F0BCF8002427E003A850F864
:1030000024A0859850F824105046FDF775F98246A3
:103010004FF089415046FDF717F94FF07C51009071
:10302000FDF712F90190FFF763FB82464FF08941EB
:103030005046FDF75BF982465046FDF7D2F98346CC
:103040004A48005D43A941F820B0641C402CD5DB00
:10305000439993980068A1EB000843999398016005
:10306000B8F1000F1AD002A94046FFF79EFFBDF845
:103070000A10909830F8110000906B5C959A949922
:10308000839800F081FBBDF808000090BDF80A307D
:10309000959A9499839800F077FB08E090980088BF
:1030A00000902B78959A9499839800F06DFB4FF0DF
:1030B00000093F2006E043A951F8201009B18146DC
:1030C00002E0401E0028F6DC00BF01243CE04FF087
:1030D000000A11E00AF1010A641CBAF1100F0BD1C9
:1030E000B7F8E001009096F8F030959A949983989B
:1030F00000F04AFB4FF0000A43A850F824000028D3
:10310000E8D043A951F8240002A9FFF74EFF4FF67B
:10311000FF7000EA0A10BDF80A1040EA010B37F808
:103120001B00009016F80B30959A9499839800F044
:103130002BFBBDF808000090BDF80A30959A9499D1
:10314000839800F021FB641C4C45C0DDB9F13F0FB2
:1031500007D0388800903378959A9499839800F036
:1031600013FB0DF5077DBDE8F08F0000B03E0008B1
:103170002DE9F04F8FB0064634460725A7E0E169F8
:103180002068FDF761F80E90E1692068FDF7AEF860
:103190000890A1696068FDF757F80D90A169606813
:1031A000FDF7A4F809906169A068FDF74DF80C904F
:1031B0006169A068FDF79AF88346D4E90301FDF739
:1031C00043F80B90D4E90301FDF790F80A900B99AE
:1031D0000E98FDF739F807900B990E98FDF786F8D1
:1031E0000490DDE90C10FDF72FF80690DDE90C10D6
:1031F000FDF77CF80590DDE90610FDF725F8206065
:10320000DDE90610FDF772F82061DDE90410FDF735
:103210001BF88F490090FDF76FF807463946049870
:10322000FDF712F8A06039460498FDF75FF8A06139
:1032300059460A98FDF708F8079058460999FDF78E
:1032400003F80690DDE90810FCF7FEFF05900599EC
:103250000798FDF74BF87F490090FDF74DF882463F
:103260007D480799FDF748F851460090FCF7ECFFC0
:1032700080467A480599FDF73FF851460090FCF7E3
:10328000E3FF814672490698FDF736F803900399EB
:103290000898FCF7D9FF029003990898FDF726F8E3
:1032A000019041460198FCF7CFFF606141460198CB
:1032B000FDF71CF8E06049460298FCF7C5FF606026
:1032C00049460298FDF712F8E06120346D1E002D8A
:1032D000BFF655AF34460725B3E0D4F8E0102068B8
:1032E000FCF7B2FF0E90D4F8E0102068FCF7FEFF68
:1032F0000890D4F8C010206AFCF7A6FF0D90D4F80F
:10330000C010206AFCF7F2FF0990D4F8A010206CDE
:10331000FCF79AFF0C90D4F8A010206CFCF7E6FFA5
:103320008346D4F88010206EFCF78EFF0B90D4F803
:103330008010206EFCF7DAFF0A900B990E98FCF7CC
:1033400083FF07900B990E98FCF7D0FF0490DDE9FE
:103350000C10FCF779FF0690DDE90C10FCF7C6FFB6
:103360000590DDE90610FCF76FFF2060DDE906102F
:10337000FCF7BCFFC4F88000DDE90410FCF764FF33
:1033800033490090FCF7B8FF074639460498FCF72C
:103390005BFF206439460498FCF7A8FFC4F8C0001E
:1033A00059460A98FCF750FF079058460999FCF7D0
:1033B0004BFF0690DDE90810FCF746FF05900599E4
:1033C0000798FCF793FF23490090FCF795FF82468E
:1033D00021480799FCF790FF51460090FCF734FF15
:1033E00080461E480599FCF787FF51460090FCF780
:1033F0002BFF814616490698FCF77EFF0390039940
:103400000898FCF721FF029003990898FCF76EFFDB
:10341000019041460198FCF717FFC4F8A00041460F
:103420000198FCF763FF206649460298FCF70CFF01
:10343000206249460298FCF759FFC4F8E000241DB9
:103440006D1E002DBFF649AF0FB0BDE8F08F000034
:10345000F304353F15EFC33ED48B0A3F753DA73FBC
:103460002DE9F041ADF6284D04464348C4F8040C5C
:10347000424940F6084001514149001D015141496E
:10348000001D01514048C4F8140C404940F6184052
:1034900001513F49001D01513E49001D01510020CD
:1034A000CDF8180CCDF81C0CCDF8200CCDF8240C60
:1034B00000BF13E000210EE00DF6184252F8203054
:1034C00004F6044252F82020525C1A440DF61843C8
:1034D00043F82020491C1029EEDB401C0428E9DBBE
:1034E00000251DE004F6044252F8251005EB0522E4
:1034F0000DF61403D01800F04FF80DF6184252F8EC
:103500002520D717164605EB05220DF61403D11812
:1035100005AA02EB452032463B4600F054F86D1CEC
:10352000042DDFDB002520E00DF6184050F82500C3
:10353000C717064605A800EB452005EB052C0DF640
:1035400014080CEB080304F6144CCDE90267009054
:103550005CF8252004F2044C0CEB452105EB052C0E
:103560000CEB040000F04EF86D1C042DDCDB0DF6B6
:10357000284DBDE8F0810000143D00084C3D0008D6
:10358000303D0008FE3D0008243D00085C3D000879
:10359000403D00080E3E0008F0B502460023002022
:1035A0000DE0002405E0451CEFB21D465B1C57559D
:1035B000641C0D5CA542F6DC0024D454401C102889
:1035C000EFDB1046F0BDF0B515461E460023002285
:1035D0000C7800BF00BF1746521C20F817305F1C44
:1035E000BBB28F5CA742F6D08F5C07B9F0BD00BFBD
:1035F0004FF6FF7707EA4303671CFCB28F5CA742D4
:10360000F6D1E7E72DE9F0410446DDF818C0DDE921
:103610000856002000BF175C3CF8108021F8178086
:1036200013F8008004F80780401CC717B0EB0508AA
:10363000B741F0DBBDE8F0812DE9F04704460F46C5
:103640009046994608FB09F640F2FF31D4F8AC0CDD
:10365000081AB04201D9304604E040F2FF31D4F8F4
:10366000AC0C081A054604F54B61D4F8AC2C501884
:103670002A463946FCF7C4FDD4F8AC0C2844C4F8FB
:10368000AC0C40F2FF31D4F8AC0C88420CD140F6BF
:10369000A8410B5904F54B61D4F8AC2CD4F8A40C18
:1036A00098470020C4F8AC0CB54205D2721B7919BA
:1036B00001232046FFF7C0FFBDE8F0872DE9FE4358
:1036C00080460D4616461F46DDF82890002400204F
:1036D00002E0295C0C44401C1028FADB4FF6C47051
:1036E000FFF756FC029004F1130188B2FFF750FC7B
:1036F000019049EA0710C0B200900123022202A9FA
:103700004046FFF799FF0123022201A94046FFF737
:1037100093FF01231A4669464046FFF78DFF1023A9
:10372000012229464046FFF787FF23460122314602
:103730004046FFF781FFBDE8FE83FEB505460E4615
:1037400014464FF6DB70FFF723FC029001230222A0
:1037500002A92846FFF770FF4320FFF719FC0190EC
:103760000123022201A92846FFF766FF00940123E6
:103770001A4669462846FFF75FFF0123402231467B
:103780002846FFF759FFFEBD2DE9FC4780460C4651
:1037900015461E46DDF8289028688719C7F12001D4
:1037A00009FA01F12068084320602F601CE02068BE
:1037B000000E019001231A4601A94046FFF73CFF85
:1037C0009DF80400FF2808D10020009001231A462C
:1037D00069464046FFF730FF00BF206800022060C6
:1037E00028680838286000BF28680828DFD2BDE8AC
:1037F000FC870000F0B589B004460D4616464FF62A
:10380000D870FFF7C5FBADF810004FF6E070FFF77A
:10381000BFFBADF8120010273846FFF7B9FBADF833
:10382000140075480168CDF8161000798DF81A005B
:103830004FF48170FFF7ACFBADF81B0001208DF851
:103840001D006020FFF7A4FBADF81E006020FFF70D
:103850009FFBADF8200000208DF822008DF823009A
:103860000123142204A92046FFF7E6FE1E274FF687
:10387000FE70FFF78DFBADF804003846FFF788FBBC
:10388000ADF806001C225D4902A8FCF7B9FC012333
:10389000202201A92046FFF7CFFE002204F6244192
:1038A0002046FFF74AFF012204F664412046FFF755
:1038B00044FF4FF6C070FFF76BFBADF8100011200E
:1038C000FFF766FBADF8120008208DF81400A8B2CF
:1038D000FFF75EFBADF81700B0B2FFF759FBADF88C
:1038E000150003208DF8190045A000680390002002
:1038F00016E0411CC9B28DF8081011218DF809108D
:1039000003A9095C8DF80A1000EB40020DF11A01C1
:103910001144BDF808200A809DF80A208A70401CD6
:103920000328E6DB0123132204A92046FFF784FEC7
:103930000020009003462046D4F8142CD4F8041C30
:10394000FFF7BCFE0020009040F61840025940F6F8
:103950000840015901232046FFF7B0FE01200090E6
:1039600040F61C40025940F60C4001590023204605
:10397000FFF7A4FE012000904FF4426002594FF47B
:103980004160015901232046FFF798FE4FF6DA7097
:10399000FFF7FEFAADF814000C20FFF7F9FAADF8C6
:1039A000160003208DF8180016A00068049000206F
:1039B0000FE0411CC9B28DF80C1004A9095C8DF808
:1039C0000D100DF1190101EB4001BDF80C200A802A
:1039D000401C0328EDDB00208DF81F003F208DF8F0
:1039E000200000208DF8210001230E2205A9204689
:1039F000FFF722FE09B0F0BDF03E0008F53E0008DA
:103A0000000101000011110001460A69D1E90130ED
:103A10009860D1E9010358605068884201D18868F4
:103A20005060002008611068401E106010687047E8
:103A300042684A6093688B6093685960916008613E
:103A400003685B1C0360704710B51B48006818B121
:103A500001201A4908602DE0002018490860184824
:103A60000068B0FA80F0C0F11F0404EB840015492F
:103A700051F8200008B1012000E0002028B940F6EC
:103A8000F62211A117A0FEF737FD04EB84010D4AC1
:103A900002EB810041684968416000F10801426819
:103AA0008A4202D14168496841604168C968114A47
:103AB000116000BF10BD0000300100201C0100207B
:103AC00010010020382E00202E2E5C2E2E5C467217
:103AD000656552544F535C7372635C7461736B73AE
:103AE0002E6300004572726F723A25732C25640DA7
:103AF0000A000000F800002010B500BF502080F33D
:103B00001188BFF34F8FBFF36F8F00BF00F00EF827
:103B100018B14FF080500449086000BF002080F3C6
:103B2000118800BF10BD000004ED00E02DE9F04158
:103B30004FF0000841480068002872D140480068F2
:103B4000451C3F480560EDB93E480068006808B96B
:103B5000012000E0002028B940F6D9123AA141A086
:103B6000FEF7CAFC374807684248006835490860D4
:103B70004048076040480068401C3F490860FEF725
:103B800087FF00BF3D48006885423CD300BF2D48F9
:103B90000068006808B9012000E0002020B14FF063
:103BA000FF30364908602DE026480068C068C468C8
:103BB0006668B54202D23148066023E0201DFFF757
:103BC00023FFA06A18B104F11800FFF71DFF94F855
:103BD0002C10012088402A490968084328490860B8
:103BE000E16A01EB8101274A02EB8100211DFFF709
:103BF0001FFF2549E06A0968C96A8842C7D34FF0A8
:103C00000108C4E700BF20480068C06A00EB8000DC
:103C10001C4951F82000012801D94FF0010805E0A6
:103C2000FFE71A480068401C1849086018480068F7
:103C300008B14FF001084046BDE8F0813001002096
:103C40000C010020FC0000202E2E5C2E2E5C467203
:103C5000656552544F535C7372635C7461736B732C
:103C60002E6300004572726F723A25732C25640D25
:103C70000A0000000001002020010020280100208F
:103C800010010020382E0020F8000020180100202C
:103C90001C010020100B0A101828333D0C0C0E13C9
:103CA0001A3A3C370E0D1018283945380E11161DDA
:103CB0003357503E12162538446D674D1823374050
:103CC0005168715C31404E5767797865485C5F6236
:103CD00070646763100C0E0E121831480B0A10182E
:103CE00028333D0C0D111623405C0E101625374E5F
:103CF0005F13181D384057621A2833445167703AD1
:103D000039576D6879643C45506771786737383E3C
:103D10004D5C656300010501010101010100000026
:103D200000000000000102030405060708090A0B51
:103D30000003010101010101010101000000000077
:103D4000000102030405060708090A0B000201032B
:103D500003020403050504040000017D01020300C1
:103D600004110512213141061351610722711432E9
:103D70008191A1082342B1C11552D1F0243362725E
:103D800082090A161718191A25262728292A3435D0
:103D9000363738393A434445464748494A535455DB
:103DA000565758595A636465666768696A737475CB
:103DB000767778797A838485868788898A929394BE
:103DC00095969798999AA2A3A4A5A6A7A8A9AAB2DE
:103DD000B3B4B5B6B7B8B9BAC2C3C4C5C6C7C8C903
:103DE000CAD2D3D4D5D6D7D8D9DAE1E2E3E4E5E62E
:103DF000E7E8E9EAF1F2F3F4F5F6F7F8F9FA000288
:103E00000102040403040705040400010277000111
:103E10000203110405213106124151076171132279
:103E2000328108144291A1B1C109233352F01562C5
:103E300072D10A162434E125F11718191A262728F9
:103E4000292A35363738393A434445464748494A9E
:103E5000535455565758595A636465666768696A7A
:103E6000737475767778797A828384858687888972
:103E70008A92939495969798999AA2A3A4A5A6A797
:103E8000A8A9AAB2B3B4B5B6B7B8B9BAC2C3C4C5C3
:103E9000C6C7C8C9CAD2D3D4D5D6D7D8D9DAE2E3EF
:103EA000E4E5E6E7E8E9EAF2F3F4F5F6F7F8F9FA1B
:103EB000000105060E0F1B1C0204070D101A1D2A17
:103EC00003080C11191E292B090B12181F282C3559
:103ED0000A131720272D3436141621262E33373C8B
:103EE0001522252F32383B3D23243031393A3E3FCD
:103EF0004A464946004372656174656420627920D0
:103F000054696E79204A50454720456E636F646559
:103F1000720000000000803F868AB13F753DA73FD8
:103F20001783963F0000803F4E23493FD48B0A3FC2
:103F3000AF428D3E0000803F868AB13F753DA73F6E
:103F40001783963F0000803F4E23493FD48B0A3FA2
:103F5000AF428D3E000000000000000000000000A5
:103F600000000000000000181818181818080008B1
:103F70001800000000000034242424000000000089
:103F8000000000000000000016247F2424247E246A
:103F900024000000000000083E6848681C16121249
:103FA0007C10100000000061D29674081016294998
:103FB000C6000000000000003C646438724ACE462F
:103FC0007F00000000000018181818000000000012
:103FD00000000000000000040818103030303010DD
:103FE00010180C04000000201008080C0404040C35
:103FF00008181020000000080A341C6A080000009D
:10400000000000000000000000001818187F1818B9
:104010001800000000000000000000000000001870
:10402000180830000000000000000000003C000004
:104030000000000000000000000000000000001868
:10404000180000000000000206040C0808101020F0
:1040500020400000000000003C6642475B7342665F
:104060003C00000000000000187848080808080814
:104070007E000000000000003C46060604081020F8
:104080007E000000000000007C0606043C020206E0
:104090007C000000000000000C1C14246444FF0499
:1040A00004000000000000007E6060607E020206E6
:1040B0007C000000000000001E3060487642426232
:1040C0003C000000000000007E0206040C081810EE
:1040D00030000000000000003C6242361C66424294
:1040E0003C000000000000003C664242661A0204E8
:1040F0007800000000000000000018180000001800
:10410000180000000000000000001818000000184F
:104110001808300000000000000004183060100C87
:104120000600000000000000000000007E007E008D
:1041300000000000000000000000301804060C1011
:1041400020000000000000301C06060618100010B9
:10415000100000000000001C224141DDB5A5A5AF04
:1041600094C0403C00000000181C342426627E43AA
:10417000C1000000000000007C4642467C424242F2
:104180007C000000000000001E20404040404060D5
:104190003E000000000000007C464243434342468C
:1041A00078000000000000007E6060607E6060605B
:1041B0007E000000000000007E6060607E60606045
:1041C00060000000000000001E604040CE424262DD
:1041D0003E00000000000000424242427E42424255
:1041E00042000000000000007E1818181818181867
:1041F0007E000000000000007C0404040404044469
:1042000078000000000000004244485070584C44C0
:10421000420000000000000020202020202020205C
:104220003E000000000000006266675F5B5BC1C18A
:10423000C100000000000000626272525A4A4E46FD
:1042400046000000000000003C6243C3C3C3436259
:104250003C000000000000007C464242467840409E
:1042600040000000000000003C6243C3C3C343623F
:104270003C180F00000000007C6662667C6C64667F
:1042800062000000000000003E6040601C06020268
:104290007C000000000000007F181818181818187B
:1042A00018000000000000004242424242424262C6
:1042B0003C00000000000000C14342622624341C80
:1042C0001800000000000000C1C141495B5B766638
:1042D000660000000000000043663418181C2466C5
:1042E000C300000000000000C14266341C1818180A
:1042F00018000000000000007E02040C181020606E
:104300007E0000000000001C101010101010101093
:104310001010101C000000402020101008080C0491
:10432000060200000000003C0C0C0C0C0C0C0C0CE9
:104330000C0C0C3C00000000181C24620000000063
:10434000000000000000000000000000000000006D
:10435000000000FF0000002010000000000000002E
:10436000000000000000000000003C06023E424643
:104370007A0000000000004040405C62424242423D
:104380007C0000000000000000001E206040602053
:104390003E0000000000000202023E62424242660D
:1043A0003A0000000000000000003C62427E4060D5
:1043B0003E0000000000000F1810107E10101010BA
:1043C000100000000000000000003F6642665840F8
:1043D0003E43423C0000004040405C624242424258
:1043E00042000000000000181800780808080808BB
:1043F0007E000000000000040C007C04040404049F
:1044000004040C78000000606060626C787068647E
:104410006200000000000078080808080808080882
:104420007E000000000000000000764B4B4B4B4B21
:104430004B0000000000000000005C62424242426B
:10444000420000000000000000003C624243426263
:104450003C0000000000000000005C62424242425A
:104460007C4040400000000000003E624242426644
:104470003A0202020000000000006E726360606099
:10448000600000000000000000003E20203C06020A
:104490007C000000000000001010FE101010101032
:1044A0001E0000000000000000004242424242663E
:1044B0003A00000000000000000043426624341867
:1044C00018000000000000000000C1C15B5A5E66D9
:1044D0006600000000000000000062261C181C2678
:1044E0006200000000000000000043426624341C0B
:1044F000181830E00000000000007E060C181020A4
:104500007E0000000000000E181010103070101017
:104510001010180E00000808080808080808080805
:104520000808080800000030180808080C0E0808E1
:10453000080818300000000000000000714B060061
:10454000000000000000000000000000000000006B
:10455000000000000000000000000000000000005B
:10456000000000000000000000000000000000004B
:1045700000000000000000000000000000000380B8
:104580000180018001800180018001800180018023
:1045900001800000000003C003C000000000000014
:1045A00000000000000000000000000000000E708D
:1045B0000E700E700C3000000000000000000000C3
:1045C00000000000000000000000000000000000EB
:1045D00000000000000000000000000000000000DB
:1045E0000618063806307FFE0C300C300C300C30CC
:1045F0007FFE0C601C601860186000000000000066
:1046000000000000000000000000000000C000C02A
:104610000FF83CC831C031803D801F8003F001F8A5
:10462000031C030C031C3FF83FE0070006000000DA
:104630000000000000000000000000001C007E0ED2
:10464000630C631863307E6000C001800300077C48
:104650000EE61CC618C630C6607C000000000000D4
:1046600000000000000000000000000000000FE05B
:104670001CF0387038701C601FC00F003F8C71CC6C
:1046800060EC607C70383CFC1FCE00000000000035
:10469000000000000000000000000000000003C057
:1046A0000180018001800000000000000000000087
:1046B00000000000000000000000000000000000FA
:1046C000000000000000000000000000003000E0DA
:1046D00001C0018003000700060006000E000E0066
:1046E0000E000E00060007000300038001C000E07A
:1046F0000030000000000000000000000C00060078
:104700000380018001C000E0006000600070007064
:1047100000700060006000E000C0018003800600BF
:104720000C000000000000000000000000000180FC
:1047300011881DB803C007E03DBC0188018000005E
:104740000000000000000000000000000000000069
:104750000000000000000000000000000000000059
:1047600000000000018001800180018001807FFE47
:104770000180018001800180000000000000000035
:104780000000000000000000000000000000000029
:104790000000000000000000000000000000000019
:1047A0000000000003C003C001C001C003801F005F
:1047B00000000000000000000000000000000000F9
:1047C00000000000000000000000000000000FF0EA
:1047D00000000000000000000000000000000000D9
:1047E00000000000000000000000000000000000C9
:1047F00000000000000000000000000000000000B9
:104800000000000003C003C003C00000000000005F
:104810000000000000000000000000000000001880
:1048200000380030006000E000C001C001800300DB
:10483000030006000E000C001C00180030000000F1
:1048400000000000000000000000000000000180E7
:104850000FF01C38381C301C707E70EE738E7E0E8C
:104860007C0C300C381C1E780FE0000000000000AB
:104870000000000000000000000000000000000038
:1048800007C01FC039C001C001C001C001C001C0C4
:1048900001C001C001C03FFC3FFC0000000000005F
:1048A0000000000000000000000000000000038085
:1048B0001FF018380038001800380038007001E088
:1048C000038007001C003FFC3FFC000000000000CC
:1048D0000000000000000000000000000000078051
:1048E0001FF0003800380038003007E007F00038CB
:1048F000001C001C001820F83FE000000000000031
:1049000000000000000000000000000000000000A7
:1049100000F001B0033007300E301C3038307030FA
:104920007FFE7FFE003000300030000000000000FD
:104930000000000000000000000000000000000077
:104940001FF818001800180018001FE000F8001CDD
:10495000001C001C003800F01FC000000000000018
:104960000000000000000000000000000000000047
:1049700003F80F001C001800300037F83C3C300CE6
:10498000300C380C381C1E380FF0000000000000FE
:104990000000000000000000000000000000000017
:1049A0003FFC001C001800380070006000E001C0EF
:1049B00001800380070006000E00000000000000D8
:1049C000000000000000000000000000000003C024
:1049D0001FF8381C381C381C1C380FF007F01C78E6
:1049E000381C300C381C3C380FF000000000000070
:1049F0000000000000000000000000000000038034
:104A00001FF03838301C701C700C380C1FFC0FCC99
:104A1000001C001800701FE01F8000000000000054
:104A20000000000000000000000000000000000086
:104A300000000000000003C003C00180000000006F
:104A40000000000003C003C003C00000000000001D
:104A50000000000000000000000000000000000056
:104A600000000000000003C003C00180000000003F
:104A70000000000003C003C001C001C003800F009C
:104A80000000000000000000000000000000000026
:104A900000000000003800F001C007001E003800D0
:104AA0000E00078001C00070003000000000000010
:104AB00000000000000000000000000000000000F6
:104AC000000000000000000000003FFC00000000AB
:104AD0003FFC3FFC00000000000000000000000060
:104AE00000000000000000000000000000000000C6
:104AF000000000001C000F00038001E00078001C93
:104B0000007001E003800E000C00000000000000B7
:104B100000000000000000000000000000000FC0C6
:104B200000F0003800380038003803F0038003003C
:104B30000300000000000780078000000000000064
:104B400000000000000000000000000000E007F886
:104B50000C0C18063006700363F36633C673CC631F
:104B6000CC62CC66CCE6C7FCE00060007000381078
:104B70001FF0000000000000000000000000000026
:104B800003C007E006E00E700E700C301C381818D9
:104B90003FFC3FFC700E600EE007000000000000CC
:104BA0000000000000000000000000000000000005
:104BB0003FF03838381C381C38383FF03FF8381C84
:104BC000380C380C381C3FF83FE0000000000000B3
:104BD000000000000000000000000000000000E0F5
:104BE00007FC1E04380038003000700070007000B0
:104BF000300038003C001F9C07FC00000000000053
:104C000000000000000000000000000000000000A4
:104C10003FF03078301C300C300E300E300E300E3D
:104C2000300E301C30383FF03FC000000000000064
:104C30000000000000000000000000000000000074
:104C40001FF818001800180018001FF81FF81800A7
:104C50001800180018001FF81FF8000000000000DE
:104C60000000000000000000000000000000000044
:104C70001FF818001800180018001FF81FF8180077
:104C800018001800180018001800000000000000AC
:104C9000000000000000000000000000000000F024
:104CA00007FC1E04380030007000700070FC700CAF
:104CB000700C300C380C1F1C07FC000000000000BA
:104CC00000000000000000000000000000000000E4
:104CD000300C300C300C300C300C3FFC3FFC300CF6
:104CE000300C300C300C300C300C00000000000098
:104CF00000000000000000000000000000000000B4
:104D00003FFC0180018001800180018001800180E1
:104D10000180018001803FFC3FFC0000000000009A
:104D20000000000000000000000000000000000083
:104D30001FF0003000300030003000300030003014
:104D40000030003000701DE01FC0000000000000B7
:104D50000000000000000000000000000000000053
:104D6000381C387038E039C03B803F003F003B8042
:104D700039C038E038703838381C000000000000B6
:104D80000000000000000000000000000000000023
:104D90001C001C001C001C001C001C001C001C0033
:104DA0001C001C001C001FFC1FFC00000000000079
:104DB00000000000000000000000000000000000F3
:104DC000381C7C3C6C3E6E6E666E66CE63C6638637
:104DD0006186600660066006600600000000000054
:104DE00000000000000000000000000000000000C3
:104DF0003C0C3C0C3E0C360C330C338C318C31CCDF
:104E000030EC306C307C303C301C00000000000086
:104E1000000000000000000000000000000001C0D1
:104E20000FF81C3C381C700E700E60066006700E89
:104E3000700E700C381C1E780FE00000000000009F
:104E40000000000000000000000000000000000062
:104E50003FF0383C381C380C380C381C38783FE0B0
:104E6000380038003800380038000000000000002A
:104E7000000000000000000000000000000001C071
:104E80000FF81C3C381C700E700E60066006700E29
:104E9000700E700C381C1E780FE0018001C000FFFE
:104EA000003C0000000000000000000000000000C6
:104EB0003FF0383838183818383838F03FC038E004
:104EC000387038383838381C380E000000000000C0
:104ED000000000000000000000000000000001E0F1
:104EE0000FF83800380038003C001F8003F00078CD
:104EF000001C001C001C38783FE00000000000008F
:104F000000000000000000000000000000000000A1
:104F10007FFE01800180018001800180018001808D
:104F200001800180018001800180000000000000FC
:104F30000000000000000000000000000000000071
:104F4000300C300C300C300C300C300C300C300C81
:104F5000300C300C381C1C380FF000000000000032
:104F60000000000000000000000000000000000041
:104F7000E006700E700E381C381C1C181C380C30E3
:104F80000E70066007E003C003C0000000000000D0
:104F90000000000000000000000000000000000011
:104FA00060066006600660066186638673C673CE1F
:104FB000766C366C3C3C3C3C381C00000000000029
:104FC00000000000000000000000000000000000E1
:104FD000301C38181C380E7007E003C003C007E00F
:104FE0000E701C381838381C700E000000000000CD
:104FF00000000000000000000000000000000000B1
:10500000700E700C381C1C380E70066007E003C070
:10501000018001800180018001800000000000000B
:105020000000000000000000000000000000000080
:105030003FFC001C0038007000E001C00380070046
:105040000E000C0018003FFC3FFC000000000000B8
:1050500000000000000000000000000007F007F062
:105060000600060006000600060006000600060010
:105070000600060006000600060006000600060000
:1050800007F0000000000000000000000000180011
:105090001C000C000600070003000380018001C013
:1050A00000C000600070003000380018000C0000E4
:1050B0000000000000000000000000000FE00FE012
:1050C00000600060006000600060006000600060E0
:1050D00000600060006000600060006000600060D0
:1050E0000FE00000000000000000000000000000D1
:1050F00003C006C006600C301818301C0000000009
:10510000000000000000000000000000000000009F
:10511000000000000000000000000000000000008F
:10512000000000000000000000000000000000007F
:10513000000000000000000000000000000000006F
:10514000FFFF0000000000000000000000001E0043
:1051500003800000000000000000000000000000CC
:10516000000000000000000000000000000000003F
:10517000000000000000000000000000000000002F
:105180000000000000001FF01038001C001C0FFC85
:105190001C1C381C381C3CFC1FDC000000000000FC
:1051A00000000000000000000000000000003800C7
:1051B0003800380038003BF83E1C3C1C380C380CDA
:1051C000380C380C381C3C781FE000000000000050
:1051D00000000000000000000000000000000000CF
:1051E00000000000000007F80E001C003800380026
:1051F000380038001C000F1807F8000000000000FD
:105200000000000000000000000000000000001C82
:10521000001C001C001C0FFC1C1C381C301C301C0B
:10522000301C301C383C1CFC0F9C000000000000AF
:10523000000000000000000000000000000000006E
:105240000000000000000FF01C38381C300C3FFC40
:105250003000300038001E0C07FC00000000000089
:10526000000000000000000000000000003C01FE03
:1052700003800300030003007FFC7FFC03000300A6
:10528000030003000300030003000000000000000F
:10529000000000000000000000000000000000000E
:1052A0000000000000000FFE1C38381838181838AD
:1052B0001FF03B8030003FF01FFC300E700E381C9A
:1052C0001FF800000000000000000000000038008F
:1052D0003800380038003BF83E383C1C381C381C7D
:1052E000381C381C381C381C381C0000000000001A
:1052F000000000000000000000000000018003C06A
:1053000003C0000000001FC001C001C001C001C0F7
:1053100001C001C001C001C03FFC0000000000004E
:1053200000000000000000000000000000200070ED
:105330000070000000003FF000700070007000700E
:10534000007000700070007000700070007020E04D
:105350003FC0000000000000000000000000180036
:10536000180018001800183C187018E01B801F0067
:105370001B8019E018701838181C0000000000008D
:1053800000000000000000000000000000001FC03E
:1053900001C001C001C001C001C001C001C001C005
:1053A00001C001C001C001C03FFC000000000000BE
:1053B00000000000000000000000000000000000ED
:1053C0000000000000006F3C79EE71CE718E718E8E
:1053D000718E718E718E718E718E000000000000D2
:1053E00000000000000000000000000000000000BD
:1053F0000000000000003BF83E383C1C381C381C04
:10540000381C381C381C381C381C000000000000F8
:10541000000000000000000000000000000000008C
:105420000000000000000FF01C3C381C700E700ED5
:10543000700E700C381C1E780FE000000000000099
:10544000000000000000000000000000000000005C
:105450000000000000003BF83E1C3C1C380C380CDF
:10546000380C380C381C3C783FE0380038003800E5
:1054700038000000000000000000000000000000F4
:105480000000000000000FFC1C1C381C301C301CED
:10549000301C301C383C1CFC0F9C001C001C001CE9
:1054A000001C0000000000000000000000000000E0
:1054B00000000000000019F81F1C1C0C180E18003A
:1054C0001800180018001800180000000000000064
:1054D00000000000000000000000000000000000CC
:1054E0000000000000000FF81C0018001E000FC094
:1054F00001F80018001818381FF000000000000024
:10550000000000000000000000000000000000009B
:105510000600060006007FFC0600060006000600E6
:10552000060006000700078401FC000000000000E0
:10553000000000000000000000000000000000006B
:10554000000000000000381C381C381C381C381CB7
:10555000381C381C383C1CFC0FDC0000000000002C
:10556000000000000000000000000000000000003B
:10557000000000000000700C381C38181C380C307B
:105580000E70066007E003C003C0000000000000CA
:10559000000000000000000000000000000000000B
:1055A000000000000000600660066186738E73CC08
:1055B00033CC366C366C3C3C3C38000000000000BC
:1055C00000000000000000000000000000000000DB
:1055D000000000000000381C1C380E7007E003C0FB
:1055E00003C007E00E701C38381E000000000000E9
:1055F00000000000000000000000000000000000AB
:10560000000000000000700C381C38181C380C30EA
:105610000E70066007E003C003C0038007000E00A1
:105620007C000000000000000000000000000000FE
:105630000000000000001FF80038007000E001C00A
:10564000038007000C001FFC3FFC0000000000006E
:10565000000000000000000000000000007801F8D9
:105660000380038003800380038003003F003E002B
:10567000030003800380038003800380038001C054
:1056800000F800000000000001800180018001801E
:105690000180018001800180018001800180018002
:1056A00001800180018001800180018001800180F2
:1056B0000180000000000000000000001E001F80AC
:1056C000018001C001C001C001C000C000FC007C1D
:1056D00000C001C001C001C001C001C001C0038001
:1056E0001F0000000000000000000000000000009B
:1056F000000000000000000000001C003F0671CE0A
:1057000060FC00000000000000000000000000003D
:105710000000000000000000000000000000000089
:105720000000000000000000000000000000000079
:105730000000000000000000000000000000000069
:105740000000000000000000000000000000000059
:105750000000000000000000000000000000000049
:105760000000000000000000000000000000000039
:105770000000000000000000000000000000000029
:10578000000000000000003C00003C00003C000065
:105790003C00003C00003C00003C00003C00003CA1
:1057A00000003C00003C00003C00003C00003C00CD
:1057B000000000000000003C00007E00003C0000F3
:1057C00000000000000000000000000000000000D9
:1057D00000000000000000000000000000000000C9
:1057E00000000000000003C3E003C3E003C3C003E4
:1057F000C3C003C3C003C3C003C1C0000000000096
:105800000000000000000000000000000000000098
:105810000000000000000000000000000000000088
:105820000000000000000000000000000000000078
:105830000000000000000000000000000000000068
:1058400000000000000000000000000001E0E00196
:10585000C0E001C0E001C0E03FFFFE3FFFFE03C12A
:10586000C00381C00381C00381C07FFFFC7FFFFCB8
:1058700007838007038007038007038007078000F2
:105880000000000000000000000000000000000018
:105890000000000000000000000000000000000008
:1058A000000000000700000F00000E0001FFF007DD
:1058B000FFF01F0E001E1E001E1C001E1C000FDC31
:1058C0000007FC0000FF80003FF00038F800387847
:1058D00000783C0070783071F83FFFE01FFF000057
:1058E000E00000E00000E000000000000000000018
:1058F00000000000000000000000000000000000A8
:105900000000000000000F800F3FE01E78703C7028
:1059100070707070E07071C03FE3801FC700000EB0
:1059200000001C0000780000F0F001E7FC03CF0E3F
:10593000078E0E0F0E0E1E0E0E3C07BC7003F800F5
:105940000000000000000000000000000000000057
:105950000000000000000000000000000000000047
:1059600000000000000000000001FF0007FF800FA2
:1059700003C00F03C00F03C00F0780079F0003FE83
:105980000003F0000FF83C3E7C3C3C1F3C780FF8D5
:105990007807F87C01F03E03F81FFFFC07FE1F00AC
:1059A00000000000000000000000000000000000F7
:1059B00000000000000000000000000000000000E7
:1059C000000000000000003E00003C00003C000021
:1059D0003C00003C00003C00003C000000000000D7
:1059E00000000000000000000000000000000000B7
:1059F00000000000000000000000000000000000A7
:105A00000000000000000000000000000000000096
:105A10000000000000000000000000000000000086
:105A20000000000000800001C0000780000F00009F
:105A30001E00003C0000780000F00000E00001E0E3
:105A40000001E00001C00003C00003C00001C0006D
:105A500001E00001E00000F00000F000007800002C
:105A60003C00001E00000F000007C00001C0000045
:105A70000000000000000000000000000000000026
:105A800000000000000003C00001E00000F0000082
:105A90007C00003E00001E00000F00000780000791
:105AA000800003800003C00003C00003C00003C0E7
:105AB000000380000780000780000F00001E000028
:105AC0003C0000780000F00001E0000380000000CE
:105AD00000000000000000000000000000000000C6
